{
	"job-6-binary-ssearch/BinarySearch.sol": {
		"BinarySearch": {
			"abi": [
				{
					"inputs": [
						{
							"internalType": "uint256[]",
							"name": "arr",
							"type": "uint256[]"
						},
						{
							"internalType": "uint256",
							"name": "target",
							"type": "uint256"
						}
					],
					"name": "binarySear",
					"outputs": [
						{
							"internalType": "uint256",
							"name": "",
							"type": "uint256"
						}
					],
					"stateMutability": "pure",
					"type": "function"
				}
			],
			"devdoc": {
				"kind": "dev",
				"methods": {},
				"version": 1
			},
			"evm": {
				"assembly": "    /* \"job-6-binary-ssearch/BinarySearch.sol\":57:657  contract BinarySearch{... */\n  mstore(0x40, 0x80)\n  callvalue\n  dup1\n  iszero\n  tag_1\n  jumpi\n  revert(0x00, 0x00)\ntag_1:\n  pop\n  dataSize(sub_0)\n  dup1\n  dataOffset(sub_0)\n  0x00\n  codecopy\n  0x00\n  return\nstop\n\nsub_0: assembly {\n        /* \"job-6-binary-ssearch/BinarySearch.sol\":57:657  contract BinarySearch{... */\n      mstore(0x40, 0x80)\n      callvalue\n      dup1\n      iszero\n      tag_1\n      jumpi\n      revert(0x00, 0x00)\n    tag_1:\n      pop\n      jumpi(tag_2, lt(calldatasize, 0x04))\n      shr(0xe0, calldataload(0x00))\n      dup1\n      0xa6938d9e\n      eq\n      tag_3\n      jumpi\n    tag_2:\n      revert(0x00, 0x00)\n        /* \"job-6-binary-ssearch/BinarySearch.sol\":85:655  function binarySear(uint[] memory arr, uint target) external pure returns(uint){... */\n    tag_3:\n      tag_4\n      0x04\n      dup1\n      calldatasize\n      sub\n      dup2\n      add\n      swap1\n      tag_5\n      swap2\n      swap1\n      tag_6\n      jump\t// in\n    tag_5:\n      tag_7\n      jump\t// in\n    tag_4:\n      mload(0x40)\n      tag_8\n      swap2\n      swap1\n      tag_9\n      jump\t// in\n    tag_8:\n      mload(0x40)\n      dup1\n      swap2\n      sub\n      swap1\n      return\n    tag_7:\n        /* \"job-6-binary-ssearch/BinarySearch.sol\":159:163  uint */\n      0x00\n        /* \"job-6-binary-ssearch/BinarySearch.sol\":191:192  0 */\n      0x00\n        /* \"job-6-binary-ssearch/BinarySearch.sol\":177:180  arr */\n      dup4\n        /* \"job-6-binary-ssearch/BinarySearch.sol\":177:187  arr.length */\n      mload\n        /* \"job-6-binary-ssearch/BinarySearch.sol\":177:192  arr.length == 0 */\n      sub\n        /* \"job-6-binary-ssearch/BinarySearch.sol\":174:226  if(arr.length == 0){... */\n      tag_11\n      jumpi\n        /* \"job-6-binary-ssearch/BinarySearch.sol\":214:215  0 */\n      0x00\n        /* \"job-6-binary-ssearch/BinarySearch.sol\":207:215  return 0 */\n      swap1\n      pop\n      jump(tag_10)\n        /* \"job-6-binary-ssearch/BinarySearch.sol\":174:226  if(arr.length == 0){... */\n    tag_11:\n        /* \"job-6-binary-ssearch/BinarySearch.sol\":235:244  uint prev */\n      0x00\n        /* \"job-6-binary-ssearch/BinarySearch.sol\":254:263  uint next */\n      0x00\n        /* \"job-6-binary-ssearch/BinarySearch.sol\":279:280  1 */\n      0x01\n        /* \"job-6-binary-ssearch/BinarySearch.sol\":266:269  arr */\n      dup6\n        /* \"job-6-binary-ssearch/BinarySearch.sol\":266:276  arr.length */\n      mload\n        /* \"job-6-binary-ssearch/BinarySearch.sol\":266:280  arr.length - 1 */\n      tag_12\n      swap2\n      swap1\n      tag_13\n      jump\t// in\n    tag_12:\n        /* \"job-6-binary-ssearch/BinarySearch.sol\":254:280  uint next = arr.length - 1 */\n      swap1\n      pop\n        /* \"job-6-binary-ssearch/BinarySearch.sol\":290:301  uint middle */\n      0x00\n        /* \"job-6-binary-ssearch/BinarySearch.sol\":320:321  2 */\n      0x02\n        /* \"job-6-binary-ssearch/BinarySearch.sol\":312:316  next */\n      dup3\n        /* \"job-6-binary-ssearch/BinarySearch.sol\":305:309  prev */\n      dup5\n        /* \"job-6-binary-ssearch/BinarySearch.sol\":305:316  prev + next */\n      tag_14\n      swap2\n      swap1\n      tag_15\n      jump\t// in\n    tag_14:\n        /* \"job-6-binary-ssearch/BinarySearch.sol\":304:321  (prev + next) / 2 */\n      tag_16\n      swap2\n      swap1\n      tag_17\n      jump\t// in\n    tag_16:\n        /* \"job-6-binary-ssearch/BinarySearch.sol\":290:321  uint middle = (prev + next) / 2 */\n      swap1\n      pop\n        /* \"job-6-binary-ssearch/BinarySearch.sol\":332:621  while (prev <= next){... */\n    tag_18:\n        /* \"job-6-binary-ssearch/BinarySearch.sol\":347:351  next */\n      dup2\n        /* \"job-6-binary-ssearch/BinarySearch.sol\":339:343  prev */\n      dup4\n        /* \"job-6-binary-ssearch/BinarySearch.sol\":339:351  prev <= next */\n      gt\n        /* \"job-6-binary-ssearch/BinarySearch.sol\":332:621  while (prev <= next){... */\n      tag_19\n      jumpi\n        /* \"job-6-binary-ssearch/BinarySearch.sol\":379:382  arr */\n      dup6\n        /* \"job-6-binary-ssearch/BinarySearch.sol\":383:389  middle */\n      dup2\n        /* \"job-6-binary-ssearch/BinarySearch.sol\":379:390  arr[middle] */\n      dup2\n      mload\n      dup2\n      lt\n      tag_20\n      jumpi\n      tag_21\n      tag_22\n      jump\t// in\n    tag_21:\n    tag_20:\n      0x20\n      mul\n      0x20\n      add\n      add\n      mload\n        /* \"job-6-binary-ssearch/BinarySearch.sol\":369:375  target */\n      dup6\n        /* \"job-6-binary-ssearch/BinarySearch.sol\":369:390  target == arr[middle] */\n      sub\n        /* \"job-6-binary-ssearch/BinarySearch.sol\":366:570  if(target == arr[middle]){... */\n      tag_23\n      jumpi\n        /* \"job-6-binary-ssearch/BinarySearch.sol\":416:422  middle */\n      dup1\n        /* \"job-6-binary-ssearch/BinarySearch.sol\":409:422  return middle */\n      swap4\n      pop\n      pop\n      pop\n      pop\n      jump(tag_10)\n        /* \"job-6-binary-ssearch/BinarySearch.sol\":366:570  if(target == arr[middle]){... */\n    tag_23:\n        /* \"job-6-binary-ssearch/BinarySearch.sol\":454:457  arr */\n      dup6\n        /* \"job-6-binary-ssearch/BinarySearch.sol\":458:464  middle */\n      dup2\n        /* \"job-6-binary-ssearch/BinarySearch.sol\":454:465  arr[middle] */\n      dup2\n      mload\n      dup2\n      lt\n      tag_25\n      jumpi\n      tag_26\n      tag_22\n      jump\t// in\n    tag_26:\n    tag_25:\n      0x20\n      mul\n      0x20\n      add\n      add\n      mload\n        /* \"job-6-binary-ssearch/BinarySearch.sol\":445:451  target */\n      dup6\n        /* \"job-6-binary-ssearch/BinarySearch.sol\":445:465  target < arr[middle] */\n      lt\n        /* \"job-6-binary-ssearch/BinarySearch.sol\":442:570  if(target < arr[middle]){... */\n      iszero\n      tag_27\n      jumpi\n        /* \"job-6-binary-ssearch/BinarySearch.sol\":500:501  1 */\n      0x01\n        /* \"job-6-binary-ssearch/BinarySearch.sol\":491:497  middle */\n      dup2\n        /* \"job-6-binary-ssearch/BinarySearch.sol\":491:501  middle - 1 */\n      tag_28\n      swap2\n      swap1\n      tag_13\n      jump\t// in\n    tag_28:\n        /* \"job-6-binary-ssearch/BinarySearch.sol\":484:501  next = middle - 1 */\n      swap2\n      pop\n        /* \"job-6-binary-ssearch/BinarySearch.sol\":442:570  if(target < arr[middle]){... */\n      jump(tag_29)\n    tag_27:\n        /* \"job-6-binary-ssearch/BinarySearch.sol\":554:555  1 */\n      0x01\n        /* \"job-6-binary-ssearch/BinarySearch.sol\":545:551  middle */\n      dup2\n        /* \"job-6-binary-ssearch/BinarySearch.sol\":545:555  middle + 1 */\n      tag_30\n      swap2\n      swap1\n      tag_15\n      jump\t// in\n    tag_30:\n        /* \"job-6-binary-ssearch/BinarySearch.sol\":538:555  prev = middle + 1 */\n      swap3\n      pop\n        /* \"job-6-binary-ssearch/BinarySearch.sol\":442:570  if(target < arr[middle]){... */\n    tag_29:\n        /* \"job-6-binary-ssearch/BinarySearch.sol\":609:610  2 */\n      0x02\n        /* \"job-6-binary-ssearch/BinarySearch.sol\":601:605  next */\n      dup3\n        /* \"job-6-binary-ssearch/BinarySearch.sol\":594:598  prev */\n      dup5\n        /* \"job-6-binary-ssearch/BinarySearch.sol\":594:605  prev + next */\n      tag_31\n      swap2\n      swap1\n      tag_15\n      jump\t// in\n    tag_31:\n        /* \"job-6-binary-ssearch/BinarySearch.sol\":593:610  (prev + next) / 2 */\n      tag_32\n      swap2\n      swap1\n      tag_17\n      jump\t// in\n    tag_32:\n        /* \"job-6-binary-ssearch/BinarySearch.sol\":583:610  middle =  (prev + next) / 2 */\n      swap1\n      pop\n        /* \"job-6-binary-ssearch/BinarySearch.sol\":332:621  while (prev <= next){... */\n      jump(tag_18)\n    tag_19:\n        /* \"job-6-binary-ssearch/BinarySearch.sol\":638:641  arr */\n      dup6\n        /* \"job-6-binary-ssearch/BinarySearch.sol\":638:648  arr.length */\n      mload\n        /* \"job-6-binary-ssearch/BinarySearch.sol\":631:648  return arr.length */\n      swap4\n      pop\n      pop\n      pop\n      pop\n        /* \"job-6-binary-ssearch/BinarySearch.sol\":85:655  function binarySear(uint[] memory arr, uint target) external pure returns(uint){... */\n    tag_10:\n      swap3\n      swap2\n      pop\n      pop\n      jump\t// out\n        /* \"#utility.yul\":7:82   */\n    tag_33:\n        /* \"#utility.yul\":40:46   */\n      0x00\n        /* \"#utility.yul\":73:75   */\n      0x40\n        /* \"#utility.yul\":67:76   */\n      mload\n        /* \"#utility.yul\":57:76   */\n      swap1\n      pop\n        /* \"#utility.yul\":7:82   */\n      swap1\n      jump\t// out\n        /* \"#utility.yul\":88:205   */\n    tag_34:\n        /* \"#utility.yul\":197:198   */\n      0x00\n        /* \"#utility.yul\":194:195   */\n      0x00\n        /* \"#utility.yul\":187:199   */\n      revert\n        /* \"#utility.yul\":211:328   */\n    tag_35:\n        /* \"#utility.yul\":320:321   */\n      0x00\n        /* \"#utility.yul\":317:318   */\n      0x00\n        /* \"#utility.yul\":310:322   */\n      revert\n        /* \"#utility.yul\":334:451   */\n    tag_36:\n        /* \"#utility.yul\":443:444   */\n      0x00\n        /* \"#utility.yul\":440:441   */\n      0x00\n        /* \"#utility.yul\":433:445   */\n      revert\n        /* \"#utility.yul\":457:559   */\n    tag_37:\n        /* \"#utility.yul\":498:504   */\n      0x00\n        /* \"#utility.yul\":549:551   */\n      0x1f\n        /* \"#utility.yul\":545:552   */\n      not\n        /* \"#utility.yul\":540:542   */\n      0x1f\n        /* \"#utility.yul\":533:538   */\n      dup4\n        /* \"#utility.yul\":529:543   */\n      add\n        /* \"#utility.yul\":525:553   */\n      and\n        /* \"#utility.yul\":515:553   */\n      swap1\n      pop\n        /* \"#utility.yul\":457:559   */\n      swap2\n      swap1\n      pop\n      jump\t// out\n        /* \"#utility.yul\":565:745   */\n    tag_38:\n        /* \"#utility.yul\":613:690   */\n      0x4e487b7100000000000000000000000000000000000000000000000000000000\n        /* \"#utility.yul\":610:611   */\n      0x00\n        /* \"#utility.yul\":603:691   */\n      mstore\n        /* \"#utility.yul\":710:714   */\n      0x41\n        /* \"#utility.yul\":707:708   */\n      0x04\n        /* \"#utility.yul\":700:715   */\n      mstore\n        /* \"#utility.yul\":734:738   */\n      0x24\n        /* \"#utility.yul\":731:732   */\n      0x00\n        /* \"#utility.yul\":724:739   */\n      revert\n        /* \"#utility.yul\":751:1032   */\n    tag_39:\n        /* \"#utility.yul\":834:861   */\n      tag_59\n        /* \"#utility.yul\":856:860   */\n      dup3\n        /* \"#utility.yul\":834:861   */\n      tag_37\n      jump\t// in\n    tag_59:\n        /* \"#utility.yul\":826:832   */\n      dup2\n        /* \"#utility.yul\":822:862   */\n      add\n        /* \"#utility.yul\":964:970   */\n      dup2\n        /* \"#utility.yul\":952:962   */\n      dup2\n        /* \"#utility.yul\":949:971   */\n      lt\n        /* \"#utility.yul\":928:946   */\n      0xffffffffffffffff\n        /* \"#utility.yul\":916:926   */\n      dup3\n        /* \"#utility.yul\":913:947   */\n      gt\n        /* \"#utility.yul\":910:972   */\n      or\n        /* \"#utility.yul\":907:995   */\n      iszero\n      tag_60\n      jumpi\n        /* \"#utility.yul\":975:993   */\n      tag_61\n      tag_38\n      jump\t// in\n    tag_61:\n        /* \"#utility.yul\":907:995   */\n    tag_60:\n        /* \"#utility.yul\":1015:1025   */\n      dup1\n        /* \"#utility.yul\":1011:1013   */\n      0x40\n        /* \"#utility.yul\":1004:1026   */\n      mstore\n        /* \"#utility.yul\":794:1032   */\n      pop\n        /* \"#utility.yul\":751:1032   */\n      pop\n      pop\n      jump\t// out\n        /* \"#utility.yul\":1038:1167   */\n    tag_40:\n        /* \"#utility.yul\":1072:1078   */\n      0x00\n        /* \"#utility.yul\":1099:1119   */\n      tag_63\n      tag_33\n      jump\t// in\n    tag_63:\n        /* \"#utility.yul\":1089:1119   */\n      swap1\n      pop\n        /* \"#utility.yul\":1128:1161   */\n      tag_64\n        /* \"#utility.yul\":1156:1160   */\n      dup3\n        /* \"#utility.yul\":1148:1154   */\n      dup3\n        /* \"#utility.yul\":1128:1161   */\n      tag_39\n      jump\t// in\n    tag_64:\n        /* \"#utility.yul\":1038:1167   */\n      swap2\n      swap1\n      pop\n      jump\t// out\n        /* \"#utility.yul\":1173:1484   */\n    tag_41:\n        /* \"#utility.yul\":1250:1254   */\n      0x00\n        /* \"#utility.yul\":1340:1358   */\n      0xffffffffffffffff\n        /* \"#utility.yul\":1332:1338   */\n      dup3\n        /* \"#utility.yul\":1329:1359   */\n      gt\n        /* \"#utility.yul\":1326:1382   */\n      iszero\n      tag_66\n      jumpi\n        /* \"#utility.yul\":1362:1380   */\n      tag_67\n      tag_38\n      jump\t// in\n    tag_67:\n        /* \"#utility.yul\":1326:1382   */\n    tag_66:\n        /* \"#utility.yul\":1412:1416   */\n      0x20\n        /* \"#utility.yul\":1404:1410   */\n      dup3\n        /* \"#utility.yul\":1400:1417   */\n      mul\n        /* \"#utility.yul\":1392:1417   */\n      swap1\n      pop\n        /* \"#utility.yul\":1472:1476   */\n      0x20\n        /* \"#utility.yul\":1466:1470   */\n      dup2\n        /* \"#utility.yul\":1462:1477   */\n      add\n        /* \"#utility.yul\":1454:1477   */\n      swap1\n      pop\n        /* \"#utility.yul\":1173:1484   */\n      swap2\n      swap1\n      pop\n      jump\t// out\n        /* \"#utility.yul\":1490:1607   */\n    tag_42:\n        /* \"#utility.yul\":1599:1600   */\n      0x00\n        /* \"#utility.yul\":1596:1597   */\n      0x00\n        /* \"#utility.yul\":1589:1601   */\n      revert\n        /* \"#utility.yul\":1613:1690   */\n    tag_43:\n        /* \"#utility.yul\":1650:1657   */\n      0x00\n        /* \"#utility.yul\":1679:1684   */\n      dup2\n        /* \"#utility.yul\":1668:1684   */\n      swap1\n      pop\n        /* \"#utility.yul\":1613:1690   */\n      swap2\n      swap1\n      pop\n      jump\t// out\n        /* \"#utility.yul\":1696:1818   */\n    tag_44:\n        /* \"#utility.yul\":1769:1793   */\n      tag_71\n        /* \"#utility.yul\":1787:1792   */\n      dup2\n        /* \"#utility.yul\":1769:1793   */\n      tag_43\n      jump\t// in\n    tag_71:\n        /* \"#utility.yul\":1762:1767   */\n      dup2\n        /* \"#utility.yul\":1759:1794   */\n      eq\n        /* \"#utility.yul\":1749:1812   */\n      tag_72\n      jumpi\n        /* \"#utility.yul\":1808:1809   */\n      0x00\n        /* \"#utility.yul\":1805:1806   */\n      0x00\n        /* \"#utility.yul\":1798:1810   */\n      revert\n        /* \"#utility.yul\":1749:1812   */\n    tag_72:\n        /* \"#utility.yul\":1696:1818   */\n      pop\n      jump\t// out\n        /* \"#utility.yul\":1824:1963   */\n    tag_45:\n        /* \"#utility.yul\":1870:1875   */\n      0x00\n        /* \"#utility.yul\":1908:1914   */\n      dup2\n        /* \"#utility.yul\":1895:1915   */\n      calldataload\n        /* \"#utility.yul\":1886:1915   */\n      swap1\n      pop\n        /* \"#utility.yul\":1924:1957   */\n      tag_74\n        /* \"#utility.yul\":1951:1956   */\n      dup2\n        /* \"#utility.yul\":1924:1957   */\n      tag_44\n      jump\t// in\n    tag_74:\n        /* \"#utility.yul\":1824:1963   */\n      swap3\n      swap2\n      pop\n      pop\n      jump\t// out\n        /* \"#utility.yul\":1986:2696   */\n    tag_46:\n        /* \"#utility.yul\":2082:2087   */\n      0x00\n        /* \"#utility.yul\":2107:2188   */\n      tag_76\n        /* \"#utility.yul\":2123:2187   */\n      tag_77\n        /* \"#utility.yul\":2180:2186   */\n      dup5\n        /* \"#utility.yul\":2123:2187   */\n      tag_41\n      jump\t// in\n    tag_77:\n        /* \"#utility.yul\":2107:2188   */\n      tag_40\n      jump\t// in\n    tag_76:\n        /* \"#utility.yul\":2098:2188   */\n      swap1\n      pop\n        /* \"#utility.yul\":2208:2213   */\n      dup1\n        /* \"#utility.yul\":2237:2243   */\n      dup4\n        /* \"#utility.yul\":2230:2235   */\n      dup3\n        /* \"#utility.yul\":2223:2244   */\n      mstore\n        /* \"#utility.yul\":2271:2275   */\n      0x20\n        /* \"#utility.yul\":2264:2269   */\n      dup3\n        /* \"#utility.yul\":2260:2276   */\n      add\n        /* \"#utility.yul\":2253:2276   */\n      swap1\n      pop\n        /* \"#utility.yul\":2324:2328   */\n      0x20\n        /* \"#utility.yul\":2316:2322   */\n      dup5\n        /* \"#utility.yul\":2312:2329   */\n      mul\n        /* \"#utility.yul\":2304:2310   */\n      dup4\n        /* \"#utility.yul\":2300:2330   */\n      add\n        /* \"#utility.yul\":2353:2356   */\n      dup6\n        /* \"#utility.yul\":2345:2351   */\n      dup2\n        /* \"#utility.yul\":2342:2357   */\n      gt\n        /* \"#utility.yul\":2339:2461   */\n      iszero\n      tag_78\n      jumpi\n        /* \"#utility.yul\":2372:2451   */\n      tag_79\n      tag_42\n      jump\t// in\n    tag_79:\n        /* \"#utility.yul\":2339:2461   */\n    tag_78:\n        /* \"#utility.yul\":2487:2493   */\n      dup4\n        /* \"#utility.yul\":2470:2690   */\n    tag_80:\n        /* \"#utility.yul\":2504:2510   */\n      dup2\n        /* \"#utility.yul\":2499:2502   */\n      dup2\n        /* \"#utility.yul\":2496:2511   */\n      lt\n        /* \"#utility.yul\":2470:2690   */\n      iszero\n      tag_82\n      jumpi\n        /* \"#utility.yul\":2579:2582   */\n      dup1\n        /* \"#utility.yul\":2608:2645   */\n      tag_83\n        /* \"#utility.yul\":2641:2644   */\n      dup9\n        /* \"#utility.yul\":2629:2639   */\n      dup3\n        /* \"#utility.yul\":2608:2645   */\n      tag_45\n      jump\t// in\n    tag_83:\n        /* \"#utility.yul\":2603:2606   */\n      dup5\n        /* \"#utility.yul\":2596:2646   */\n      mstore\n        /* \"#utility.yul\":2675:2679   */\n      0x20\n        /* \"#utility.yul\":2670:2673   */\n      dup5\n        /* \"#utility.yul\":2666:2680   */\n      add\n        /* \"#utility.yul\":2659:2680   */\n      swap4\n      pop\n        /* \"#utility.yul\":2546:2690   */\n      pop\n        /* \"#utility.yul\":2530:2534   */\n      0x20\n        /* \"#utility.yul\":2525:2528   */\n      dup2\n        /* \"#utility.yul\":2521:2535   */\n      add\n        /* \"#utility.yul\":2514:2535   */\n      swap1\n      pop\n        /* \"#utility.yul\":2470:2690   */\n      jump(tag_80)\n    tag_82:\n        /* \"#utility.yul\":2474:2495   */\n      pop\n        /* \"#utility.yul\":2088:2696   */\n      pop\n      pop\n        /* \"#utility.yul\":1986:2696   */\n      swap4\n      swap3\n      pop\n      pop\n      pop\n      jump\t// out\n        /* \"#utility.yul\":2719:3089   */\n    tag_47:\n        /* \"#utility.yul\":2790:2795   */\n      0x00\n        /* \"#utility.yul\":2839:2842   */\n      dup3\n        /* \"#utility.yul\":2832:2836   */\n      0x1f\n        /* \"#utility.yul\":2824:2830   */\n      dup4\n        /* \"#utility.yul\":2820:2837   */\n      add\n        /* \"#utility.yul\":2816:2843   */\n      slt\n        /* \"#utility.yul\":2806:2928   */\n      tag_85\n      jumpi\n        /* \"#utility.yul\":2847:2926   */\n      tag_86\n      tag_36\n      jump\t// in\n    tag_86:\n        /* \"#utility.yul\":2806:2928   */\n    tag_85:\n        /* \"#utility.yul\":2964:2970   */\n      dup2\n        /* \"#utility.yul\":2951:2971   */\n      calldataload\n        /* \"#utility.yul\":2989:3083   */\n      tag_87\n        /* \"#utility.yul\":3079:3082   */\n      dup5\n        /* \"#utility.yul\":3071:3077   */\n      dup3\n        /* \"#utility.yul\":3064:3068   */\n      0x20\n        /* \"#utility.yul\":3056:3062   */\n      dup7\n        /* \"#utility.yul\":3052:3069   */\n      add\n        /* \"#utility.yul\":2989:3083   */\n      tag_46\n      jump\t// in\n    tag_87:\n        /* \"#utility.yul\":2980:3083   */\n      swap2\n      pop\n        /* \"#utility.yul\":2796:3089   */\n      pop\n        /* \"#utility.yul\":2719:3089   */\n      swap3\n      swap2\n      pop\n      pop\n      jump\t// out\n        /* \"#utility.yul\":3095:3779   */\n    tag_6:\n        /* \"#utility.yul\":3188:3194   */\n      0x00\n        /* \"#utility.yul\":3196:3202   */\n      0x00\n        /* \"#utility.yul\":3245:3247   */\n      0x40\n        /* \"#utility.yul\":3233:3242   */\n      dup4\n        /* \"#utility.yul\":3224:3231   */\n      dup6\n        /* \"#utility.yul\":3220:3243   */\n      sub\n        /* \"#utility.yul\":3216:3248   */\n      slt\n        /* \"#utility.yul\":3213:3332   */\n      iszero\n      tag_89\n      jumpi\n        /* \"#utility.yul\":3251:3330   */\n      tag_90\n      tag_34\n      jump\t// in\n    tag_90:\n        /* \"#utility.yul\":3213:3332   */\n    tag_89:\n        /* \"#utility.yul\":3399:3400   */\n      0x00\n        /* \"#utility.yul\":3388:3397   */\n      dup4\n        /* \"#utility.yul\":3384:3401   */\n      add\n        /* \"#utility.yul\":3371:3402   */\n      calldataload\n        /* \"#utility.yul\":3429:3447   */\n      0xffffffffffffffff\n        /* \"#utility.yul\":3421:3427   */\n      dup2\n        /* \"#utility.yul\":3418:3448   */\n      gt\n        /* \"#utility.yul\":3415:3532   */\n      iszero\n      tag_91\n      jumpi\n        /* \"#utility.yul\":3451:3530   */\n      tag_92\n      tag_35\n      jump\t// in\n    tag_92:\n        /* \"#utility.yul\":3415:3532   */\n    tag_91:\n        /* \"#utility.yul\":3556:3634   */\n      tag_93\n        /* \"#utility.yul\":3626:3633   */\n      dup6\n        /* \"#utility.yul\":3617:3623   */\n      dup3\n        /* \"#utility.yul\":3606:3615   */\n      dup7\n        /* \"#utility.yul\":3602:3624   */\n      add\n        /* \"#utility.yul\":3556:3634   */\n      tag_47\n      jump\t// in\n    tag_93:\n        /* \"#utility.yul\":3546:3634   */\n      swap3\n      pop\n        /* \"#utility.yul\":3342:3644   */\n      pop\n        /* \"#utility.yul\":3683:3685   */\n      0x20\n        /* \"#utility.yul\":3709:3762   */\n      tag_94\n        /* \"#utility.yul\":3754:3761   */\n      dup6\n        /* \"#utility.yul\":3745:3751   */\n      dup3\n        /* \"#utility.yul\":3734:3743   */\n      dup7\n        /* \"#utility.yul\":3730:3752   */\n      add\n        /* \"#utility.yul\":3709:3762   */\n      tag_45\n      jump\t// in\n    tag_94:\n        /* \"#utility.yul\":3699:3762   */\n      swap2\n      pop\n        /* \"#utility.yul\":3654:3772   */\n      pop\n        /* \"#utility.yul\":3095:3779   */\n      swap3\n      pop\n      swap3\n      swap1\n      pop\n      jump\t// out\n        /* \"#utility.yul\":3785:3903   */\n    tag_48:\n        /* \"#utility.yul\":3872:3896   */\n      tag_96\n        /* \"#utility.yul\":3890:3895   */\n      dup2\n        /* \"#utility.yul\":3872:3896   */\n      tag_43\n      jump\t// in\n    tag_96:\n        /* \"#utility.yul\":3867:3870   */\n      dup3\n        /* \"#utility.yul\":3860:3897   */\n      mstore\n        /* \"#utility.yul\":3785:3903   */\n      pop\n      pop\n      jump\t// out\n        /* \"#utility.yul\":3909:4131   */\n    tag_9:\n        /* \"#utility.yul\":4002:4006   */\n      0x00\n        /* \"#utility.yul\":4040:4042   */\n      0x20\n        /* \"#utility.yul\":4029:4038   */\n      dup3\n        /* \"#utility.yul\":4025:4043   */\n      add\n        /* \"#utility.yul\":4017:4043   */\n      swap1\n      pop\n        /* \"#utility.yul\":4053:4124   */\n      tag_98\n        /* \"#utility.yul\":4121:4122   */\n      0x00\n        /* \"#utility.yul\":4110:4119   */\n      dup4\n        /* \"#utility.yul\":4106:4123   */\n      add\n        /* \"#utility.yul\":4097:4103   */\n      dup5\n        /* \"#utility.yul\":4053:4124   */\n      tag_48\n      jump\t// in\n    tag_98:\n        /* \"#utility.yul\":3909:4131   */\n      swap3\n      swap2\n      pop\n      pop\n      jump\t// out\n        /* \"#utility.yul\":4137:4317   */\n    tag_49:\n        /* \"#utility.yul\":4185:4262   */\n      0x4e487b7100000000000000000000000000000000000000000000000000000000\n        /* \"#utility.yul\":4182:4183   */\n      0x00\n        /* \"#utility.yul\":4175:4263   */\n      mstore\n        /* \"#utility.yul\":4282:4286   */\n      0x11\n        /* \"#utility.yul\":4279:4280   */\n      0x04\n        /* \"#utility.yul\":4272:4287   */\n      mstore\n        /* \"#utility.yul\":4306:4310   */\n      0x24\n        /* \"#utility.yul\":4303:4304   */\n      0x00\n        /* \"#utility.yul\":4296:4311   */\n      revert\n        /* \"#utility.yul\":4323:4517   */\n    tag_13:\n        /* \"#utility.yul\":4363:4367   */\n      0x00\n        /* \"#utility.yul\":4383:4403   */\n      tag_101\n        /* \"#utility.yul\":4401:4402   */\n      dup3\n        /* \"#utility.yul\":4383:4403   */\n      tag_43\n      jump\t// in\n    tag_101:\n        /* \"#utility.yul\":4378:4403   */\n      swap2\n      pop\n        /* \"#utility.yul\":4417:4437   */\n      tag_102\n        /* \"#utility.yul\":4435:4436   */\n      dup4\n        /* \"#utility.yul\":4417:4437   */\n      tag_43\n      jump\t// in\n    tag_102:\n        /* \"#utility.yul\":4412:4437   */\n      swap3\n      pop\n        /* \"#utility.yul\":4461:4462   */\n      dup3\n        /* \"#utility.yul\":4458:4459   */\n      dup3\n        /* \"#utility.yul\":4454:4463   */\n      sub\n        /* \"#utility.yul\":4446:4463   */\n      swap1\n      pop\n        /* \"#utility.yul\":4485:4486   */\n      dup2\n        /* \"#utility.yul\":4479:4483   */\n      dup2\n        /* \"#utility.yul\":4476:4487   */\n      gt\n        /* \"#utility.yul\":4473:4510   */\n      iszero\n      tag_103\n      jumpi\n        /* \"#utility.yul\":4490:4508   */\n      tag_104\n      tag_49\n      jump\t// in\n    tag_104:\n        /* \"#utility.yul\":4473:4510   */\n    tag_103:\n        /* \"#utility.yul\":4323:4517   */\n      swap3\n      swap2\n      pop\n      pop\n      jump\t// out\n        /* \"#utility.yul\":4523:4714   */\n    tag_15:\n        /* \"#utility.yul\":4563:4566   */\n      0x00\n        /* \"#utility.yul\":4582:4602   */\n      tag_106\n        /* \"#utility.yul\":4600:4601   */\n      dup3\n        /* \"#utility.yul\":4582:4602   */\n      tag_43\n      jump\t// in\n    tag_106:\n        /* \"#utility.yul\":4577:4602   */\n      swap2\n      pop\n        /* \"#utility.yul\":4616:4636   */\n      tag_107\n        /* \"#utility.yul\":4634:4635   */\n      dup4\n        /* \"#utility.yul\":4616:4636   */\n      tag_43\n      jump\t// in\n    tag_107:\n        /* \"#utility.yul\":4611:4636   */\n      swap3\n      pop\n        /* \"#utility.yul\":4659:4660   */\n      dup3\n        /* \"#utility.yul\":4656:4657   */\n      dup3\n        /* \"#utility.yul\":4652:4661   */\n      add\n        /* \"#utility.yul\":4645:4661   */\n      swap1\n      pop\n        /* \"#utility.yul\":4680:4683   */\n      dup1\n        /* \"#utility.yul\":4677:4678   */\n      dup3\n        /* \"#utility.yul\":4674:4684   */\n      gt\n        /* \"#utility.yul\":4671:4707   */\n      iszero\n      tag_108\n      jumpi\n        /* \"#utility.yul\":4687:4705   */\n      tag_109\n      tag_49\n      jump\t// in\n    tag_109:\n        /* \"#utility.yul\":4671:4707   */\n    tag_108:\n        /* \"#utility.yul\":4523:4714   */\n      swap3\n      swap2\n      pop\n      pop\n      jump\t// out\n        /* \"#utility.yul\":4720:4900   */\n    tag_50:\n        /* \"#utility.yul\":4768:4845   */\n      0x4e487b7100000000000000000000000000000000000000000000000000000000\n        /* \"#utility.yul\":4765:4766   */\n      0x00\n        /* \"#utility.yul\":4758:4846   */\n      mstore\n        /* \"#utility.yul\":4865:4869   */\n      0x12\n        /* \"#utility.yul\":4862:4863   */\n      0x04\n        /* \"#utility.yul\":4855:4870   */\n      mstore\n        /* \"#utility.yul\":4889:4893   */\n      0x24\n        /* \"#utility.yul\":4886:4887   */\n      0x00\n        /* \"#utility.yul\":4879:4894   */\n      revert\n        /* \"#utility.yul\":4906:5091   */\n    tag_17:\n        /* \"#utility.yul\":4946:4947   */\n      0x00\n        /* \"#utility.yul\":4963:4983   */\n      tag_112\n        /* \"#utility.yul\":4981:4982   */\n      dup3\n        /* \"#utility.yul\":4963:4983   */\n      tag_43\n      jump\t// in\n    tag_112:\n        /* \"#utility.yul\":4958:4983   */\n      swap2\n      pop\n        /* \"#utility.yul\":4997:5017   */\n      tag_113\n        /* \"#utility.yul\":5015:5016   */\n      dup4\n        /* \"#utility.yul\":4997:5017   */\n      tag_43\n      jump\t// in\n    tag_113:\n        /* \"#utility.yul\":4992:5017   */\n      swap3\n      pop\n        /* \"#utility.yul\":5036:5037   */\n      dup3\n        /* \"#utility.yul\":5026:5061   */\n      tag_114\n      jumpi\n        /* \"#utility.yul\":5041:5059   */\n      tag_115\n      tag_50\n      jump\t// in\n    tag_115:\n        /* \"#utility.yul\":5026:5061   */\n    tag_114:\n        /* \"#utility.yul\":5083:5084   */\n      dup3\n        /* \"#utility.yul\":5080:5081   */\n      dup3\n        /* \"#utility.yul\":5076:5085   */\n      div\n        /* \"#utility.yul\":5071:5085   */\n      swap1\n      pop\n        /* \"#utility.yul\":4906:5091   */\n      swap3\n      swap2\n      pop\n      pop\n      jump\t// out\n        /* \"#utility.yul\":5097:5277   */\n    tag_22:\n        /* \"#utility.yul\":5145:5222   */\n      0x4e487b7100000000000000000000000000000000000000000000000000000000\n        /* \"#utility.yul\":5142:5143   */\n      0x00\n        /* \"#utility.yul\":5135:5223   */\n      mstore\n        /* \"#utility.yul\":5242:5246   */\n      0x32\n        /* \"#utility.yul\":5239:5240   */\n      0x04\n        /* \"#utility.yul\":5232:5247   */\n      mstore\n        /* \"#utility.yul\":5266:5270   */\n      0x24\n        /* \"#utility.yul\":5263:5264   */\n      0x00\n        /* \"#utility.yul\":5256:5271   */\n      revert\n\n    auxdata: 0xa2646970667358221220096518cb932c700660eadfc2e8c2def94707899eeb39b77c4bebb49a953a70ad64736f6c634300081e0033\n}\n",
				"bytecode": {
					"linkReferences": {},
					"object": "6080604052348015600e575f5ffd5b506104ab8061001c5f395ff3fe608060405234801561000f575f5ffd5b5060043610610029575f3560e01c8063a6938d9e1461002d575b5f5ffd5b610047600480360381019061004291906102d6565b61005d565b604051610054919061033f565b60405180910390f35b5f5f83510361006e575f905061013c565b5f5f6001855161007e9190610385565b90505f6002828461008f91906103b8565b6100999190610418565b90505b818311610134578581815181106100b6576100b5610448565b5b602002602001015185036100cf5780935050505061013c565b8581815181106100e2576100e1610448565b5b6020026020010151851015610105576001816100fe9190610385565b9150610115565b60018161011291906103b8565b92505b6002828461012391906103b8565b61012d9190610418565b905061009c565b855193505050505b92915050565b5f604051905090565b5f5ffd5b5f5ffd5b5f5ffd5b5f601f19601f8301169050919050565b7f4e487b71000000000000000000000000000000000000000000000000000000005f52604160045260245ffd5b61019d82610157565b810181811067ffffffffffffffff821117156101bc576101bb610167565b5b80604052505050565b5f6101ce610142565b90506101da8282610194565b919050565b5f67ffffffffffffffff8211156101f9576101f8610167565b5b602082029050602081019050919050565b5f5ffd5b5f819050919050565b6102208161020e565b811461022a575f5ffd5b50565b5f8135905061023b81610217565b92915050565b5f61025361024e846101df565b6101c5565b905080838252602082019050602084028301858111156102765761027561020a565b5b835b8181101561029f578061028b888261022d565b845260208401935050602081019050610278565b5050509392505050565b5f82601f8301126102bd576102bc610153565b5b81356102cd848260208601610241565b91505092915050565b5f5f604083850312156102ec576102eb61014b565b5b5f83013567ffffffffffffffff8111156103095761030861014f565b5b610315858286016102a9565b92505060206103268582860161022d565b9150509250929050565b6103398161020e565b82525050565b5f6020820190506103525f830184610330565b92915050565b7f4e487b71000000000000000000000000000000000000000000000000000000005f52601160045260245ffd5b5f61038f8261020e565b915061039a8361020e565b92508282039050818111156103b2576103b1610358565b5b92915050565b5f6103c28261020e565b91506103cd8361020e565b92508282019050808211156103e5576103e4610358565b5b92915050565b7f4e487b71000000000000000000000000000000000000000000000000000000005f52601260045260245ffd5b5f6104228261020e565b915061042d8361020e565b92508261043d5761043c6103eb565b5b828204905092915050565b7f4e487b71000000000000000000000000000000000000000000000000000000005f52603260045260245ffdfea2646970667358221220096518cb932c700660eadfc2e8c2def94707899eeb39b77c4bebb49a953a70ad64736f6c634300081e0033",
					"opcodes": "PUSH1 0x80 PUSH1 0x40 MSTORE CALLVALUE DUP1 ISZERO PUSH1 0xE JUMPI PUSH0 PUSH0 REVERT JUMPDEST POP PUSH2 0x4AB DUP1 PUSH2 0x1C PUSH0 CODECOPY PUSH0 RETURN INVALID PUSH1 0x80 PUSH1 0x40 MSTORE CALLVALUE DUP1 ISZERO PUSH2 0xF JUMPI PUSH0 PUSH0 REVERT JUMPDEST POP PUSH1 0x4 CALLDATASIZE LT PUSH2 0x29 JUMPI PUSH0 CALLDATALOAD PUSH1 0xE0 SHR DUP1 PUSH4 0xA6938D9E EQ PUSH2 0x2D JUMPI JUMPDEST PUSH0 PUSH0 REVERT JUMPDEST PUSH2 0x47 PUSH1 0x4 DUP1 CALLDATASIZE SUB DUP2 ADD SWAP1 PUSH2 0x42 SWAP2 SWAP1 PUSH2 0x2D6 JUMP JUMPDEST PUSH2 0x5D JUMP JUMPDEST PUSH1 0x40 MLOAD PUSH2 0x54 SWAP2 SWAP1 PUSH2 0x33F JUMP JUMPDEST PUSH1 0x40 MLOAD DUP1 SWAP2 SUB SWAP1 RETURN JUMPDEST PUSH0 PUSH0 DUP4 MLOAD SUB PUSH2 0x6E JUMPI PUSH0 SWAP1 POP PUSH2 0x13C JUMP JUMPDEST PUSH0 PUSH0 PUSH1 0x1 DUP6 MLOAD PUSH2 0x7E SWAP2 SWAP1 PUSH2 0x385 JUMP JUMPDEST SWAP1 POP PUSH0 PUSH1 0x2 DUP3 DUP5 PUSH2 0x8F SWAP2 SWAP1 PUSH2 0x3B8 JUMP JUMPDEST PUSH2 0x99 SWAP2 SWAP1 PUSH2 0x418 JUMP JUMPDEST SWAP1 POP JUMPDEST DUP2 DUP4 GT PUSH2 0x134 JUMPI DUP6 DUP2 DUP2 MLOAD DUP2 LT PUSH2 0xB6 JUMPI PUSH2 0xB5 PUSH2 0x448 JUMP JUMPDEST JUMPDEST PUSH1 0x20 MUL PUSH1 0x20 ADD ADD MLOAD DUP6 SUB PUSH2 0xCF JUMPI DUP1 SWAP4 POP POP POP POP PUSH2 0x13C JUMP JUMPDEST DUP6 DUP2 DUP2 MLOAD DUP2 LT PUSH2 0xE2 JUMPI PUSH2 0xE1 PUSH2 0x448 JUMP JUMPDEST JUMPDEST PUSH1 0x20 MUL PUSH1 0x20 ADD ADD MLOAD DUP6 LT ISZERO PUSH2 0x105 JUMPI PUSH1 0x1 DUP2 PUSH2 0xFE SWAP2 SWAP1 PUSH2 0x385 JUMP JUMPDEST SWAP2 POP PUSH2 0x115 JUMP JUMPDEST PUSH1 0x1 DUP2 PUSH2 0x112 SWAP2 SWAP1 PUSH2 0x3B8 JUMP JUMPDEST SWAP3 POP JUMPDEST PUSH1 0x2 DUP3 DUP5 PUSH2 0x123 SWAP2 SWAP1 PUSH2 0x3B8 JUMP JUMPDEST PUSH2 0x12D SWAP2 SWAP1 PUSH2 0x418 JUMP JUMPDEST SWAP1 POP PUSH2 0x9C JUMP JUMPDEST DUP6 MLOAD SWAP4 POP POP POP POP JUMPDEST SWAP3 SWAP2 POP POP JUMP JUMPDEST PUSH0 PUSH1 0x40 MLOAD SWAP1 POP SWAP1 JUMP JUMPDEST PUSH0 PUSH0 REVERT JUMPDEST PUSH0 PUSH0 REVERT JUMPDEST PUSH0 PUSH0 REVERT JUMPDEST PUSH0 PUSH1 0x1F NOT PUSH1 0x1F DUP4 ADD AND SWAP1 POP SWAP2 SWAP1 POP JUMP JUMPDEST PUSH32 0x4E487B7100000000000000000000000000000000000000000000000000000000 PUSH0 MSTORE PUSH1 0x41 PUSH1 0x4 MSTORE PUSH1 0x24 PUSH0 REVERT JUMPDEST PUSH2 0x19D DUP3 PUSH2 0x157 JUMP JUMPDEST DUP2 ADD DUP2 DUP2 LT PUSH8 0xFFFFFFFFFFFFFFFF DUP3 GT OR ISZERO PUSH2 0x1BC JUMPI PUSH2 0x1BB PUSH2 0x167 JUMP JUMPDEST JUMPDEST DUP1 PUSH1 0x40 MSTORE POP POP POP JUMP JUMPDEST PUSH0 PUSH2 0x1CE PUSH2 0x142 JUMP JUMPDEST SWAP1 POP PUSH2 0x1DA DUP3 DUP3 PUSH2 0x194 JUMP JUMPDEST SWAP2 SWAP1 POP JUMP JUMPDEST PUSH0 PUSH8 0xFFFFFFFFFFFFFFFF DUP3 GT ISZERO PUSH2 0x1F9 JUMPI PUSH2 0x1F8 PUSH2 0x167 JUMP JUMPDEST JUMPDEST PUSH1 0x20 DUP3 MUL SWAP1 POP PUSH1 0x20 DUP2 ADD SWAP1 POP SWAP2 SWAP1 POP JUMP JUMPDEST PUSH0 PUSH0 REVERT JUMPDEST PUSH0 DUP2 SWAP1 POP SWAP2 SWAP1 POP JUMP JUMPDEST PUSH2 0x220 DUP2 PUSH2 0x20E JUMP JUMPDEST DUP2 EQ PUSH2 0x22A JUMPI PUSH0 PUSH0 REVERT JUMPDEST POP JUMP JUMPDEST PUSH0 DUP2 CALLDATALOAD SWAP1 POP PUSH2 0x23B DUP2 PUSH2 0x217 JUMP JUMPDEST SWAP3 SWAP2 POP POP JUMP JUMPDEST PUSH0 PUSH2 0x253 PUSH2 0x24E DUP5 PUSH2 0x1DF JUMP JUMPDEST PUSH2 0x1C5 JUMP JUMPDEST SWAP1 POP DUP1 DUP4 DUP3 MSTORE PUSH1 0x20 DUP3 ADD SWAP1 POP PUSH1 0x20 DUP5 MUL DUP4 ADD DUP6 DUP2 GT ISZERO PUSH2 0x276 JUMPI PUSH2 0x275 PUSH2 0x20A JUMP JUMPDEST JUMPDEST DUP4 JUMPDEST DUP2 DUP2 LT ISZERO PUSH2 0x29F JUMPI DUP1 PUSH2 0x28B DUP9 DUP3 PUSH2 0x22D JUMP JUMPDEST DUP5 MSTORE PUSH1 0x20 DUP5 ADD SWAP4 POP POP PUSH1 0x20 DUP2 ADD SWAP1 POP PUSH2 0x278 JUMP JUMPDEST POP POP POP SWAP4 SWAP3 POP POP POP JUMP JUMPDEST PUSH0 DUP3 PUSH1 0x1F DUP4 ADD SLT PUSH2 0x2BD JUMPI PUSH2 0x2BC PUSH2 0x153 JUMP JUMPDEST JUMPDEST DUP2 CALLDATALOAD PUSH2 0x2CD DUP5 DUP3 PUSH1 0x20 DUP7 ADD PUSH2 0x241 JUMP JUMPDEST SWAP2 POP POP SWAP3 SWAP2 POP POP JUMP JUMPDEST PUSH0 PUSH0 PUSH1 0x40 DUP4 DUP6 SUB SLT ISZERO PUSH2 0x2EC JUMPI PUSH2 0x2EB PUSH2 0x14B JUMP JUMPDEST JUMPDEST PUSH0 DUP4 ADD CALLDATALOAD PUSH8 0xFFFFFFFFFFFFFFFF DUP2 GT ISZERO PUSH2 0x309 JUMPI PUSH2 0x308 PUSH2 0x14F JUMP JUMPDEST JUMPDEST PUSH2 0x315 DUP6 DUP3 DUP7 ADD PUSH2 0x2A9 JUMP JUMPDEST SWAP3 POP POP PUSH1 0x20 PUSH2 0x326 DUP6 DUP3 DUP7 ADD PUSH2 0x22D JUMP JUMPDEST SWAP2 POP POP SWAP3 POP SWAP3 SWAP1 POP JUMP JUMPDEST PUSH2 0x339 DUP2 PUSH2 0x20E JUMP JUMPDEST DUP3 MSTORE POP POP JUMP JUMPDEST PUSH0 PUSH1 0x20 DUP3 ADD SWAP1 POP PUSH2 0x352 PUSH0 DUP4 ADD DUP5 PUSH2 0x330 JUMP JUMPDEST SWAP3 SWAP2 POP POP JUMP JUMPDEST PUSH32 0x4E487B7100000000000000000000000000000000000000000000000000000000 PUSH0 MSTORE PUSH1 0x11 PUSH1 0x4 MSTORE PUSH1 0x24 PUSH0 REVERT JUMPDEST PUSH0 PUSH2 0x38F DUP3 PUSH2 0x20E JUMP JUMPDEST SWAP2 POP PUSH2 0x39A DUP4 PUSH2 0x20E JUMP JUMPDEST SWAP3 POP DUP3 DUP3 SUB SWAP1 POP DUP2 DUP2 GT ISZERO PUSH2 0x3B2 JUMPI PUSH2 0x3B1 PUSH2 0x358 JUMP JUMPDEST JUMPDEST SWAP3 SWAP2 POP POP JUMP JUMPDEST PUSH0 PUSH2 0x3C2 DUP3 PUSH2 0x20E JUMP JUMPDEST SWAP2 POP PUSH2 0x3CD DUP4 PUSH2 0x20E JUMP JUMPDEST SWAP3 POP DUP3 DUP3 ADD SWAP1 POP DUP1 DUP3 GT ISZERO PUSH2 0x3E5 JUMPI PUSH2 0x3E4 PUSH2 0x358 JUMP JUMPDEST JUMPDEST SWAP3 SWAP2 POP POP JUMP JUMPDEST PUSH32 0x4E487B7100000000000000000000000000000000000000000000000000000000 PUSH0 MSTORE PUSH1 0x12 PUSH1 0x4 MSTORE PUSH1 0x24 PUSH0 REVERT JUMPDEST PUSH0 PUSH2 0x422 DUP3 PUSH2 0x20E JUMP JUMPDEST SWAP2 POP PUSH2 0x42D DUP4 PUSH2 0x20E JUMP JUMPDEST SWAP3 POP DUP3 PUSH2 0x43D JUMPI PUSH2 0x43C PUSH2 0x3EB JUMP JUMPDEST JUMPDEST DUP3 DUP3 DIV SWAP1 POP SWAP3 SWAP2 POP POP JUMP JUMPDEST PUSH32 0x4E487B7100000000000000000000000000000000000000000000000000000000 PUSH0 MSTORE PUSH1 0x32 PUSH1 0x4 MSTORE PUSH1 0x24 PUSH0 REVERT INVALID LOG2 PUSH5 0x6970667358 0x22 SLT KECCAK256 MULMOD PUSH6 0x18CB932C7006 PUSH1 0xEA 0xDF 0xC2 0xE8 0xC2 0xDE EXTDELEGATECALL SELFBALANCE SMOD DUP10 SWAP15 0xEB CODECOPY 0xB7 PUSH29 0x4BEBB49A953A70AD64736F6C634300081E003300000000000000000000 "
				},
				"gasEstimates": {
					"creation": {
						"codeDepositCost": "239000",
						"executionCost": "279",
						"totalCost": "239279"
					},
					"external": {
						"binarySear(uint256[],uint256)": "infinite"
					}
				},
				"methodIdentifiers": {
					"binarySear(uint256[],uint256)": "a6938d9e"
				}
			},
			"storageLayout": {
				"storage": [],
				"types": null
			},
			"userdoc": {
				"kind": "user",
				"methods": {},
				"version": 1
			}
		}
	}
}