{
	"job-4-int-to-roman/IntToRoman.sol": {
		"IntToRoman": {
			"abi": [
				{
					"inputs": [
						{
							"internalType": "string",
							"name": "s1",
							"type": "string"
						},
						{
							"internalType": "string",
							"name": "s2",
							"type": "string"
						},
						{
							"internalType": "string",
							"name": "s3",
							"type": "string"
						},
						{
							"internalType": "string",
							"name": "s4",
							"type": "string"
						}
					],
					"name": "concatStrings",
					"outputs": [
						{
							"internalType": "string",
							"name": "",
							"type": "string"
						}
					],
					"stateMutability": "pure",
					"type": "function"
				},
				{
					"inputs": [
						{
							"internalType": "uint256",
							"name": "x",
							"type": "uint256"
						}
					],
					"name": "intToRoman",
					"outputs": [
						{
							"internalType": "string",
							"name": "",
							"type": "string"
						}
					],
					"stateMutability": "nonpayable",
					"type": "function"
				},
				{
					"inputs": [],
					"name": "s",
					"outputs": [
						{
							"internalType": "string",
							"name": "",
							"type": "string"
						}
					],
					"stateMutability": "view",
					"type": "function"
				}
			],
			"devdoc": {
				"kind": "dev",
				"methods": {},
				"version": 1
			},
			"evm": {
				"assembly": "    /* \"job-4-int-to-roman/IntToRoman.sol\":57:2029  contract IntToRoman{... */\n  mstore(0x40, 0x80)\n  callvalue\n  dup1\n  iszero\n  tag_1\n  jumpi\n  revert(0x00, 0x00)\ntag_1:\n  pop\n  dataSize(sub_0)\n  dup1\n  dataOffset(sub_0)\n  0x00\n  codecopy\n  0x00\n  return\nstop\n\nsub_0: assembly {\n        /* \"job-4-int-to-roman/IntToRoman.sol\":57:2029  contract IntToRoman{... */\n      mstore(0x40, 0x80)\n      callvalue\n      dup1\n      iszero\n      tag_1\n      jumpi\n      revert(0x00, 0x00)\n    tag_1:\n      pop\n      jumpi(tag_2, lt(calldatasize, 0x04))\n      shr(0xe0, calldataload(0x00))\n      dup1\n      0x0cbc513a\n      eq\n      tag_3\n      jumpi\n      dup1\n      0x86b714e2\n      eq\n      tag_4\n      jumpi\n      dup1\n      0x9f91cd15\n      eq\n      tag_5\n      jumpi\n    tag_2:\n      revert(0x00, 0x00)\n        /* \"job-4-int-to-roman/IntToRoman.sol\":422:1827  function intToRoman(uint x) public returns(string memory){... */\n    tag_3:\n      tag_6\n      0x04\n      dup1\n      calldatasize\n      sub\n      dup2\n      add\n      swap1\n      tag_7\n      swap2\n      swap1\n      tag_8\n      jump\t// in\n    tag_7:\n      tag_9\n      jump\t// in\n    tag_6:\n      mload(0x40)\n      tag_10\n      swap2\n      swap1\n      tag_11\n      jump\t// in\n    tag_10:\n      mload(0x40)\n      dup1\n      swap2\n      sub\n      swap1\n      return\n        /* \"job-4-int-to-roman/IntToRoman.sol\":400:415  string public s */\n    tag_4:\n      tag_12\n      tag_13\n      jump\t// in\n    tag_12:\n      mload(0x40)\n      tag_14\n      swap2\n      swap1\n      tag_11\n      jump\t// in\n    tag_14:\n      mload(0x40)\n      dup1\n      swap2\n      sub\n      swap1\n      return\n        /* \"job-4-int-to-roman/IntToRoman.sol\":1833:2026  function concatStrings(string memory s1, string memory s2,string memory s3,string memory s4) public pure returns (string memory) {... */\n    tag_5:\n      tag_15\n      0x04\n      dup1\n      calldatasize\n      sub\n      dup2\n      add\n      swap1\n      tag_16\n      swap2\n      swap1\n      tag_17\n      jump\t// in\n    tag_16:\n      tag_18\n      jump\t// in\n    tag_15:\n      mload(0x40)\n      tag_19\n      swap2\n      swap1\n      tag_11\n      jump\t// in\n    tag_19:\n      mload(0x40)\n      dup1\n      swap2\n      sub\n      swap1\n      return\n        /* \"job-4-int-to-roman/IntToRoman.sol\":422:1827  function intToRoman(uint x) public returns(string memory){... */\n    tag_9:\n        /* \"job-4-int-to-roman/IntToRoman.sol\":465:478  string memory */\n      0x60\n        /* \"job-4-int-to-roman/IntToRoman.sol\":489:495  s = \"\" */\n      mload(0x40)\n      dup1\n      0x20\n      add\n      0x40\n      mstore\n      dup1\n      0x00\n      dup2\n      mstore\n      pop\n        /* \"job-4-int-to-roman/IntToRoman.sol\":489:490  s */\n      0x00\n        /* \"job-4-int-to-roman/IntToRoman.sol\":489:495  s = \"\" */\n      swap1\n      dup2\n      tag_21\n      swap2\n      swap1\n      tag_22\n      jump\t// in\n    tag_21:\n      pop\n        /* \"job-4-int-to-roman/IntToRoman.sol\":505:517  uint current */\n      0x00\n        /* \"job-4-int-to-roman/IntToRoman.sol\":520:521  0 */\n      0x00\n        /* \"job-4-int-to-roman/IntToRoman.sol\":505:521  uint current = 0 */\n      swap1\n      pop\n        /* \"job-4-int-to-roman/IntToRoman.sol\":531:549  string memory tmpS */\n      0x60\n        /* \"job-4-int-to-roman/IntToRoman.sol\":563:569  uint i */\n      0x00\n        /* \"job-4-int-to-roman/IntToRoman.sol\":572:576  1000 */\n      0x03e8\n        /* \"job-4-int-to-roman/IntToRoman.sol\":563:576  uint i = 1000 */\n      swap1\n      pop\n        /* \"job-4-int-to-roman/IntToRoman.sol\":559:1803  for(uint i = 1000; i>0; i = i / 10){... */\n    tag_23:\n        /* \"job-4-int-to-roman/IntToRoman.sol\":580:581  0 */\n      0x00\n        /* \"job-4-int-to-roman/IntToRoman.sol\":578:579  i */\n      dup2\n        /* \"job-4-int-to-roman/IntToRoman.sol\":578:581  i>0 */\n      gt\n        /* \"job-4-int-to-roman/IntToRoman.sol\":559:1803  for(uint i = 1000; i>0; i = i / 10){... */\n      iszero\n      tag_24\n      jumpi\n        /* \"job-4-int-to-roman/IntToRoman.sol\":622:623  i */\n      dup1\n        /* \"job-4-int-to-roman/IntToRoman.sol\":618:619  x */\n      dup6\n        /* \"job-4-int-to-roman/IntToRoman.sol\":618:623  x / i */\n      tag_26\n      swap2\n      swap1\n      tag_27\n      jump\t// in\n    tag_26:\n        /* \"job-4-int-to-roman/IntToRoman.sol\":608:623  current = x / i */\n      swap3\n      pop\n        /* \"job-4-int-to-roman/IntToRoman.sol\":650:651  1 */\n      0x01\n        /* \"job-4-int-to-roman/IntToRoman.sol\":640:647  current */\n      dup4\n        /* \"job-4-int-to-roman/IntToRoman.sol\":640:651  current < 1 */\n      lt\n        /* \"job-4-int-to-roman/IntToRoman.sol\":653:661  continue */\n      tag_25\n        /* \"job-4-int-to-roman/IntToRoman.sol\":637:661  if(current < 1) continue */\n      jumpi\n        /* \"job-4-int-to-roman/IntToRoman.sol\":689:690  9 */\n      0x09\n        /* \"job-4-int-to-roman/IntToRoman.sol\":678:685  current */\n      dup4\n        /* \"job-4-int-to-roman/IntToRoman.sol\":678:690  current == 9 */\n      sub\n        /* \"job-4-int-to-roman/IntToRoman.sol\":675:1717  if(current == 9){... */\n      tag_29\n      jumpi\n        /* \"job-4-int-to-roman/IntToRoman.sol\":716:764  concatStrings(_string(i), _string(i*10), \"\", \"\") */\n      tag_30\n        /* \"job-4-int-to-roman/IntToRoman.sol\":730:740  _string(i) */\n      tag_31\n        /* \"job-4-int-to-roman/IntToRoman.sol\":738:739  i */\n      dup3\n        /* \"job-4-int-to-roman/IntToRoman.sol\":730:737  _string */\n      tag_32\n        /* \"job-4-int-to-roman/IntToRoman.sol\":730:740  _string(i) */\n      jump\t// in\n    tag_31:\n        /* \"job-4-int-to-roman/IntToRoman.sol\":742:755  _string(i*10) */\n      tag_33\n        /* \"job-4-int-to-roman/IntToRoman.sol\":752:754  10 */\n      0x0a\n        /* \"job-4-int-to-roman/IntToRoman.sol\":750:751  i */\n      dup5\n        /* \"job-4-int-to-roman/IntToRoman.sol\":750:754  i*10 */\n      tag_34\n      swap2\n      swap1\n      tag_35\n      jump\t// in\n    tag_34:\n        /* \"job-4-int-to-roman/IntToRoman.sol\":742:749  _string */\n      tag_32\n        /* \"job-4-int-to-roman/IntToRoman.sol\":742:755  _string(i*10) */\n      jump\t// in\n    tag_33:\n        /* \"job-4-int-to-roman/IntToRoman.sol\":716:764  concatStrings(_string(i), _string(i*10), \"\", \"\") */\n      mload(0x40)\n      dup1\n      0x20\n      add\n      0x40\n      mstore\n      dup1\n      0x00\n      dup2\n      mstore\n      pop\n      mload(0x40)\n      dup1\n      0x20\n      add\n      0x40\n      mstore\n      dup1\n      0x00\n      dup2\n      mstore\n      pop\n        /* \"job-4-int-to-roman/IntToRoman.sol\":716:729  concatStrings */\n      tag_18\n        /* \"job-4-int-to-roman/IntToRoman.sol\":716:764  concatStrings(_string(i), _string(i*10), \"\", \"\") */\n      jump\t// in\n    tag_30:\n        /* \"job-4-int-to-roman/IntToRoman.sol\":709:764  tmpS = concatStrings(_string(i), _string(i*10), \"\", \"\") */\n      swap2\n      pop\n        /* \"job-4-int-to-roman/IntToRoman.sol\":675:1717  if(current == 9){... */\n      jump(tag_36)\n    tag_29:\n        /* \"job-4-int-to-roman/IntToRoman.sol\":797:798  8 */\n      0x08\n        /* \"job-4-int-to-roman/IntToRoman.sol\":787:794  current */\n      dup4\n        /* \"job-4-int-to-roman/IntToRoman.sol\":787:798  current ==8 */\n      sub\n        /* \"job-4-int-to-roman/IntToRoman.sol\":784:1717  if(current ==8){... */\n      tag_37\n      jumpi\n        /* \"job-4-int-to-roman/IntToRoman.sol\":824:884  concatStrings(_string(i*5),_string(i),_string(i),_string(i)) */\n      tag_38\n        /* \"job-4-int-to-roman/IntToRoman.sol\":838:850  _string(i*5) */\n      tag_39\n        /* \"job-4-int-to-roman/IntToRoman.sol\":848:849  5 */\n      0x05\n        /* \"job-4-int-to-roman/IntToRoman.sol\":846:847  i */\n      dup4\n        /* \"job-4-int-to-roman/IntToRoman.sol\":846:849  i*5 */\n      tag_40\n      swap2\n      swap1\n      tag_35\n      jump\t// in\n    tag_40:\n        /* \"job-4-int-to-roman/IntToRoman.sol\":838:845  _string */\n      tag_32\n        /* \"job-4-int-to-roman/IntToRoman.sol\":838:850  _string(i*5) */\n      jump\t// in\n    tag_39:\n        /* \"job-4-int-to-roman/IntToRoman.sol\":851:861  _string(i) */\n      tag_41\n        /* \"job-4-int-to-roman/IntToRoman.sol\":859:860  i */\n      dup4\n        /* \"job-4-int-to-roman/IntToRoman.sol\":851:858  _string */\n      tag_32\n        /* \"job-4-int-to-roman/IntToRoman.sol\":851:861  _string(i) */\n      jump\t// in\n    tag_41:\n        /* \"job-4-int-to-roman/IntToRoman.sol\":862:872  _string(i) */\n      tag_42\n        /* \"job-4-int-to-roman/IntToRoman.sol\":870:871  i */\n      dup5\n        /* \"job-4-int-to-roman/IntToRoman.sol\":862:869  _string */\n      tag_32\n        /* \"job-4-int-to-roman/IntToRoman.sol\":862:872  _string(i) */\n      jump\t// in\n    tag_42:\n        /* \"job-4-int-to-roman/IntToRoman.sol\":873:883  _string(i) */\n      tag_43\n        /* \"job-4-int-to-roman/IntToRoman.sol\":881:882  i */\n      dup6\n        /* \"job-4-int-to-roman/IntToRoman.sol\":873:880  _string */\n      tag_32\n        /* \"job-4-int-to-roman/IntToRoman.sol\":873:883  _string(i) */\n      jump\t// in\n    tag_43:\n        /* \"job-4-int-to-roman/IntToRoman.sol\":824:837  concatStrings */\n      tag_18\n        /* \"job-4-int-to-roman/IntToRoman.sol\":824:884  concatStrings(_string(i*5),_string(i),_string(i),_string(i)) */\n      jump\t// in\n    tag_38:\n        /* \"job-4-int-to-roman/IntToRoman.sol\":817:884  tmpS = concatStrings(_string(i*5),_string(i),_string(i),_string(i)) */\n      swap2\n      pop\n        /* \"job-4-int-to-roman/IntToRoman.sol\":784:1717  if(current ==8){... */\n      jump(tag_44)\n    tag_37:\n        /* \"job-4-int-to-roman/IntToRoman.sol\":930:931  7 */\n      0x07\n        /* \"job-4-int-to-roman/IntToRoman.sol\":920:927  current */\n      dup4\n        /* \"job-4-int-to-roman/IntToRoman.sol\":920:931  current ==7 */\n      sub\n        /* \"job-4-int-to-roman/IntToRoman.sol\":917:1717  if(current ==7){... */\n      tag_45\n      jumpi\n        /* \"job-4-int-to-roman/IntToRoman.sol\":957:1010  concatStrings(_string(i*5),_string(i),_string(i), \"\") */\n      tag_46\n        /* \"job-4-int-to-roman/IntToRoman.sol\":971:983  _string(i*5) */\n      tag_47\n        /* \"job-4-int-to-roman/IntToRoman.sol\":981:982  5 */\n      0x05\n        /* \"job-4-int-to-roman/IntToRoman.sol\":979:980  i */\n      dup4\n        /* \"job-4-int-to-roman/IntToRoman.sol\":979:982  i*5 */\n      tag_48\n      swap2\n      swap1\n      tag_35\n      jump\t// in\n    tag_48:\n        /* \"job-4-int-to-roman/IntToRoman.sol\":971:978  _string */\n      tag_32\n        /* \"job-4-int-to-roman/IntToRoman.sol\":971:983  _string(i*5) */\n      jump\t// in\n    tag_47:\n        /* \"job-4-int-to-roman/IntToRoman.sol\":984:994  _string(i) */\n      tag_49\n        /* \"job-4-int-to-roman/IntToRoman.sol\":992:993  i */\n      dup4\n        /* \"job-4-int-to-roman/IntToRoman.sol\":984:991  _string */\n      tag_32\n        /* \"job-4-int-to-roman/IntToRoman.sol\":984:994  _string(i) */\n      jump\t// in\n    tag_49:\n        /* \"job-4-int-to-roman/IntToRoman.sol\":995:1005  _string(i) */\n      tag_50\n        /* \"job-4-int-to-roman/IntToRoman.sol\":1003:1004  i */\n      dup5\n        /* \"job-4-int-to-roman/IntToRoman.sol\":995:1002  _string */\n      tag_32\n        /* \"job-4-int-to-roman/IntToRoman.sol\":995:1005  _string(i) */\n      jump\t// in\n    tag_50:\n        /* \"job-4-int-to-roman/IntToRoman.sol\":957:1010  concatStrings(_string(i*5),_string(i),_string(i), \"\") */\n      mload(0x40)\n      dup1\n      0x20\n      add\n      0x40\n      mstore\n      dup1\n      0x00\n      dup2\n      mstore\n      pop\n        /* \"job-4-int-to-roman/IntToRoman.sol\":957:970  concatStrings */\n      tag_18\n        /* \"job-4-int-to-roman/IntToRoman.sol\":957:1010  concatStrings(_string(i*5),_string(i),_string(i), \"\") */\n      jump\t// in\n    tag_46:\n        /* \"job-4-int-to-roman/IntToRoman.sol\":950:1010  tmpS = concatStrings(_string(i*5),_string(i),_string(i), \"\") */\n      swap2\n      pop\n        /* \"job-4-int-to-roman/IntToRoman.sol\":917:1717  if(current ==7){... */\n      jump(tag_51)\n    tag_45:\n        /* \"job-4-int-to-roman/IntToRoman.sol\":1056:1057  6 */\n      0x06\n        /* \"job-4-int-to-roman/IntToRoman.sol\":1046:1053  current */\n      dup4\n        /* \"job-4-int-to-roman/IntToRoman.sol\":1046:1057  current ==6 */\n      sub\n        /* \"job-4-int-to-roman/IntToRoman.sol\":1043:1717  if(current ==6){... */\n      tag_52\n      jumpi\n        /* \"job-4-int-to-roman/IntToRoman.sol\":1083:1129  concatStrings(_string(i*5),_string(i), \"\", \"\") */\n      tag_53\n        /* \"job-4-int-to-roman/IntToRoman.sol\":1097:1109  _string(i*5) */\n      tag_54\n        /* \"job-4-int-to-roman/IntToRoman.sol\":1107:1108  5 */\n      0x05\n        /* \"job-4-int-to-roman/IntToRoman.sol\":1105:1106  i */\n      dup4\n        /* \"job-4-int-to-roman/IntToRoman.sol\":1105:1108  i*5 */\n      tag_55\n      swap2\n      swap1\n      tag_35\n      jump\t// in\n    tag_55:\n        /* \"job-4-int-to-roman/IntToRoman.sol\":1097:1104  _string */\n      tag_32\n        /* \"job-4-int-to-roman/IntToRoman.sol\":1097:1109  _string(i*5) */\n      jump\t// in\n    tag_54:\n        /* \"job-4-int-to-roman/IntToRoman.sol\":1110:1120  _string(i) */\n      tag_56\n        /* \"job-4-int-to-roman/IntToRoman.sol\":1118:1119  i */\n      dup4\n        /* \"job-4-int-to-roman/IntToRoman.sol\":1110:1117  _string */\n      tag_32\n        /* \"job-4-int-to-roman/IntToRoman.sol\":1110:1120  _string(i) */\n      jump\t// in\n    tag_56:\n        /* \"job-4-int-to-roman/IntToRoman.sol\":1083:1129  concatStrings(_string(i*5),_string(i), \"\", \"\") */\n      mload(0x40)\n      dup1\n      0x20\n      add\n      0x40\n      mstore\n      dup1\n      0x00\n      dup2\n      mstore\n      pop\n      mload(0x40)\n      dup1\n      0x20\n      add\n      0x40\n      mstore\n      dup1\n      0x00\n      dup2\n      mstore\n      pop\n        /* \"job-4-int-to-roman/IntToRoman.sol\":1083:1096  concatStrings */\n      tag_18\n        /* \"job-4-int-to-roman/IntToRoman.sol\":1083:1129  concatStrings(_string(i*5),_string(i), \"\", \"\") */\n      jump\t// in\n    tag_53:\n        /* \"job-4-int-to-roman/IntToRoman.sol\":1076:1129  tmpS = concatStrings(_string(i*5),_string(i), \"\", \"\") */\n      swap2\n      pop\n        /* \"job-4-int-to-roman/IntToRoman.sol\":1043:1717  if(current ==6){... */\n      jump(tag_57)\n    tag_52:\n        /* \"job-4-int-to-roman/IntToRoman.sol\":1175:1176  5 */\n      0x05\n        /* \"job-4-int-to-roman/IntToRoman.sol\":1165:1172  current */\n      dup4\n        /* \"job-4-int-to-roman/IntToRoman.sol\":1165:1176  current ==5 */\n      sub\n        /* \"job-4-int-to-roman/IntToRoman.sol\":1162:1717  if(current ==5){... */\n      tag_58\n      jumpi\n        /* \"job-4-int-to-roman/IntToRoman.sol\":1202:1241  concatStrings(_string(i*5), \"\", \"\", \"\") */\n      tag_59\n        /* \"job-4-int-to-roman/IntToRoman.sol\":1216:1228  _string(i*5) */\n      tag_60\n        /* \"job-4-int-to-roman/IntToRoman.sol\":1226:1227  5 */\n      0x05\n        /* \"job-4-int-to-roman/IntToRoman.sol\":1224:1225  i */\n      dup4\n        /* \"job-4-int-to-roman/IntToRoman.sol\":1224:1227  i*5 */\n      tag_61\n      swap2\n      swap1\n      tag_35\n      jump\t// in\n    tag_61:\n        /* \"job-4-int-to-roman/IntToRoman.sol\":1216:1223  _string */\n      tag_32\n        /* \"job-4-int-to-roman/IntToRoman.sol\":1216:1228  _string(i*5) */\n      jump\t// in\n    tag_60:\n        /* \"job-4-int-to-roman/IntToRoman.sol\":1202:1241  concatStrings(_string(i*5), \"\", \"\", \"\") */\n      mload(0x40)\n      dup1\n      0x20\n      add\n      0x40\n      mstore\n      dup1\n      0x00\n      dup2\n      mstore\n      pop\n      mload(0x40)\n      dup1\n      0x20\n      add\n      0x40\n      mstore\n      dup1\n      0x00\n      dup2\n      mstore\n      pop\n      mload(0x40)\n      dup1\n      0x20\n      add\n      0x40\n      mstore\n      dup1\n      0x00\n      dup2\n      mstore\n      pop\n        /* \"job-4-int-to-roman/IntToRoman.sol\":1202:1215  concatStrings */\n      tag_18\n        /* \"job-4-int-to-roman/IntToRoman.sol\":1202:1241  concatStrings(_string(i*5), \"\", \"\", \"\") */\n      jump\t// in\n    tag_59:\n        /* \"job-4-int-to-roman/IntToRoman.sol\":1195:1241  tmpS = concatStrings(_string(i*5), \"\", \"\", \"\") */\n      swap2\n      pop\n        /* \"job-4-int-to-roman/IntToRoman.sol\":1162:1717  if(current ==5){... */\n      jump(tag_62)\n    tag_58:\n        /* \"job-4-int-to-roman/IntToRoman.sol\":1287:1288  4 */\n      0x04\n        /* \"job-4-int-to-roman/IntToRoman.sol\":1277:1284  current */\n      dup4\n        /* \"job-4-int-to-roman/IntToRoman.sol\":1277:1288  current ==4 */\n      sub\n        /* \"job-4-int-to-roman/IntToRoman.sol\":1274:1717  if(current ==4){... */\n      tag_63\n      jumpi\n        /* \"job-4-int-to-roman/IntToRoman.sol\":1314:1361  concatStrings(_string(i), _string(i*5), \"\", \"\") */\n      tag_64\n        /* \"job-4-int-to-roman/IntToRoman.sol\":1328:1338  _string(i) */\n      tag_65\n        /* \"job-4-int-to-roman/IntToRoman.sol\":1336:1337  i */\n      dup3\n        /* \"job-4-int-to-roman/IntToRoman.sol\":1328:1335  _string */\n      tag_32\n        /* \"job-4-int-to-roman/IntToRoman.sol\":1328:1338  _string(i) */\n      jump\t// in\n    tag_65:\n        /* \"job-4-int-to-roman/IntToRoman.sol\":1340:1352  _string(i*5) */\n      tag_66\n        /* \"job-4-int-to-roman/IntToRoman.sol\":1350:1351  5 */\n      0x05\n        /* \"job-4-int-to-roman/IntToRoman.sol\":1348:1349  i */\n      dup5\n        /* \"job-4-int-to-roman/IntToRoman.sol\":1348:1351  i*5 */\n      tag_67\n      swap2\n      swap1\n      tag_35\n      jump\t// in\n    tag_67:\n        /* \"job-4-int-to-roman/IntToRoman.sol\":1340:1347  _string */\n      tag_32\n        /* \"job-4-int-to-roman/IntToRoman.sol\":1340:1352  _string(i*5) */\n      jump\t// in\n    tag_66:\n        /* \"job-4-int-to-roman/IntToRoman.sol\":1314:1361  concatStrings(_string(i), _string(i*5), \"\", \"\") */\n      mload(0x40)\n      dup1\n      0x20\n      add\n      0x40\n      mstore\n      dup1\n      0x00\n      dup2\n      mstore\n      pop\n      mload(0x40)\n      dup1\n      0x20\n      add\n      0x40\n      mstore\n      dup1\n      0x00\n      dup2\n      mstore\n      pop\n        /* \"job-4-int-to-roman/IntToRoman.sol\":1314:1327  concatStrings */\n      tag_18\n        /* \"job-4-int-to-roman/IntToRoman.sol\":1314:1361  concatStrings(_string(i), _string(i*5), \"\", \"\") */\n      jump\t// in\n    tag_64:\n        /* \"job-4-int-to-roman/IntToRoman.sol\":1307:1361  tmpS = concatStrings(_string(i), _string(i*5), \"\", \"\") */\n      swap2\n      pop\n        /* \"job-4-int-to-roman/IntToRoman.sol\":1274:1717  if(current ==4){... */\n      jump(tag_68)\n    tag_63:\n        /* \"job-4-int-to-roman/IntToRoman.sol\":1394:1395  3 */\n      0x03\n        /* \"job-4-int-to-roman/IntToRoman.sol\":1384:1391  current */\n      dup4\n        /* \"job-4-int-to-roman/IntToRoman.sol\":1384:1395  current ==3 */\n      sub\n        /* \"job-4-int-to-roman/IntToRoman.sol\":1381:1717  if(current ==3){... */\n      tag_69\n      jumpi\n        /* \"job-4-int-to-roman/IntToRoman.sol\":1421:1474  concatStrings(_string(i), _string(i), _string(i), \"\") */\n      tag_70\n        /* \"job-4-int-to-roman/IntToRoman.sol\":1435:1445  _string(i) */\n      tag_71\n        /* \"job-4-int-to-roman/IntToRoman.sol\":1443:1444  i */\n      dup3\n        /* \"job-4-int-to-roman/IntToRoman.sol\":1435:1442  _string */\n      tag_32\n        /* \"job-4-int-to-roman/IntToRoman.sol\":1435:1445  _string(i) */\n      jump\t// in\n    tag_71:\n        /* \"job-4-int-to-roman/IntToRoman.sol\":1447:1457  _string(i) */\n      tag_72\n        /* \"job-4-int-to-roman/IntToRoman.sol\":1455:1456  i */\n      dup4\n        /* \"job-4-int-to-roman/IntToRoman.sol\":1447:1454  _string */\n      tag_32\n        /* \"job-4-int-to-roman/IntToRoman.sol\":1447:1457  _string(i) */\n      jump\t// in\n    tag_72:\n        /* \"job-4-int-to-roman/IntToRoman.sol\":1459:1469  _string(i) */\n      tag_73\n        /* \"job-4-int-to-roman/IntToRoman.sol\":1467:1468  i */\n      dup5\n        /* \"job-4-int-to-roman/IntToRoman.sol\":1459:1466  _string */\n      tag_32\n        /* \"job-4-int-to-roman/IntToRoman.sol\":1459:1469  _string(i) */\n      jump\t// in\n    tag_73:\n        /* \"job-4-int-to-roman/IntToRoman.sol\":1421:1474  concatStrings(_string(i), _string(i), _string(i), \"\") */\n      mload(0x40)\n      dup1\n      0x20\n      add\n      0x40\n      mstore\n      dup1\n      0x00\n      dup2\n      mstore\n      pop\n        /* \"job-4-int-to-roman/IntToRoman.sol\":1421:1434  concatStrings */\n      tag_18\n        /* \"job-4-int-to-roman/IntToRoman.sol\":1421:1474  concatStrings(_string(i), _string(i), _string(i), \"\") */\n      jump\t// in\n    tag_70:\n        /* \"job-4-int-to-roman/IntToRoman.sol\":1414:1474  tmpS = concatStrings(_string(i), _string(i), _string(i), \"\") */\n      swap2\n      pop\n        /* \"job-4-int-to-roman/IntToRoman.sol\":1381:1717  if(current ==3){... */\n      jump(tag_74)\n    tag_69:\n        /* \"job-4-int-to-roman/IntToRoman.sol\":1520:1521  2 */\n      0x02\n        /* \"job-4-int-to-roman/IntToRoman.sol\":1510:1517  current */\n      dup4\n        /* \"job-4-int-to-roman/IntToRoman.sol\":1510:1521  current ==2 */\n      sub\n        /* \"job-4-int-to-roman/IntToRoman.sol\":1507:1717  if(current ==2){... */\n      tag_75\n      jumpi\n        /* \"job-4-int-to-roman/IntToRoman.sol\":1547:1592  concatStrings(_string(i), _string(i), \"\", \"\") */\n      tag_76\n        /* \"job-4-int-to-roman/IntToRoman.sol\":1561:1571  _string(i) */\n      tag_77\n        /* \"job-4-int-to-roman/IntToRoman.sol\":1569:1570  i */\n      dup3\n        /* \"job-4-int-to-roman/IntToRoman.sol\":1561:1568  _string */\n      tag_32\n        /* \"job-4-int-to-roman/IntToRoman.sol\":1561:1571  _string(i) */\n      jump\t// in\n    tag_77:\n        /* \"job-4-int-to-roman/IntToRoman.sol\":1573:1583  _string(i) */\n      tag_78\n        /* \"job-4-int-to-roman/IntToRoman.sol\":1581:1582  i */\n      dup4\n        /* \"job-4-int-to-roman/IntToRoman.sol\":1573:1580  _string */\n      tag_32\n        /* \"job-4-int-to-roman/IntToRoman.sol\":1573:1583  _string(i) */\n      jump\t// in\n    tag_78:\n        /* \"job-4-int-to-roman/IntToRoman.sol\":1547:1592  concatStrings(_string(i), _string(i), \"\", \"\") */\n      mload(0x40)\n      dup1\n      0x20\n      add\n      0x40\n      mstore\n      dup1\n      0x00\n      dup2\n      mstore\n      pop\n      mload(0x40)\n      dup1\n      0x20\n      add\n      0x40\n      mstore\n      dup1\n      0x00\n      dup2\n      mstore\n      pop\n        /* \"job-4-int-to-roman/IntToRoman.sol\":1547:1560  concatStrings */\n      tag_18\n        /* \"job-4-int-to-roman/IntToRoman.sol\":1547:1592  concatStrings(_string(i), _string(i), \"\", \"\") */\n      jump\t// in\n    tag_76:\n        /* \"job-4-int-to-roman/IntToRoman.sol\":1540:1592  tmpS = concatStrings(_string(i), _string(i), \"\", \"\") */\n      swap2\n      pop\n        /* \"job-4-int-to-roman/IntToRoman.sol\":1507:1717  if(current ==2){... */\n      jump(tag_79)\n    tag_75:\n        /* \"job-4-int-to-roman/IntToRoman.sol\":1638:1639  1 */\n      0x01\n        /* \"job-4-int-to-roman/IntToRoman.sol\":1628:1635  current */\n      dup4\n        /* \"job-4-int-to-roman/IntToRoman.sol\":1628:1639  current ==1 */\n      sub\n        /* \"job-4-int-to-roman/IntToRoman.sol\":1625:1717  if(current ==1){... */\n      tag_80\n      jumpi\n        /* \"job-4-int-to-roman/IntToRoman.sol\":1665:1702  concatStrings(_string(i), \"\", \"\", \"\") */\n      tag_81\n        /* \"job-4-int-to-roman/IntToRoman.sol\":1679:1689  _string(i) */\n      tag_82\n        /* \"job-4-int-to-roman/IntToRoman.sol\":1687:1688  i */\n      dup3\n        /* \"job-4-int-to-roman/IntToRoman.sol\":1679:1686  _string */\n      tag_32\n        /* \"job-4-int-to-roman/IntToRoman.sol\":1679:1689  _string(i) */\n      jump\t// in\n    tag_82:\n        /* \"job-4-int-to-roman/IntToRoman.sol\":1665:1702  concatStrings(_string(i), \"\", \"\", \"\") */\n      mload(0x40)\n      dup1\n      0x20\n      add\n      0x40\n      mstore\n      dup1\n      0x00\n      dup2\n      mstore\n      pop\n      mload(0x40)\n      dup1\n      0x20\n      add\n      0x40\n      mstore\n      dup1\n      0x00\n      dup2\n      mstore\n      pop\n      mload(0x40)\n      dup1\n      0x20\n      add\n      0x40\n      mstore\n      dup1\n      0x00\n      dup2\n      mstore\n      pop\n        /* \"job-4-int-to-roman/IntToRoman.sol\":1665:1678  concatStrings */\n      tag_18\n        /* \"job-4-int-to-roman/IntToRoman.sol\":1665:1702  concatStrings(_string(i), \"\", \"\", \"\") */\n      jump\t// in\n    tag_81:\n        /* \"job-4-int-to-roman/IntToRoman.sol\":1658:1702  tmpS = concatStrings(_string(i), \"\", \"\", \"\") */\n      swap2\n      pop\n        /* \"job-4-int-to-roman/IntToRoman.sol\":1625:1717  if(current ==1){... */\n    tag_80:\n        /* \"job-4-int-to-roman/IntToRoman.sol\":1507:1717  if(current ==2){... */\n    tag_79:\n        /* \"job-4-int-to-roman/IntToRoman.sol\":1381:1717  if(current ==3){... */\n    tag_74:\n        /* \"job-4-int-to-roman/IntToRoman.sol\":1274:1717  if(current ==4){... */\n    tag_68:\n        /* \"job-4-int-to-roman/IntToRoman.sol\":1162:1717  if(current ==5){... */\n    tag_62:\n        /* \"job-4-int-to-roman/IntToRoman.sol\":1043:1717  if(current ==6){... */\n    tag_57:\n        /* \"job-4-int-to-roman/IntToRoman.sol\":917:1717  if(current ==7){... */\n    tag_51:\n        /* \"job-4-int-to-roman/IntToRoman.sol\":784:1717  if(current ==8){... */\n    tag_44:\n        /* \"job-4-int-to-roman/IntToRoman.sol\":675:1717  if(current == 9){... */\n    tag_36:\n        /* \"job-4-int-to-roman/IntToRoman.sol\":1737:1744  current */\n      dup3\n        /* \"job-4-int-to-roman/IntToRoman.sol\":1735:1736  i */\n      dup2\n        /* \"job-4-int-to-roman/IntToRoman.sol\":1735:1744  i*current */\n      tag_83\n      swap2\n      swap1\n      tag_35\n      jump\t// in\n    tag_83:\n        /* \"job-4-int-to-roman/IntToRoman.sol\":1730:1744  x -= i*current */\n      dup6\n      tag_84\n      swap2\n      swap1\n      tag_85\n      jump\t// in\n    tag_84:\n      swap5\n      pop\n        /* \"job-4-int-to-roman/IntToRoman.sol\":1762:1792  concatStrings(s, tmpS, \"\", \"\") */\n      tag_86\n        /* \"job-4-int-to-roman/IntToRoman.sol\":1776:1777  s */\n      0x00\n        /* \"job-4-int-to-roman/IntToRoman.sol\":1762:1792  concatStrings(s, tmpS, \"\", \"\") */\n      dup1\n      sload\n      tag_87\n      swap1\n      tag_88\n      jump\t// in\n    tag_87:\n      dup1\n      0x1f\n      add\n      0x20\n      dup1\n      swap2\n      div\n      mul\n      0x20\n      add\n      mload(0x40)\n      swap1\n      dup2\n      add\n      0x40\n      mstore\n      dup1\n      swap3\n      swap2\n      swap1\n      dup2\n      dup2\n      mstore\n      0x20\n      add\n      dup3\n      dup1\n      sload\n      tag_89\n      swap1\n      tag_88\n      jump\t// in\n    tag_89:\n      dup1\n      iszero\n      tag_90\n      jumpi\n      dup1\n      0x1f\n      lt\n      tag_91\n      jumpi\n      0x0100\n      dup1\n      dup4\n      sload\n      div\n      mul\n      dup4\n      mstore\n      swap2\n      0x20\n      add\n      swap2\n      jump(tag_90)\n    tag_91:\n      dup3\n      add\n      swap2\n      swap1\n      0x00\n      mstore\n      keccak256(0x00, 0x20)\n      swap1\n    tag_92:\n      dup2\n      sload\n      dup2\n      mstore\n      swap1\n      0x01\n      add\n      swap1\n      0x20\n      add\n      dup1\n      dup4\n      gt\n      tag_92\n      jumpi\n      dup3\n      swap1\n      sub\n      0x1f\n      and\n      dup3\n      add\n      swap2\n    tag_90:\n      pop\n      pop\n      pop\n      pop\n      pop\n        /* \"job-4-int-to-roman/IntToRoman.sol\":1779:1783  tmpS */\n      dup4\n        /* \"job-4-int-to-roman/IntToRoman.sol\":1762:1792  concatStrings(s, tmpS, \"\", \"\") */\n      mload(0x40)\n      dup1\n      0x20\n      add\n      0x40\n      mstore\n      dup1\n      0x00\n      dup2\n      mstore\n      pop\n      mload(0x40)\n      dup1\n      0x20\n      add\n      0x40\n      mstore\n      dup1\n      0x00\n      dup2\n      mstore\n      pop\n        /* \"job-4-int-to-roman/IntToRoman.sol\":1762:1775  concatStrings */\n      tag_18\n        /* \"job-4-int-to-roman/IntToRoman.sol\":1762:1792  concatStrings(s, tmpS, \"\", \"\") */\n      jump\t// in\n    tag_86:\n        /* \"job-4-int-to-roman/IntToRoman.sol\":1758:1759  s */\n      0x00\n        /* \"job-4-int-to-roman/IntToRoman.sol\":1758:1792  s = concatStrings(s, tmpS, \"\", \"\") */\n      swap1\n      dup2\n      tag_93\n      swap2\n      swap1\n      tag_22\n      jump\t// in\n    tag_93:\n      pop\n        /* \"job-4-int-to-roman/IntToRoman.sol\":559:1803  for(uint i = 1000; i>0; i = i / 10){... */\n    tag_25:\n        /* \"job-4-int-to-roman/IntToRoman.sol\":591:593  10 */\n      0x0a\n        /* \"job-4-int-to-roman/IntToRoman.sol\":587:588  i */\n      dup2\n        /* \"job-4-int-to-roman/IntToRoman.sol\":587:593  i / 10 */\n      tag_94\n      swap2\n      swap1\n      tag_27\n      jump\t// in\n    tag_94:\n        /* \"job-4-int-to-roman/IntToRoman.sol\":583:593  i = i / 10 */\n      swap1\n      pop\n        /* \"job-4-int-to-roman/IntToRoman.sol\":559:1803  for(uint i = 1000; i>0; i = i / 10){... */\n      jump(tag_23)\n    tag_24:\n      pop\n        /* \"job-4-int-to-roman/IntToRoman.sol\":1819:1820  s */\n      0x00\n        /* \"job-4-int-to-roman/IntToRoman.sol\":1812:1820  return s */\n      dup1\n      sload\n      tag_95\n      swap1\n      tag_88\n      jump\t// in\n    tag_95:\n      dup1\n      0x1f\n      add\n      0x20\n      dup1\n      swap2\n      div\n      mul\n      0x20\n      add\n      mload(0x40)\n      swap1\n      dup2\n      add\n      0x40\n      mstore\n      dup1\n      swap3\n      swap2\n      swap1\n      dup2\n      dup2\n      mstore\n      0x20\n      add\n      dup3\n      dup1\n      sload\n      tag_96\n      swap1\n      tag_88\n      jump\t// in\n    tag_96:\n      dup1\n      iszero\n      tag_97\n      jumpi\n      dup1\n      0x1f\n      lt\n      tag_98\n      jumpi\n      0x0100\n      dup1\n      dup4\n      sload\n      div\n      mul\n      dup4\n      mstore\n      swap2\n      0x20\n      add\n      swap2\n      jump(tag_97)\n    tag_98:\n      dup3\n      add\n      swap2\n      swap1\n      0x00\n      mstore\n      keccak256(0x00, 0x20)\n      swap1\n    tag_99:\n      dup2\n      sload\n      dup2\n      mstore\n      swap1\n      0x01\n      add\n      swap1\n      0x20\n      add\n      dup1\n      dup4\n      gt\n      tag_99\n      jumpi\n      dup3\n      swap1\n      sub\n      0x1f\n      and\n      dup3\n      add\n      swap2\n    tag_97:\n      pop\n      pop\n      pop\n      pop\n      pop\n      swap3\n      pop\n      pop\n      pop\n        /* \"job-4-int-to-roman/IntToRoman.sol\":422:1827  function intToRoman(uint x) public returns(string memory){... */\n      swap2\n      swap1\n      pop\n      jump\t// out\n        /* \"job-4-int-to-roman/IntToRoman.sol\":400:415  string public s */\n    tag_13:\n      0x00\n      dup1\n      sload\n      tag_100\n      swap1\n      tag_88\n      jump\t// in\n    tag_100:\n      dup1\n      0x1f\n      add\n      0x20\n      dup1\n      swap2\n      div\n      mul\n      0x20\n      add\n      mload(0x40)\n      swap1\n      dup2\n      add\n      0x40\n      mstore\n      dup1\n      swap3\n      swap2\n      swap1\n      dup2\n      dup2\n      mstore\n      0x20\n      add\n      dup3\n      dup1\n      sload\n      tag_101\n      swap1\n      tag_88\n      jump\t// in\n    tag_101:\n      dup1\n      iszero\n      tag_102\n      jumpi\n      dup1\n      0x1f\n      lt\n      tag_103\n      jumpi\n      0x0100\n      dup1\n      dup4\n      sload\n      div\n      mul\n      dup4\n      mstore\n      swap2\n      0x20\n      add\n      swap2\n      jump(tag_102)\n    tag_103:\n      dup3\n      add\n      swap2\n      swap1\n      0x00\n      mstore\n      keccak256(0x00, 0x20)\n      swap1\n    tag_104:\n      dup2\n      sload\n      dup2\n      mstore\n      swap1\n      0x01\n      add\n      swap1\n      0x20\n      add\n      dup1\n      dup4\n      gt\n      tag_104\n      jumpi\n      dup3\n      swap1\n      sub\n      0x1f\n      and\n      dup3\n      add\n      swap2\n    tag_102:\n      pop\n      pop\n      pop\n      pop\n      pop\n      dup2\n      jump\t// out\n        /* \"job-4-int-to-roman/IntToRoman.sol\":1833:2026  function concatStrings(string memory s1, string memory s2,string memory s3,string memory s4) public pure returns (string memory) {... */\n    tag_18:\n        /* \"job-4-int-to-roman/IntToRoman.sol\":1947:1960  string memory */\n      0x60\n        /* \"job-4-int-to-roman/IntToRoman.sol\":2003:2005  s1 */\n      dup5\n        /* \"job-4-int-to-roman/IntToRoman.sol\":2007:2009  s2 */\n      dup5\n        /* \"job-4-int-to-roman/IntToRoman.sol\":2011:2013  s3 */\n      dup5\n        /* \"job-4-int-to-roman/IntToRoman.sol\":2015:2017  s4 */\n      dup5\n        /* \"job-4-int-to-roman/IntToRoman.sol\":1986:2018  abi.encodePacked(s1, s2, s3, s4) */\n      add(0x20, mload(0x40))\n      tag_106\n      swap5\n      swap4\n      swap3\n      swap2\n      swap1\n      tag_107\n      jump\t// in\n    tag_106:\n      mload(0x40)\n      0x20\n      dup2\n      dup4\n      sub\n      sub\n      dup2\n      mstore\n      swap1\n      0x40\n      mstore\n        /* \"job-4-int-to-roman/IntToRoman.sol\":1972:2019  return string(abi.encodePacked(s1, s2, s3, s4)) */\n      swap1\n      pop\n        /* \"job-4-int-to-roman/IntToRoman.sol\":1833:2026  function concatStrings(string memory s1, string memory s2,string memory s3,string memory s4) public pure returns (string memory) {... */\n      swap5\n      swap4\n      pop\n      pop\n      pop\n      pop\n      jump\t// out\n        /* \"job-4-int-to-roman/IntToRoman.sol\":82:395  function _string(uint x) private pure returns(string memory){... */\n    tag_32:\n        /* \"job-4-int-to-roman/IntToRoman.sol\":128:141  string memory */\n      0x60\n        /* \"job-4-int-to-roman/IntToRoman.sol\":160:161  1 */\n      0x01\n        /* \"job-4-int-to-roman/IntToRoman.sol\":155:156  x */\n      dup3\n        /* \"job-4-int-to-roman/IntToRoman.sol\":155:161  x == 1 */\n      sub\n        /* \"job-4-int-to-roman/IntToRoman.sol\":152:173  if(x == 1) return 'I' */\n      tag_109\n      jumpi\n        /* \"job-4-int-to-roman/IntToRoman.sol\":163:173  return 'I' */\n      mload(0x40)\n      dup1\n      0x40\n      add\n      0x40\n      mstore\n      dup1\n      0x01\n      dup2\n      mstore\n      0x20\n      add\n      0x4900000000000000000000000000000000000000000000000000000000000000\n      dup2\n      mstore\n      pop\n      swap1\n      pop\n      jump(tag_108)\n        /* \"job-4-int-to-roman/IntToRoman.sol\":152:173  if(x == 1) return 'I' */\n    tag_109:\n        /* \"job-4-int-to-roman/IntToRoman.sol\":191:192  5 */\n      0x05\n        /* \"job-4-int-to-roman/IntToRoman.sol\":186:187  x */\n      dup3\n        /* \"job-4-int-to-roman/IntToRoman.sol\":186:192  x == 5 */\n      sub\n        /* \"job-4-int-to-roman/IntToRoman.sol\":183:204  if(x == 5) return 'V' */\n      tag_110\n      jumpi\n        /* \"job-4-int-to-roman/IntToRoman.sol\":194:204  return 'V' */\n      mload(0x40)\n      dup1\n      0x40\n      add\n      0x40\n      mstore\n      dup1\n      0x01\n      dup2\n      mstore\n      0x20\n      add\n      0x5600000000000000000000000000000000000000000000000000000000000000\n      dup2\n      mstore\n      pop\n      swap1\n      pop\n      jump(tag_108)\n        /* \"job-4-int-to-roman/IntToRoman.sol\":183:204  if(x == 5) return 'V' */\n    tag_110:\n        /* \"job-4-int-to-roman/IntToRoman.sol\":222:224  10 */\n      0x0a\n        /* \"job-4-int-to-roman/IntToRoman.sol\":217:218  x */\n      dup3\n        /* \"job-4-int-to-roman/IntToRoman.sol\":217:224  x == 10 */\n      sub\n        /* \"job-4-int-to-roman/IntToRoman.sol\":214:236  if(x == 10) return 'X' */\n      tag_111\n      jumpi\n        /* \"job-4-int-to-roman/IntToRoman.sol\":226:236  return 'X' */\n      mload(0x40)\n      dup1\n      0x40\n      add\n      0x40\n      mstore\n      dup1\n      0x01\n      dup2\n      mstore\n      0x20\n      add\n      0x5800000000000000000000000000000000000000000000000000000000000000\n      dup2\n      mstore\n      pop\n      swap1\n      pop\n      jump(tag_108)\n        /* \"job-4-int-to-roman/IntToRoman.sol\":214:236  if(x == 10) return 'X' */\n    tag_111:\n        /* \"job-4-int-to-roman/IntToRoman.sol\":254:256  50 */\n      0x32\n        /* \"job-4-int-to-roman/IntToRoman.sol\":249:250  x */\n      dup3\n        /* \"job-4-int-to-roman/IntToRoman.sol\":249:256  x == 50 */\n      sub\n        /* \"job-4-int-to-roman/IntToRoman.sol\":246:268  if(x == 50) return 'L' */\n      tag_112\n      jumpi\n        /* \"job-4-int-to-roman/IntToRoman.sol\":258:268  return 'L' */\n      mload(0x40)\n      dup1\n      0x40\n      add\n      0x40\n      mstore\n      dup1\n      0x01\n      dup2\n      mstore\n      0x20\n      add\n      0x4c00000000000000000000000000000000000000000000000000000000000000\n      dup2\n      mstore\n      pop\n      swap1\n      pop\n      jump(tag_108)\n        /* \"job-4-int-to-roman/IntToRoman.sol\":246:268  if(x == 50) return 'L' */\n    tag_112:\n        /* \"job-4-int-to-roman/IntToRoman.sol\":286:289  100 */\n      0x64\n        /* \"job-4-int-to-roman/IntToRoman.sol\":281:282  x */\n      dup3\n        /* \"job-4-int-to-roman/IntToRoman.sol\":281:289  x == 100 */\n      sub\n        /* \"job-4-int-to-roman/IntToRoman.sol\":278:301  if(x == 100) return 'C' */\n      tag_113\n      jumpi\n        /* \"job-4-int-to-roman/IntToRoman.sol\":291:301  return 'C' */\n      mload(0x40)\n      dup1\n      0x40\n      add\n      0x40\n      mstore\n      dup1\n      0x01\n      dup2\n      mstore\n      0x20\n      add\n      0x4300000000000000000000000000000000000000000000000000000000000000\n      dup2\n      mstore\n      pop\n      swap1\n      pop\n      jump(tag_108)\n        /* \"job-4-int-to-roman/IntToRoman.sol\":278:301  if(x == 100) return 'C' */\n    tag_113:\n        /* \"job-4-int-to-roman/IntToRoman.sol\":319:322  500 */\n      0x01f4\n        /* \"job-4-int-to-roman/IntToRoman.sol\":314:315  x */\n      dup3\n        /* \"job-4-int-to-roman/IntToRoman.sol\":314:322  x == 500 */\n      sub\n        /* \"job-4-int-to-roman/IntToRoman.sol\":311:334  if(x == 500) return 'D' */\n      tag_114\n      jumpi\n        /* \"job-4-int-to-roman/IntToRoman.sol\":324:334  return 'D' */\n      mload(0x40)\n      dup1\n      0x40\n      add\n      0x40\n      mstore\n      dup1\n      0x01\n      dup2\n      mstore\n      0x20\n      add\n      0x4400000000000000000000000000000000000000000000000000000000000000\n      dup2\n      mstore\n      pop\n      swap1\n      pop\n      jump(tag_108)\n        /* \"job-4-int-to-roman/IntToRoman.sol\":311:334  if(x == 500) return 'D' */\n    tag_114:\n        /* \"job-4-int-to-roman/IntToRoman.sol\":352:356  1000 */\n      0x03e8\n        /* \"job-4-int-to-roman/IntToRoman.sol\":347:348  x */\n      dup3\n        /* \"job-4-int-to-roman/IntToRoman.sol\":347:356  x == 1000 */\n      sub\n        /* \"job-4-int-to-roman/IntToRoman.sol\":344:368  if(x == 1000) return 'M' */\n      tag_115\n      jumpi\n        /* \"job-4-int-to-roman/IntToRoman.sol\":358:368  return 'M' */\n      mload(0x40)\n      dup1\n      0x40\n      add\n      0x40\n      mstore\n      dup1\n      0x01\n      dup2\n      mstore\n      0x20\n      add\n      0x4d00000000000000000000000000000000000000000000000000000000000000\n      dup2\n      mstore\n      pop\n      swap1\n      pop\n      jump(tag_108)\n        /* \"job-4-int-to-roman/IntToRoman.sol\":344:368  if(x == 1000) return 'M' */\n    tag_115:\n        /* \"job-4-int-to-roman/IntToRoman.sol\":378:388  return 'F' */\n      mload(0x40)\n      dup1\n      0x40\n      add\n      0x40\n      mstore\n      dup1\n      0x01\n      dup2\n      mstore\n      0x20\n      add\n      0x4600000000000000000000000000000000000000000000000000000000000000\n      dup2\n      mstore\n      pop\n      swap1\n      pop\n        /* \"job-4-int-to-roman/IntToRoman.sol\":82:395  function _string(uint x) private pure returns(string memory){... */\n    tag_108:\n      swap2\n      swap1\n      pop\n      jump\t// out\n        /* \"#utility.yul\":7:82   */\n    tag_116:\n        /* \"#utility.yul\":40:46   */\n      0x00\n        /* \"#utility.yul\":73:75   */\n      0x40\n        /* \"#utility.yul\":67:76   */\n      mload\n        /* \"#utility.yul\":57:76   */\n      swap1\n      pop\n        /* \"#utility.yul\":7:82   */\n      swap1\n      jump\t// out\n        /* \"#utility.yul\":88:205   */\n    tag_117:\n        /* \"#utility.yul\":197:198   */\n      0x00\n        /* \"#utility.yul\":194:195   */\n      0x00\n        /* \"#utility.yul\":187:199   */\n      revert\n        /* \"#utility.yul\":211:328   */\n    tag_118:\n        /* \"#utility.yul\":320:321   */\n      0x00\n        /* \"#utility.yul\":317:318   */\n      0x00\n        /* \"#utility.yul\":310:322   */\n      revert\n        /* \"#utility.yul\":334:411   */\n    tag_119:\n        /* \"#utility.yul\":371:378   */\n      0x00\n        /* \"#utility.yul\":400:405   */\n      dup2\n        /* \"#utility.yul\":389:405   */\n      swap1\n      pop\n        /* \"#utility.yul\":334:411   */\n      swap2\n      swap1\n      pop\n      jump\t// out\n        /* \"#utility.yul\":417:539   */\n    tag_120:\n        /* \"#utility.yul\":490:514   */\n      tag_162\n        /* \"#utility.yul\":508:513   */\n      dup2\n        /* \"#utility.yul\":490:514   */\n      tag_119\n      jump\t// in\n    tag_162:\n        /* \"#utility.yul\":483:488   */\n      dup2\n        /* \"#utility.yul\":480:515   */\n      eq\n        /* \"#utility.yul\":470:533   */\n      tag_163\n      jumpi\n        /* \"#utility.yul\":529:530   */\n      0x00\n        /* \"#utility.yul\":526:527   */\n      0x00\n        /* \"#utility.yul\":519:531   */\n      revert\n        /* \"#utility.yul\":470:533   */\n    tag_163:\n        /* \"#utility.yul\":417:539   */\n      pop\n      jump\t// out\n        /* \"#utility.yul\":545:684   */\n    tag_121:\n        /* \"#utility.yul\":591:596   */\n      0x00\n        /* \"#utility.yul\":629:635   */\n      dup2\n        /* \"#utility.yul\":616:636   */\n      calldataload\n        /* \"#utility.yul\":607:636   */\n      swap1\n      pop\n        /* \"#utility.yul\":645:678   */\n      tag_165\n        /* \"#utility.yul\":672:677   */\n      dup2\n        /* \"#utility.yul\":645:678   */\n      tag_120\n      jump\t// in\n    tag_165:\n        /* \"#utility.yul\":545:684   */\n      swap3\n      swap2\n      pop\n      pop\n      jump\t// out\n        /* \"#utility.yul\":690:1019   */\n    tag_8:\n        /* \"#utility.yul\":749:755   */\n      0x00\n        /* \"#utility.yul\":798:800   */\n      0x20\n        /* \"#utility.yul\":786:795   */\n      dup3\n        /* \"#utility.yul\":777:784   */\n      dup5\n        /* \"#utility.yul\":773:796   */\n      sub\n        /* \"#utility.yul\":769:801   */\n      slt\n        /* \"#utility.yul\":766:885   */\n      iszero\n      tag_167\n      jumpi\n        /* \"#utility.yul\":804:883   */\n      tag_168\n      tag_117\n      jump\t// in\n    tag_168:\n        /* \"#utility.yul\":766:885   */\n    tag_167:\n        /* \"#utility.yul\":924:925   */\n      0x00\n        /* \"#utility.yul\":949:1002   */\n      tag_169\n        /* \"#utility.yul\":994:1001   */\n      dup5\n        /* \"#utility.yul\":985:991   */\n      dup3\n        /* \"#utility.yul\":974:983   */\n      dup6\n        /* \"#utility.yul\":970:992   */\n      add\n        /* \"#utility.yul\":949:1002   */\n      tag_121\n      jump\t// in\n    tag_169:\n        /* \"#utility.yul\":939:1002   */\n      swap2\n      pop\n        /* \"#utility.yul\":895:1012   */\n      pop\n        /* \"#utility.yul\":690:1019   */\n      swap3\n      swap2\n      pop\n      pop\n      jump\t// out\n        /* \"#utility.yul\":1025:1124   */\n    tag_122:\n        /* \"#utility.yul\":1077:1083   */\n      0x00\n        /* \"#utility.yul\":1111:1116   */\n      dup2\n        /* \"#utility.yul\":1105:1117   */\n      mload\n        /* \"#utility.yul\":1095:1117   */\n      swap1\n      pop\n        /* \"#utility.yul\":1025:1124   */\n      swap2\n      swap1\n      pop\n      jump\t// out\n        /* \"#utility.yul\":1130:1299   */\n    tag_123:\n        /* \"#utility.yul\":1214:1225   */\n      0x00\n        /* \"#utility.yul\":1248:1254   */\n      dup3\n        /* \"#utility.yul\":1243:1246   */\n      dup3\n        /* \"#utility.yul\":1236:1255   */\n      mstore\n        /* \"#utility.yul\":1288:1292   */\n      0x20\n        /* \"#utility.yul\":1283:1286   */\n      dup3\n        /* \"#utility.yul\":1279:1293   */\n      add\n        /* \"#utility.yul\":1264:1293   */\n      swap1\n      pop\n        /* \"#utility.yul\":1130:1299   */\n      swap3\n      swap2\n      pop\n      pop\n      jump\t// out\n        /* \"#utility.yul\":1305:1444   */\n    tag_124:\n        /* \"#utility.yul\":1394:1400   */\n      dup3\n        /* \"#utility.yul\":1389:1392   */\n      dup2\n        /* \"#utility.yul\":1384:1387   */\n      dup4\n        /* \"#utility.yul\":1378:1401   */\n      mcopy\n        /* \"#utility.yul\":1435:1436   */\n      0x00\n        /* \"#utility.yul\":1426:1432   */\n      dup4\n        /* \"#utility.yul\":1421:1424   */\n      dup4\n        /* \"#utility.yul\":1417:1433   */\n      add\n        /* \"#utility.yul\":1410:1437   */\n      mstore\n        /* \"#utility.yul\":1305:1444   */\n      pop\n      pop\n      pop\n      jump\t// out\n        /* \"#utility.yul\":1450:1552   */\n    tag_125:\n        /* \"#utility.yul\":1491:1497   */\n      0x00\n        /* \"#utility.yul\":1542:1544   */\n      0x1f\n        /* \"#utility.yul\":1538:1545   */\n      not\n        /* \"#utility.yul\":1533:1535   */\n      0x1f\n        /* \"#utility.yul\":1526:1531   */\n      dup4\n        /* \"#utility.yul\":1522:1536   */\n      add\n        /* \"#utility.yul\":1518:1546   */\n      and\n        /* \"#utility.yul\":1508:1546   */\n      swap1\n      pop\n        /* \"#utility.yul\":1450:1552   */\n      swap2\n      swap1\n      pop\n      jump\t// out\n        /* \"#utility.yul\":1558:1935   */\n    tag_126:\n        /* \"#utility.yul\":1646:1649   */\n      0x00\n        /* \"#utility.yul\":1674:1713   */\n      tag_175\n        /* \"#utility.yul\":1707:1712   */\n      dup3\n        /* \"#utility.yul\":1674:1713   */\n      tag_122\n      jump\t// in\n    tag_175:\n        /* \"#utility.yul\":1729:1800   */\n      tag_176\n        /* \"#utility.yul\":1793:1799   */\n      dup2\n        /* \"#utility.yul\":1788:1791   */\n      dup6\n        /* \"#utility.yul\":1729:1800   */\n      tag_123\n      jump\t// in\n    tag_176:\n        /* \"#utility.yul\":1722:1800   */\n      swap4\n      pop\n        /* \"#utility.yul\":1809:1874   */\n      tag_177\n        /* \"#utility.yul\":1867:1873   */\n      dup2\n        /* \"#utility.yul\":1862:1865   */\n      dup6\n        /* \"#utility.yul\":1855:1859   */\n      0x20\n        /* \"#utility.yul\":1848:1853   */\n      dup7\n        /* \"#utility.yul\":1844:1860   */\n      add\n        /* \"#utility.yul\":1809:1874   */\n      tag_124\n      jump\t// in\n    tag_177:\n        /* \"#utility.yul\":1899:1928   */\n      tag_178\n        /* \"#utility.yul\":1921:1927   */\n      dup2\n        /* \"#utility.yul\":1899:1928   */\n      tag_125\n      jump\t// in\n    tag_178:\n        /* \"#utility.yul\":1894:1897   */\n      dup5\n        /* \"#utility.yul\":1890:1929   */\n      add\n        /* \"#utility.yul\":1883:1929   */\n      swap2\n      pop\n        /* \"#utility.yul\":1650:1935   */\n      pop\n        /* \"#utility.yul\":1558:1935   */\n      swap3\n      swap2\n      pop\n      pop\n      jump\t// out\n        /* \"#utility.yul\":1941:2254   */\n    tag_11:\n        /* \"#utility.yul\":2054:2058   */\n      0x00\n        /* \"#utility.yul\":2092:2094   */\n      0x20\n        /* \"#utility.yul\":2081:2090   */\n      dup3\n        /* \"#utility.yul\":2077:2095   */\n      add\n        /* \"#utility.yul\":2069:2095   */\n      swap1\n      pop\n        /* \"#utility.yul\":2141:2150   */\n      dup2\n        /* \"#utility.yul\":2135:2139   */\n      dup2\n        /* \"#utility.yul\":2131:2151   */\n      sub\n        /* \"#utility.yul\":2127:2128   */\n      0x00\n        /* \"#utility.yul\":2116:2125   */\n      dup4\n        /* \"#utility.yul\":2112:2129   */\n      add\n        /* \"#utility.yul\":2105:2152   */\n      mstore\n        /* \"#utility.yul\":2169:2247   */\n      tag_180\n        /* \"#utility.yul\":2242:2246   */\n      dup2\n        /* \"#utility.yul\":2233:2239   */\n      dup5\n        /* \"#utility.yul\":2169:2247   */\n      tag_126\n      jump\t// in\n    tag_180:\n        /* \"#utility.yul\":2161:2247   */\n      swap1\n      pop\n        /* \"#utility.yul\":1941:2254   */\n      swap3\n      swap2\n      pop\n      pop\n      jump\t// out\n        /* \"#utility.yul\":2260:2377   */\n    tag_127:\n        /* \"#utility.yul\":2369:2370   */\n      0x00\n        /* \"#utility.yul\":2366:2367   */\n      0x00\n        /* \"#utility.yul\":2359:2371   */\n      revert\n        /* \"#utility.yul\":2383:2500   */\n    tag_128:\n        /* \"#utility.yul\":2492:2493   */\n      0x00\n        /* \"#utility.yul\":2489:2490   */\n      0x00\n        /* \"#utility.yul\":2482:2494   */\n      revert\n        /* \"#utility.yul\":2506:2686   */\n    tag_129:\n        /* \"#utility.yul\":2554:2631   */\n      0x4e487b7100000000000000000000000000000000000000000000000000000000\n        /* \"#utility.yul\":2551:2552   */\n      0x00\n        /* \"#utility.yul\":2544:2632   */\n      mstore\n        /* \"#utility.yul\":2651:2655   */\n      0x41\n        /* \"#utility.yul\":2648:2649   */\n      0x04\n        /* \"#utility.yul\":2641:2656   */\n      mstore\n        /* \"#utility.yul\":2675:2679   */\n      0x24\n        /* \"#utility.yul\":2672:2673   */\n      0x00\n        /* \"#utility.yul\":2665:2680   */\n      revert\n        /* \"#utility.yul\":2692:2973   */\n    tag_130:\n        /* \"#utility.yul\":2775:2802   */\n      tag_185\n        /* \"#utility.yul\":2797:2801   */\n      dup3\n        /* \"#utility.yul\":2775:2802   */\n      tag_125\n      jump\t// in\n    tag_185:\n        /* \"#utility.yul\":2767:2773   */\n      dup2\n        /* \"#utility.yul\":2763:2803   */\n      add\n        /* \"#utility.yul\":2905:2911   */\n      dup2\n        /* \"#utility.yul\":2893:2903   */\n      dup2\n        /* \"#utility.yul\":2890:2912   */\n      lt\n        /* \"#utility.yul\":2869:2887   */\n      0xffffffffffffffff\n        /* \"#utility.yul\":2857:2867   */\n      dup3\n        /* \"#utility.yul\":2854:2888   */\n      gt\n        /* \"#utility.yul\":2851:2913   */\n      or\n        /* \"#utility.yul\":2848:2936   */\n      iszero\n      tag_186\n      jumpi\n        /* \"#utility.yul\":2916:2934   */\n      tag_187\n      tag_129\n      jump\t// in\n    tag_187:\n        /* \"#utility.yul\":2848:2936   */\n    tag_186:\n        /* \"#utility.yul\":2956:2966   */\n      dup1\n        /* \"#utility.yul\":2952:2954   */\n      0x40\n        /* \"#utility.yul\":2945:2967   */\n      mstore\n        /* \"#utility.yul\":2735:2973   */\n      pop\n        /* \"#utility.yul\":2692:2973   */\n      pop\n      pop\n      jump\t// out\n        /* \"#utility.yul\":2979:3108   */\n    tag_131:\n        /* \"#utility.yul\":3013:3019   */\n      0x00\n        /* \"#utility.yul\":3040:3060   */\n      tag_189\n      tag_116\n      jump\t// in\n    tag_189:\n        /* \"#utility.yul\":3030:3060   */\n      swap1\n      pop\n        /* \"#utility.yul\":3069:3102   */\n      tag_190\n        /* \"#utility.yul\":3097:3101   */\n      dup3\n        /* \"#utility.yul\":3089:3095   */\n      dup3\n        /* \"#utility.yul\":3069:3102   */\n      tag_130\n      jump\t// in\n    tag_190:\n        /* \"#utility.yul\":2979:3108   */\n      swap2\n      swap1\n      pop\n      jump\t// out\n        /* \"#utility.yul\":3114:3422   */\n    tag_132:\n        /* \"#utility.yul\":3176:3180   */\n      0x00\n        /* \"#utility.yul\":3266:3284   */\n      0xffffffffffffffff\n        /* \"#utility.yul\":3258:3264   */\n      dup3\n        /* \"#utility.yul\":3255:3285   */\n      gt\n        /* \"#utility.yul\":3252:3308   */\n      iszero\n      tag_192\n      jumpi\n        /* \"#utility.yul\":3288:3306   */\n      tag_193\n      tag_129\n      jump\t// in\n    tag_193:\n        /* \"#utility.yul\":3252:3308   */\n    tag_192:\n        /* \"#utility.yul\":3326:3355   */\n      tag_194\n        /* \"#utility.yul\":3348:3354   */\n      dup3\n        /* \"#utility.yul\":3326:3355   */\n      tag_125\n      jump\t// in\n    tag_194:\n        /* \"#utility.yul\":3318:3355   */\n      swap1\n      pop\n        /* \"#utility.yul\":3410:3414   */\n      0x20\n        /* \"#utility.yul\":3404:3408   */\n      dup2\n        /* \"#utility.yul\":3400:3415   */\n      add\n        /* \"#utility.yul\":3392:3415   */\n      swap1\n      pop\n        /* \"#utility.yul\":3114:3422   */\n      swap2\n      swap1\n      pop\n      jump\t// out\n        /* \"#utility.yul\":3428:3576   */\n    tag_133:\n        /* \"#utility.yul\":3526:3532   */\n      dup3\n        /* \"#utility.yul\":3521:3524   */\n      dup2\n        /* \"#utility.yul\":3516:3519   */\n      dup4\n        /* \"#utility.yul\":3503:3533   */\n      calldatacopy\n        /* \"#utility.yul\":3567:3568   */\n      0x00\n        /* \"#utility.yul\":3558:3564   */\n      dup4\n        /* \"#utility.yul\":3553:3556   */\n      dup4\n        /* \"#utility.yul\":3549:3565   */\n      add\n        /* \"#utility.yul\":3542:3569   */\n      mstore\n        /* \"#utility.yul\":3428:3576   */\n      pop\n      pop\n      pop\n      jump\t// out\n        /* \"#utility.yul\":3582:4007   */\n    tag_134:\n        /* \"#utility.yul\":3660:3665   */\n      0x00\n        /* \"#utility.yul\":3685:3751   */\n      tag_197\n        /* \"#utility.yul\":3701:3750   */\n      tag_198\n        /* \"#utility.yul\":3743:3749   */\n      dup5\n        /* \"#utility.yul\":3701:3750   */\n      tag_132\n      jump\t// in\n    tag_198:\n        /* \"#utility.yul\":3685:3751   */\n      tag_131\n      jump\t// in\n    tag_197:\n        /* \"#utility.yul\":3676:3751   */\n      swap1\n      pop\n        /* \"#utility.yul\":3774:3780   */\n      dup3\n        /* \"#utility.yul\":3767:3772   */\n      dup2\n        /* \"#utility.yul\":3760:3781   */\n      mstore\n        /* \"#utility.yul\":3812:3816   */\n      0x20\n        /* \"#utility.yul\":3805:3810   */\n      dup2\n        /* \"#utility.yul\":3801:3817   */\n      add\n        /* \"#utility.yul\":3850:3853   */\n      dup5\n        /* \"#utility.yul\":3841:3847   */\n      dup5\n        /* \"#utility.yul\":3836:3839   */\n      dup5\n        /* \"#utility.yul\":3832:3848   */\n      add\n        /* \"#utility.yul\":3829:3854   */\n      gt\n        /* \"#utility.yul\":3826:3938   */\n      iszero\n      tag_199\n      jumpi\n        /* \"#utility.yul\":3857:3936   */\n      tag_200\n      tag_128\n      jump\t// in\n    tag_200:\n        /* \"#utility.yul\":3826:3938   */\n    tag_199:\n        /* \"#utility.yul\":3947:4001   */\n      tag_201\n        /* \"#utility.yul\":3994:4000   */\n      dup5\n        /* \"#utility.yul\":3989:3992   */\n      dup3\n        /* \"#utility.yul\":3984:3987   */\n      dup6\n        /* \"#utility.yul\":3947:4001   */\n      tag_133\n      jump\t// in\n    tag_201:\n        /* \"#utility.yul\":3666:4007   */\n      pop\n        /* \"#utility.yul\":3582:4007   */\n      swap4\n      swap3\n      pop\n      pop\n      pop\n      jump\t// out\n        /* \"#utility.yul\":4027:4367   */\n    tag_135:\n        /* \"#utility.yul\":4083:4088   */\n      0x00\n        /* \"#utility.yul\":4132:4135   */\n      dup3\n        /* \"#utility.yul\":4125:4129   */\n      0x1f\n        /* \"#utility.yul\":4117:4123   */\n      dup4\n        /* \"#utility.yul\":4113:4130   */\n      add\n        /* \"#utility.yul\":4109:4136   */\n      slt\n        /* \"#utility.yul\":4099:4221   */\n      tag_203\n      jumpi\n        /* \"#utility.yul\":4140:4219   */\n      tag_204\n      tag_127\n      jump\t// in\n    tag_204:\n        /* \"#utility.yul\":4099:4221   */\n    tag_203:\n        /* \"#utility.yul\":4257:4263   */\n      dup2\n        /* \"#utility.yul\":4244:4264   */\n      calldataload\n        /* \"#utility.yul\":4282:4361   */\n      tag_205\n        /* \"#utility.yul\":4357:4360   */\n      dup5\n        /* \"#utility.yul\":4349:4355   */\n      dup3\n        /* \"#utility.yul\":4342:4346   */\n      0x20\n        /* \"#utility.yul\":4334:4340   */\n      dup7\n        /* \"#utility.yul\":4330:4347   */\n      add\n        /* \"#utility.yul\":4282:4361   */\n      tag_134\n      jump\t// in\n    tag_205:\n        /* \"#utility.yul\":4273:4361   */\n      swap2\n      pop\n        /* \"#utility.yul\":4089:4367   */\n      pop\n        /* \"#utility.yul\":4027:4367   */\n      swap3\n      swap2\n      pop\n      pop\n      jump\t// out\n        /* \"#utility.yul\":4373:5858   */\n    tag_17:\n        /* \"#utility.yul\":4499:4505   */\n      0x00\n        /* \"#utility.yul\":4507:4513   */\n      0x00\n        /* \"#utility.yul\":4515:4521   */\n      0x00\n        /* \"#utility.yul\":4523:4529   */\n      0x00\n        /* \"#utility.yul\":4572:4575   */\n      0x80\n        /* \"#utility.yul\":4560:4569   */\n      dup6\n        /* \"#utility.yul\":4551:4558   */\n      dup8\n        /* \"#utility.yul\":4547:4570   */\n      sub\n        /* \"#utility.yul\":4543:4576   */\n      slt\n        /* \"#utility.yul\":4540:4660   */\n      iszero\n      tag_207\n      jumpi\n        /* \"#utility.yul\":4579:4658   */\n      tag_208\n      tag_117\n      jump\t// in\n    tag_208:\n        /* \"#utility.yul\":4540:4660   */\n    tag_207:\n        /* \"#utility.yul\":4727:4728   */\n      0x00\n        /* \"#utility.yul\":4716:4725   */\n      dup6\n        /* \"#utility.yul\":4712:4729   */\n      add\n        /* \"#utility.yul\":4699:4730   */\n      calldataload\n        /* \"#utility.yul\":4757:4775   */\n      0xffffffffffffffff\n        /* \"#utility.yul\":4749:4755   */\n      dup2\n        /* \"#utility.yul\":4746:4776   */\n      gt\n        /* \"#utility.yul\":4743:4860   */\n      iszero\n      tag_209\n      jumpi\n        /* \"#utility.yul\":4779:4858   */\n      tag_210\n      tag_118\n      jump\t// in\n    tag_210:\n        /* \"#utility.yul\":4743:4860   */\n    tag_209:\n        /* \"#utility.yul\":4884:4947   */\n      tag_211\n        /* \"#utility.yul\":4939:4946   */\n      dup8\n        /* \"#utility.yul\":4930:4936   */\n      dup3\n        /* \"#utility.yul\":4919:4928   */\n      dup9\n        /* \"#utility.yul\":4915:4937   */\n      add\n        /* \"#utility.yul\":4884:4947   */\n      tag_135\n      jump\t// in\n    tag_211:\n        /* \"#utility.yul\":4874:4947   */\n      swap5\n      pop\n        /* \"#utility.yul\":4670:4957   */\n      pop\n        /* \"#utility.yul\":5024:5026   */\n      0x20\n        /* \"#utility.yul\":5013:5022   */\n      dup6\n        /* \"#utility.yul\":5009:5027   */\n      add\n        /* \"#utility.yul\":4996:5028   */\n      calldataload\n        /* \"#utility.yul\":5055:5073   */\n      0xffffffffffffffff\n        /* \"#utility.yul\":5047:5053   */\n      dup2\n        /* \"#utility.yul\":5044:5074   */\n      gt\n        /* \"#utility.yul\":5041:5158   */\n      iszero\n      tag_212\n      jumpi\n        /* \"#utility.yul\":5077:5156   */\n      tag_213\n      tag_118\n      jump\t// in\n    tag_213:\n        /* \"#utility.yul\":5041:5158   */\n    tag_212:\n        /* \"#utility.yul\":5182:5245   */\n      tag_214\n        /* \"#utility.yul\":5237:5244   */\n      dup8\n        /* \"#utility.yul\":5228:5234   */\n      dup3\n        /* \"#utility.yul\":5217:5226   */\n      dup9\n        /* \"#utility.yul\":5213:5235   */\n      add\n        /* \"#utility.yul\":5182:5245   */\n      tag_135\n      jump\t// in\n    tag_214:\n        /* \"#utility.yul\":5172:5245   */\n      swap4\n      pop\n        /* \"#utility.yul\":4967:5255   */\n      pop\n        /* \"#utility.yul\":5322:5324   */\n      0x40\n        /* \"#utility.yul\":5311:5320   */\n      dup6\n        /* \"#utility.yul\":5307:5325   */\n      add\n        /* \"#utility.yul\":5294:5326   */\n      calldataload\n        /* \"#utility.yul\":5353:5371   */\n      0xffffffffffffffff\n        /* \"#utility.yul\":5345:5351   */\n      dup2\n        /* \"#utility.yul\":5342:5372   */\n      gt\n        /* \"#utility.yul\":5339:5456   */\n      iszero\n      tag_215\n      jumpi\n        /* \"#utility.yul\":5375:5454   */\n      tag_216\n      tag_118\n      jump\t// in\n    tag_216:\n        /* \"#utility.yul\":5339:5456   */\n    tag_215:\n        /* \"#utility.yul\":5480:5543   */\n      tag_217\n        /* \"#utility.yul\":5535:5542   */\n      dup8\n        /* \"#utility.yul\":5526:5532   */\n      dup3\n        /* \"#utility.yul\":5515:5524   */\n      dup9\n        /* \"#utility.yul\":5511:5533   */\n      add\n        /* \"#utility.yul\":5480:5543   */\n      tag_135\n      jump\t// in\n    tag_217:\n        /* \"#utility.yul\":5470:5543   */\n      swap3\n      pop\n        /* \"#utility.yul\":5265:5553   */\n      pop\n        /* \"#utility.yul\":5620:5622   */\n      0x60\n        /* \"#utility.yul\":5609:5618   */\n      dup6\n        /* \"#utility.yul\":5605:5623   */\n      add\n        /* \"#utility.yul\":5592:5624   */\n      calldataload\n        /* \"#utility.yul\":5651:5669   */\n      0xffffffffffffffff\n        /* \"#utility.yul\":5643:5649   */\n      dup2\n        /* \"#utility.yul\":5640:5670   */\n      gt\n        /* \"#utility.yul\":5637:5754   */\n      iszero\n      tag_218\n      jumpi\n        /* \"#utility.yul\":5673:5752   */\n      tag_219\n      tag_118\n      jump\t// in\n    tag_219:\n        /* \"#utility.yul\":5637:5754   */\n    tag_218:\n        /* \"#utility.yul\":5778:5841   */\n      tag_220\n        /* \"#utility.yul\":5833:5840   */\n      dup8\n        /* \"#utility.yul\":5824:5830   */\n      dup3\n        /* \"#utility.yul\":5813:5822   */\n      dup9\n        /* \"#utility.yul\":5809:5831   */\n      add\n        /* \"#utility.yul\":5778:5841   */\n      tag_135\n      jump\t// in\n    tag_220:\n        /* \"#utility.yul\":5768:5841   */\n      swap2\n      pop\n        /* \"#utility.yul\":5563:5851   */\n      pop\n        /* \"#utility.yul\":4373:5858   */\n      swap3\n      swap6\n      swap2\n      swap5\n      pop\n      swap3\n      pop\n      jump\t// out\n        /* \"#utility.yul\":5864:6044   */\n    tag_136:\n        /* \"#utility.yul\":5912:5989   */\n      0x4e487b7100000000000000000000000000000000000000000000000000000000\n        /* \"#utility.yul\":5909:5910   */\n      0x00\n        /* \"#utility.yul\":5902:5990   */\n      mstore\n        /* \"#utility.yul\":6009:6013   */\n      0x22\n        /* \"#utility.yul\":6006:6007   */\n      0x04\n        /* \"#utility.yul\":5999:6014   */\n      mstore\n        /* \"#utility.yul\":6033:6037   */\n      0x24\n        /* \"#utility.yul\":6030:6031   */\n      0x00\n        /* \"#utility.yul\":6023:6038   */\n      revert\n        /* \"#utility.yul\":6050:6370   */\n    tag_88:\n        /* \"#utility.yul\":6094:6100   */\n      0x00\n        /* \"#utility.yul\":6131:6132   */\n      0x02\n        /* \"#utility.yul\":6125:6129   */\n      dup3\n        /* \"#utility.yul\":6121:6133   */\n      div\n        /* \"#utility.yul\":6111:6133   */\n      swap1\n      pop\n        /* \"#utility.yul\":6178:6179   */\n      0x01\n        /* \"#utility.yul\":6172:6176   */\n      dup3\n        /* \"#utility.yul\":6168:6180   */\n      and\n        /* \"#utility.yul\":6199:6217   */\n      dup1\n        /* \"#utility.yul\":6189:6270   */\n      tag_223\n      jumpi\n        /* \"#utility.yul\":6255:6259   */\n      0x7f\n        /* \"#utility.yul\":6247:6253   */\n      dup3\n        /* \"#utility.yul\":6243:6260   */\n      and\n        /* \"#utility.yul\":6233:6260   */\n      swap2\n      pop\n        /* \"#utility.yul\":6189:6270   */\n    tag_223:\n        /* \"#utility.yul\":6317:6319   */\n      0x20\n        /* \"#utility.yul\":6309:6315   */\n      dup3\n        /* \"#utility.yul\":6306:6320   */\n      lt\n        /* \"#utility.yul\":6286:6304   */\n      dup2\n        /* \"#utility.yul\":6283:6321   */\n      sub\n        /* \"#utility.yul\":6280:6364   */\n      tag_224\n      jumpi\n        /* \"#utility.yul\":6336:6354   */\n      tag_225\n      tag_136\n      jump\t// in\n    tag_225:\n        /* \"#utility.yul\":6280:6364   */\n    tag_224:\n        /* \"#utility.yul\":6101:6370   */\n      pop\n        /* \"#utility.yul\":6050:6370   */\n      swap2\n      swap1\n      pop\n      jump\t// out\n        /* \"#utility.yul\":6376:6517   */\n    tag_137:\n        /* \"#utility.yul\":6425:6429   */\n      0x00\n        /* \"#utility.yul\":6448:6451   */\n      dup2\n        /* \"#utility.yul\":6440:6451   */\n      swap1\n      pop\n        /* \"#utility.yul\":6471:6474   */\n      dup2\n        /* \"#utility.yul\":6468:6469   */\n      0x00\n        /* \"#utility.yul\":6461:6475   */\n      mstore\n        /* \"#utility.yul\":6505:6509   */\n      0x20\n        /* \"#utility.yul\":6502:6503   */\n      0x00\n        /* \"#utility.yul\":6492:6510   */\n      keccak256\n        /* \"#utility.yul\":6484:6510   */\n      swap1\n      pop\n        /* \"#utility.yul\":6376:6517   */\n      swap2\n      swap1\n      pop\n      jump\t// out\n        /* \"#utility.yul\":6523:6616   */\n    tag_138:\n        /* \"#utility.yul\":6560:6566   */\n      0x00\n        /* \"#utility.yul\":6607:6609   */\n      0x20\n        /* \"#utility.yul\":6602:6604   */\n      0x1f\n        /* \"#utility.yul\":6595:6600   */\n      dup4\n        /* \"#utility.yul\":6591:6605   */\n      add\n        /* \"#utility.yul\":6587:6610   */\n      div\n        /* \"#utility.yul\":6577:6610   */\n      swap1\n      pop\n        /* \"#utility.yul\":6523:6616   */\n      swap2\n      swap1\n      pop\n      jump\t// out\n        /* \"#utility.yul\":6622:6729   */\n    tag_139:\n        /* \"#utility.yul\":6666:6674   */\n      0x00\n        /* \"#utility.yul\":6716:6721   */\n      dup3\n        /* \"#utility.yul\":6710:6714   */\n      dup3\n        /* \"#utility.yul\":6706:6722   */\n      shl\n        /* \"#utility.yul\":6685:6722   */\n      swap1\n      pop\n        /* \"#utility.yul\":6622:6729   */\n      swap3\n      swap2\n      pop\n      pop\n      jump\t// out\n        /* \"#utility.yul\":6735:7128   */\n    tag_140:\n        /* \"#utility.yul\":6804:6810   */\n      0x00\n        /* \"#utility.yul\":6854:6855   */\n      0x08\n        /* \"#utility.yul\":6842:6852   */\n      dup4\n        /* \"#utility.yul\":6838:6856   */\n      mul\n        /* \"#utility.yul\":6877:6974   */\n      tag_230\n        /* \"#utility.yul\":6907:6973   */\n      0xffffffffffffffffffffffffffffffffffffffffffffffffffffffffffffffff\n        /* \"#utility.yul\":6896:6905   */\n      dup3\n        /* \"#utility.yul\":6877:6974   */\n      tag_139\n      jump\t// in\n    tag_230:\n        /* \"#utility.yul\":6995:7034   */\n      tag_231\n        /* \"#utility.yul\":7025:7033   */\n      dup7\n        /* \"#utility.yul\":7014:7023   */\n      dup4\n        /* \"#utility.yul\":6995:7034   */\n      tag_139\n      jump\t// in\n    tag_231:\n        /* \"#utility.yul\":6983:7034   */\n      swap6\n      pop\n        /* \"#utility.yul\":7067:7071   */\n      dup1\n        /* \"#utility.yul\":7063:7072   */\n      not\n        /* \"#utility.yul\":7056:7061   */\n      dup5\n        /* \"#utility.yul\":7052:7073   */\n      and\n        /* \"#utility.yul\":7043:7073   */\n      swap4\n      pop\n        /* \"#utility.yul\":7116:7120   */\n      dup1\n        /* \"#utility.yul\":7106:7114   */\n      dup7\n        /* \"#utility.yul\":7102:7121   */\n      and\n        /* \"#utility.yul\":7095:7100   */\n      dup5\n        /* \"#utility.yul\":7092:7122   */\n      or\n        /* \"#utility.yul\":7082:7122   */\n      swap3\n      pop\n        /* \"#utility.yul\":6811:7128   */\n      pop\n      pop\n        /* \"#utility.yul\":6735:7128   */\n      swap4\n      swap3\n      pop\n      pop\n      pop\n      jump\t// out\n        /* \"#utility.yul\":7134:7194   */\n    tag_141:\n        /* \"#utility.yul\":7162:7165   */\n      0x00\n        /* \"#utility.yul\":7183:7188   */\n      dup2\n        /* \"#utility.yul\":7176:7188   */\n      swap1\n      pop\n        /* \"#utility.yul\":7134:7194   */\n      swap2\n      swap1\n      pop\n      jump\t// out\n        /* \"#utility.yul\":7200:7342   */\n    tag_142:\n        /* \"#utility.yul\":7250:7259   */\n      0x00\n        /* \"#utility.yul\":7283:7336   */\n      tag_234\n        /* \"#utility.yul\":7301:7335   */\n      tag_235\n        /* \"#utility.yul\":7310:7334   */\n      tag_236\n        /* \"#utility.yul\":7328:7333   */\n      dup5\n        /* \"#utility.yul\":7310:7334   */\n      tag_119\n      jump\t// in\n    tag_236:\n        /* \"#utility.yul\":7301:7335   */\n      tag_141\n      jump\t// in\n    tag_235:\n        /* \"#utility.yul\":7283:7336   */\n      tag_119\n      jump\t// in\n    tag_234:\n        /* \"#utility.yul\":7270:7336   */\n      swap1\n      pop\n        /* \"#utility.yul\":7200:7342   */\n      swap2\n      swap1\n      pop\n      jump\t// out\n        /* \"#utility.yul\":7348:7423   */\n    tag_143:\n        /* \"#utility.yul\":7391:7394   */\n      0x00\n        /* \"#utility.yul\":7412:7417   */\n      dup2\n        /* \"#utility.yul\":7405:7417   */\n      swap1\n      pop\n        /* \"#utility.yul\":7348:7423   */\n      swap2\n      swap1\n      pop\n      jump\t// out\n        /* \"#utility.yul\":7429:7698   */\n    tag_144:\n        /* \"#utility.yul\":7539:7578   */\n      tag_239\n        /* \"#utility.yul\":7570:7577   */\n      dup4\n        /* \"#utility.yul\":7539:7578   */\n      tag_142\n      jump\t// in\n    tag_239:\n        /* \"#utility.yul\":7600:7691   */\n      tag_240\n        /* \"#utility.yul\":7649:7690   */\n      tag_241\n        /* \"#utility.yul\":7673:7689   */\n      dup3\n        /* \"#utility.yul\":7649:7690   */\n      tag_143\n      jump\t// in\n    tag_241:\n        /* \"#utility.yul\":7641:7647   */\n      dup5\n        /* \"#utility.yul\":7634:7638   */\n      dup5\n        /* \"#utility.yul\":7628:7639   */\n      sload\n        /* \"#utility.yul\":7600:7691   */\n      tag_140\n      jump\t// in\n    tag_240:\n        /* \"#utility.yul\":7594:7598   */\n      dup3\n        /* \"#utility.yul\":7587:7692   */\n      sstore\n        /* \"#utility.yul\":7505:7698   */\n      pop\n        /* \"#utility.yul\":7429:7698   */\n      pop\n      pop\n      pop\n      jump\t// out\n        /* \"#utility.yul\":7704:7777   */\n    tag_145:\n        /* \"#utility.yul\":7749:7752   */\n      0x00\n        /* \"#utility.yul\":7770:7771   */\n      0x00\n        /* \"#utility.yul\":7763:7771   */\n      swap1\n      pop\n        /* \"#utility.yul\":7704:7777   */\n      swap1\n      jump\t// out\n        /* \"#utility.yul\":7783:7972   */\n    tag_146:\n        /* \"#utility.yul\":7860:7892   */\n      tag_244\n      tag_145\n      jump\t// in\n    tag_244:\n        /* \"#utility.yul\":7901:7966   */\n      tag_245\n        /* \"#utility.yul\":7959:7965   */\n      dup2\n        /* \"#utility.yul\":7951:7957   */\n      dup5\n        /* \"#utility.yul\":7945:7949   */\n      dup5\n        /* \"#utility.yul\":7901:7966   */\n      tag_144\n      jump\t// in\n    tag_245:\n        /* \"#utility.yul\":7836:7972   */\n      pop\n        /* \"#utility.yul\":7783:7972   */\n      pop\n      pop\n      jump\t// out\n        /* \"#utility.yul\":7978:8164   */\n    tag_147:\n        /* \"#utility.yul\":8038:8158   */\n    tag_247:\n        /* \"#utility.yul\":8055:8058   */\n      dup2\n        /* \"#utility.yul\":8048:8053   */\n      dup2\n        /* \"#utility.yul\":8045:8059   */\n      lt\n        /* \"#utility.yul\":8038:8158   */\n      iszero\n      tag_249\n      jumpi\n        /* \"#utility.yul\":8109:8148   */\n      tag_250\n        /* \"#utility.yul\":8146:8147   */\n      0x00\n        /* \"#utility.yul\":8139:8144   */\n      dup3\n        /* \"#utility.yul\":8109:8148   */\n      tag_146\n      jump\t// in\n    tag_250:\n        /* \"#utility.yul\":8082:8083   */\n      0x01\n        /* \"#utility.yul\":8075:8080   */\n      dup2\n        /* \"#utility.yul\":8071:8084   */\n      add\n        /* \"#utility.yul\":8062:8084   */\n      swap1\n      pop\n        /* \"#utility.yul\":8038:8158   */\n      jump(tag_247)\n    tag_249:\n        /* \"#utility.yul\":7978:8164   */\n      pop\n      pop\n      jump\t// out\n        /* \"#utility.yul\":8170:8713   */\n    tag_148:\n        /* \"#utility.yul\":8271:8273   */\n      0x1f\n        /* \"#utility.yul\":8266:8269   */\n      dup3\n        /* \"#utility.yul\":8263:8274   */\n      gt\n        /* \"#utility.yul\":8260:8706   */\n      iszero\n      tag_252\n      jumpi\n        /* \"#utility.yul\":8305:8343   */\n      tag_253\n        /* \"#utility.yul\":8337:8342   */\n      dup2\n        /* \"#utility.yul\":8305:8343   */\n      tag_137\n      jump\t// in\n    tag_253:\n        /* \"#utility.yul\":8389:8418   */\n      tag_254\n        /* \"#utility.yul\":8407:8417   */\n      dup5\n        /* \"#utility.yul\":8389:8418   */\n      tag_138\n      jump\t// in\n    tag_254:\n        /* \"#utility.yul\":8379:8387   */\n      dup2\n        /* \"#utility.yul\":8375:8419   */\n      add\n        /* \"#utility.yul\":8572:8574   */\n      0x20\n        /* \"#utility.yul\":8560:8570   */\n      dup6\n        /* \"#utility.yul\":8557:8575   */\n      lt\n        /* \"#utility.yul\":8554:8603   */\n      iszero\n      tag_255\n      jumpi\n        /* \"#utility.yul\":8593:8601   */\n      dup2\n        /* \"#utility.yul\":8578:8601   */\n      swap1\n      pop\n        /* \"#utility.yul\":8554:8603   */\n    tag_255:\n        /* \"#utility.yul\":8616:8696   */\n      tag_256\n        /* \"#utility.yul\":8672:8694   */\n      tag_257\n        /* \"#utility.yul\":8690:8693   */\n      dup6\n        /* \"#utility.yul\":8672:8694   */\n      tag_138\n      jump\t// in\n    tag_257:\n        /* \"#utility.yul\":8662:8670   */\n      dup4\n        /* \"#utility.yul\":8658:8695   */\n      add\n        /* \"#utility.yul\":8645:8656   */\n      dup3\n        /* \"#utility.yul\":8616:8696   */\n      tag_147\n      jump\t// in\n    tag_256:\n        /* \"#utility.yul\":8275:8706   */\n      pop\n      pop\n        /* \"#utility.yul\":8260:8706   */\n    tag_252:\n        /* \"#utility.yul\":8170:8713   */\n      pop\n      pop\n      pop\n      jump\t// out\n        /* \"#utility.yul\":8719:8836   */\n    tag_149:\n        /* \"#utility.yul\":8773:8781   */\n      0x00\n        /* \"#utility.yul\":8823:8828   */\n      dup3\n        /* \"#utility.yul\":8817:8821   */\n      dup3\n        /* \"#utility.yul\":8813:8829   */\n      shr\n        /* \"#utility.yul\":8792:8829   */\n      swap1\n      pop\n        /* \"#utility.yul\":8719:8836   */\n      swap3\n      swap2\n      pop\n      pop\n      jump\t// out\n        /* \"#utility.yul\":8842:9011   */\n    tag_150:\n        /* \"#utility.yul\":8886:8892   */\n      0x00\n        /* \"#utility.yul\":8919:8970   */\n      tag_260\n        /* \"#utility.yul\":8967:8968   */\n      0x00\n        /* \"#utility.yul\":8963:8969   */\n      not\n        /* \"#utility.yul\":8955:8960   */\n      dup5\n        /* \"#utility.yul\":8952:8953   */\n      0x08\n        /* \"#utility.yul\":8948:8961   */\n      mul\n        /* \"#utility.yul\":8919:8970   */\n      tag_149\n      jump\t// in\n    tag_260:\n        /* \"#utility.yul\":8915:8971   */\n      not\n        /* \"#utility.yul\":9000:9004   */\n      dup1\n        /* \"#utility.yul\":8994:8998   */\n      dup4\n        /* \"#utility.yul\":8990:9005   */\n      and\n        /* \"#utility.yul\":8980:9005   */\n      swap2\n      pop\n        /* \"#utility.yul\":8893:9011   */\n      pop\n        /* \"#utility.yul\":8842:9011   */\n      swap3\n      swap2\n      pop\n      pop\n      jump\t// out\n        /* \"#utility.yul\":9016:9311   */\n    tag_151:\n        /* \"#utility.yul\":9092:9096   */\n      0x00\n        /* \"#utility.yul\":9238:9267   */\n      tag_262\n        /* \"#utility.yul\":9263:9266   */\n      dup4\n        /* \"#utility.yul\":9257:9261   */\n      dup4\n        /* \"#utility.yul\":9238:9267   */\n      tag_150\n      jump\t// in\n    tag_262:\n        /* \"#utility.yul\":9230:9267   */\n      swap2\n      pop\n        /* \"#utility.yul\":9300:9303   */\n      dup3\n        /* \"#utility.yul\":9297:9298   */\n      0x02\n        /* \"#utility.yul\":9293:9304   */\n      mul\n        /* \"#utility.yul\":9287:9291   */\n      dup3\n        /* \"#utility.yul\":9284:9305   */\n      or\n        /* \"#utility.yul\":9276:9305   */\n      swap1\n      pop\n        /* \"#utility.yul\":9016:9311   */\n      swap3\n      swap2\n      pop\n      pop\n      jump\t// out\n        /* \"#utility.yul\":9316:10711   */\n    tag_22:\n        /* \"#utility.yul\":9433:9470   */\n      tag_264\n        /* \"#utility.yul\":9466:9469   */\n      dup3\n        /* \"#utility.yul\":9433:9470   */\n      tag_122\n      jump\t// in\n    tag_264:\n        /* \"#utility.yul\":9535:9553   */\n      0xffffffffffffffff\n        /* \"#utility.yul\":9527:9533   */\n      dup2\n        /* \"#utility.yul\":9524:9554   */\n      gt\n        /* \"#utility.yul\":9521:9577   */\n      iszero\n      tag_265\n      jumpi\n        /* \"#utility.yul\":9557:9575   */\n      tag_266\n      tag_129\n      jump\t// in\n    tag_266:\n        /* \"#utility.yul\":9521:9577   */\n    tag_265:\n        /* \"#utility.yul\":9601:9639   */\n      tag_267\n        /* \"#utility.yul\":9633:9637   */\n      dup3\n        /* \"#utility.yul\":9627:9638   */\n      sload\n        /* \"#utility.yul\":9601:9639   */\n      tag_88\n      jump\t// in\n    tag_267:\n        /* \"#utility.yul\":9686:9753   */\n      tag_268\n        /* \"#utility.yul\":9746:9752   */\n      dup3\n        /* \"#utility.yul\":9738:9744   */\n      dup3\n        /* \"#utility.yul\":9732:9736   */\n      dup6\n        /* \"#utility.yul\":9686:9753   */\n      tag_148\n      jump\t// in\n    tag_268:\n        /* \"#utility.yul\":9780:9781   */\n      0x00\n        /* \"#utility.yul\":9804:9808   */\n      0x20\n        /* \"#utility.yul\":9791:9808   */\n      swap1\n      pop\n        /* \"#utility.yul\":9836:9838   */\n      0x1f\n        /* \"#utility.yul\":9828:9834   */\n      dup4\n        /* \"#utility.yul\":9825:9839   */\n      gt\n        /* \"#utility.yul\":9853:9854   */\n      0x01\n        /* \"#utility.yul\":9848:10466   */\n      dup2\n      eq\n      tag_270\n      jumpi\n        /* \"#utility.yul\":10510:10511   */\n      0x00\n        /* \"#utility.yul\":10527:10533   */\n      dup5\n        /* \"#utility.yul\":10524:10601   */\n      iszero\n      tag_271\n      jumpi\n        /* \"#utility.yul\":10576:10585   */\n      dup3\n        /* \"#utility.yul\":10571:10574   */\n      dup8\n        /* \"#utility.yul\":10567:10586   */\n      add\n        /* \"#utility.yul\":10561:10587   */\n      mload\n        /* \"#utility.yul\":10552:10587   */\n      swap1\n      pop\n        /* \"#utility.yul\":10524:10601   */\n    tag_271:\n        /* \"#utility.yul\":10627:10694   */\n      tag_272\n        /* \"#utility.yul\":10687:10693   */\n      dup6\n        /* \"#utility.yul\":10680:10685   */\n      dup3\n        /* \"#utility.yul\":10627:10694   */\n      tag_151\n      jump\t// in\n    tag_272:\n        /* \"#utility.yul\":10621:10625   */\n      dup7\n        /* \"#utility.yul\":10614:10695   */\n      sstore\n        /* \"#utility.yul\":10483:10705   */\n      pop\n        /* \"#utility.yul\":9818:10705   */\n      jump(tag_269)\n        /* \"#utility.yul\":9848:10466   */\n    tag_270:\n        /* \"#utility.yul\":9900:9904   */\n      0x1f\n        /* \"#utility.yul\":9896:9905   */\n      not\n        /* \"#utility.yul\":9888:9894   */\n      dup5\n        /* \"#utility.yul\":9884:9906   */\n      and\n        /* \"#utility.yul\":9934:9971   */\n      tag_273\n        /* \"#utility.yul\":9966:9970   */\n      dup7\n        /* \"#utility.yul\":9934:9971   */\n      tag_137\n      jump\t// in\n    tag_273:\n        /* \"#utility.yul\":9993:9994   */\n      0x00\n        /* \"#utility.yul\":10007:10215   */\n    tag_274:\n        /* \"#utility.yul\":10021:10028   */\n      dup3\n        /* \"#utility.yul\":10018:10019   */\n      dup2\n        /* \"#utility.yul\":10015:10029   */\n      lt\n        /* \"#utility.yul\":10007:10215   */\n      iszero\n      tag_276\n      jumpi\n        /* \"#utility.yul\":10100:10109   */\n      dup5\n        /* \"#utility.yul\":10095:10098   */\n      dup10\n        /* \"#utility.yul\":10091:10110   */\n      add\n        /* \"#utility.yul\":10085:10111   */\n      mload\n        /* \"#utility.yul\":10077:10083   */\n      dup3\n        /* \"#utility.yul\":10070:10112   */\n      sstore\n        /* \"#utility.yul\":10151:10152   */\n      0x01\n        /* \"#utility.yul\":10143:10149   */\n      dup3\n        /* \"#utility.yul\":10139:10153   */\n      add\n        /* \"#utility.yul\":10129:10153   */\n      swap2\n      pop\n        /* \"#utility.yul\":10198:10200   */\n      0x20\n        /* \"#utility.yul\":10187:10196   */\n      dup6\n        /* \"#utility.yul\":10183:10201   */\n      add\n        /* \"#utility.yul\":10170:10201   */\n      swap5\n      pop\n        /* \"#utility.yul\":10044:10048   */\n      0x20\n        /* \"#utility.yul\":10041:10042   */\n      dup2\n        /* \"#utility.yul\":10037:10049   */\n      add\n        /* \"#utility.yul\":10032:10049   */\n      swap1\n      pop\n        /* \"#utility.yul\":10007:10215   */\n      jump(tag_274)\n    tag_276:\n        /* \"#utility.yul\":10243:10249   */\n      dup7\n        /* \"#utility.yul\":10234:10241   */\n      dup4\n        /* \"#utility.yul\":10231:10250   */\n      lt\n        /* \"#utility.yul\":10228:10407   */\n      iszero\n      tag_277\n      jumpi\n        /* \"#utility.yul\":10301:10310   */\n      dup5\n        /* \"#utility.yul\":10296:10299   */\n      dup10\n        /* \"#utility.yul\":10292:10311   */\n      add\n        /* \"#utility.yul\":10286:10312   */\n      mload\n        /* \"#utility.yul\":10344:10392   */\n      tag_278\n        /* \"#utility.yul\":10386:10390   */\n      0x1f\n        /* \"#utility.yul\":10378:10384   */\n      dup10\n        /* \"#utility.yul\":10374:10391   */\n      and\n        /* \"#utility.yul\":10363:10372   */\n      dup3\n        /* \"#utility.yul\":10344:10392   */\n      tag_150\n      jump\t// in\n    tag_278:\n        /* \"#utility.yul\":10336:10342   */\n      dup4\n        /* \"#utility.yul\":10329:10393   */\n      sstore\n        /* \"#utility.yul\":10251:10407   */\n      pop\n        /* \"#utility.yul\":10228:10407   */\n    tag_277:\n        /* \"#utility.yul\":10453:10454   */\n      0x01\n        /* \"#utility.yul\":10449:10450   */\n      0x02\n        /* \"#utility.yul\":10441:10447   */\n      dup9\n        /* \"#utility.yul\":10437:10451   */\n      mul\n        /* \"#utility.yul\":10433:10455   */\n      add\n        /* \"#utility.yul\":10427:10431   */\n      dup9\n        /* \"#utility.yul\":10420:10456   */\n      sstore\n        /* \"#utility.yul\":9855:10466   */\n      pop\n      pop\n      pop\n        /* \"#utility.yul\":9818:10705   */\n    tag_269:\n      pop\n        /* \"#utility.yul\":9408:10711   */\n      pop\n      pop\n      pop\n        /* \"#utility.yul\":9316:10711   */\n      pop\n      pop\n      jump\t// out\n        /* \"#utility.yul\":10717:10897   */\n    tag_152:\n        /* \"#utility.yul\":10765:10842   */\n      0x4e487b7100000000000000000000000000000000000000000000000000000000\n        /* \"#utility.yul\":10762:10763   */\n      0x00\n        /* \"#utility.yul\":10755:10843   */\n      mstore\n        /* \"#utility.yul\":10862:10866   */\n      0x12\n        /* \"#utility.yul\":10859:10860   */\n      0x04\n        /* \"#utility.yul\":10852:10867   */\n      mstore\n        /* \"#utility.yul\":10886:10890   */\n      0x24\n        /* \"#utility.yul\":10883:10884   */\n      0x00\n        /* \"#utility.yul\":10876:10891   */\n      revert\n        /* \"#utility.yul\":10903:11083   */\n    tag_153:\n        /* \"#utility.yul\":10951:11028   */\n      0x4e487b7100000000000000000000000000000000000000000000000000000000\n        /* \"#utility.yul\":10948:10949   */\n      0x00\n        /* \"#utility.yul\":10941:11029   */\n      mstore\n        /* \"#utility.yul\":11048:11052   */\n      0x11\n        /* \"#utility.yul\":11045:11046   */\n      0x04\n        /* \"#utility.yul\":11038:11053   */\n      mstore\n        /* \"#utility.yul\":11072:11076   */\n      0x24\n        /* \"#utility.yul\":11069:11070   */\n      0x00\n        /* \"#utility.yul\":11062:11077   */\n      revert\n        /* \"#utility.yul\":11089:11274   */\n    tag_27:\n        /* \"#utility.yul\":11129:11130   */\n      0x00\n        /* \"#utility.yul\":11146:11166   */\n      tag_282\n        /* \"#utility.yul\":11164:11165   */\n      dup3\n        /* \"#utility.yul\":11146:11166   */\n      tag_119\n      jump\t// in\n    tag_282:\n        /* \"#utility.yul\":11141:11166   */\n      swap2\n      pop\n        /* \"#utility.yul\":11180:11200   */\n      tag_283\n        /* \"#utility.yul\":11198:11199   */\n      dup4\n        /* \"#utility.yul\":11180:11200   */\n      tag_119\n      jump\t// in\n    tag_283:\n        /* \"#utility.yul\":11175:11200   */\n      swap3\n      pop\n        /* \"#utility.yul\":11219:11220   */\n      dup3\n        /* \"#utility.yul\":11209:11244   */\n      tag_284\n      jumpi\n        /* \"#utility.yul\":11224:11242   */\n      tag_285\n      tag_152\n      jump\t// in\n    tag_285:\n        /* \"#utility.yul\":11209:11244   */\n    tag_284:\n        /* \"#utility.yul\":11266:11267   */\n      dup3\n        /* \"#utility.yul\":11263:11264   */\n      dup3\n        /* \"#utility.yul\":11259:11268   */\n      div\n        /* \"#utility.yul\":11254:11268   */\n      swap1\n      pop\n        /* \"#utility.yul\":11089:11274   */\n      swap3\n      swap2\n      pop\n      pop\n      jump\t// out\n        /* \"#utility.yul\":11280:11690   */\n    tag_35:\n        /* \"#utility.yul\":11320:11327   */\n      0x00\n        /* \"#utility.yul\":11343:11363   */\n      tag_287\n        /* \"#utility.yul\":11361:11362   */\n      dup3\n        /* \"#utility.yul\":11343:11363   */\n      tag_119\n      jump\t// in\n    tag_287:\n        /* \"#utility.yul\":11338:11363   */\n      swap2\n      pop\n        /* \"#utility.yul\":11377:11397   */\n      tag_288\n        /* \"#utility.yul\":11395:11396   */\n      dup4\n        /* \"#utility.yul\":11377:11397   */\n      tag_119\n      jump\t// in\n    tag_288:\n        /* \"#utility.yul\":11372:11397   */\n      swap3\n      pop\n        /* \"#utility.yul\":11432:11433   */\n      dup3\n        /* \"#utility.yul\":11429:11430   */\n      dup3\n        /* \"#utility.yul\":11425:11434   */\n      mul\n        /* \"#utility.yul\":11454:11484   */\n      tag_289\n        /* \"#utility.yul\":11472:11483   */\n      dup2\n        /* \"#utility.yul\":11454:11484   */\n      tag_119\n      jump\t// in\n    tag_289:\n        /* \"#utility.yul\":11443:11484   */\n      swap2\n      pop\n        /* \"#utility.yul\":11633:11634   */\n      dup3\n        /* \"#utility.yul\":11624:11631   */\n      dup3\n        /* \"#utility.yul\":11620:11635   */\n      div\n        /* \"#utility.yul\":11617:11618   */\n      dup5\n        /* \"#utility.yul\":11614:11636   */\n      eq\n        /* \"#utility.yul\":11594:11595   */\n      dup4\n        /* \"#utility.yul\":11587:11596   */\n      iszero\n        /* \"#utility.yul\":11567:11650   */\n      or\n        /* \"#utility.yul\":11544:11683   */\n      tag_290\n      jumpi\n        /* \"#utility.yul\":11663:11681   */\n      tag_291\n      tag_153\n      jump\t// in\n    tag_291:\n        /* \"#utility.yul\":11544:11683   */\n    tag_290:\n        /* \"#utility.yul\":11328:11690   */\n      pop\n        /* \"#utility.yul\":11280:11690   */\n      swap3\n      swap2\n      pop\n      pop\n      jump\t// out\n        /* \"#utility.yul\":11696:11890   */\n    tag_85:\n        /* \"#utility.yul\":11736:11740   */\n      0x00\n        /* \"#utility.yul\":11756:11776   */\n      tag_293\n        /* \"#utility.yul\":11774:11775   */\n      dup3\n        /* \"#utility.yul\":11756:11776   */\n      tag_119\n      jump\t// in\n    tag_293:\n        /* \"#utility.yul\":11751:11776   */\n      swap2\n      pop\n        /* \"#utility.yul\":11790:11810   */\n      tag_294\n        /* \"#utility.yul\":11808:11809   */\n      dup4\n        /* \"#utility.yul\":11790:11810   */\n      tag_119\n      jump\t// in\n    tag_294:\n        /* \"#utility.yul\":11785:11810   */\n      swap3\n      pop\n        /* \"#utility.yul\":11834:11835   */\n      dup3\n        /* \"#utility.yul\":11831:11832   */\n      dup3\n        /* \"#utility.yul\":11827:11836   */\n      sub\n        /* \"#utility.yul\":11819:11836   */\n      swap1\n      pop\n        /* \"#utility.yul\":11858:11859   */\n      dup2\n        /* \"#utility.yul\":11852:11856   */\n      dup2\n        /* \"#utility.yul\":11849:11860   */\n      gt\n        /* \"#utility.yul\":11846:11883   */\n      iszero\n      tag_295\n      jumpi\n        /* \"#utility.yul\":11863:11881   */\n      tag_296\n      tag_153\n      jump\t// in\n    tag_296:\n        /* \"#utility.yul\":11846:11883   */\n    tag_295:\n        /* \"#utility.yul\":11696:11890   */\n      swap3\n      swap2\n      pop\n      pop\n      jump\t// out\n        /* \"#utility.yul\":11896:12044   */\n    tag_154:\n        /* \"#utility.yul\":11998:12009   */\n      0x00\n        /* \"#utility.yul\":12035:12038   */\n      dup2\n        /* \"#utility.yul\":12020:12038   */\n      swap1\n      pop\n        /* \"#utility.yul\":11896:12044   */\n      swap3\n      swap2\n      pop\n      pop\n      jump\t// out\n        /* \"#utility.yul\":12050:12440   */\n    tag_155:\n        /* \"#utility.yul\":12156:12159   */\n      0x00\n        /* \"#utility.yul\":12184:12223   */\n      tag_299\n        /* \"#utility.yul\":12217:12222   */\n      dup3\n        /* \"#utility.yul\":12184:12223   */\n      tag_122\n      jump\t// in\n    tag_299:\n        /* \"#utility.yul\":12239:12328   */\n      tag_300\n        /* \"#utility.yul\":12321:12327   */\n      dup2\n        /* \"#utility.yul\":12316:12319   */\n      dup6\n        /* \"#utility.yul\":12239:12328   */\n      tag_154\n      jump\t// in\n    tag_300:\n        /* \"#utility.yul\":12232:12328   */\n      swap4\n      pop\n        /* \"#utility.yul\":12337:12402   */\n      tag_301\n        /* \"#utility.yul\":12395:12401   */\n      dup2\n        /* \"#utility.yul\":12390:12393   */\n      dup6\n        /* \"#utility.yul\":12383:12387   */\n      0x20\n        /* \"#utility.yul\":12376:12381   */\n      dup7\n        /* \"#utility.yul\":12372:12388   */\n      add\n        /* \"#utility.yul\":12337:12402   */\n      tag_124\n      jump\t// in\n    tag_301:\n        /* \"#utility.yul\":12427:12433   */\n      dup1\n        /* \"#utility.yul\":12422:12425   */\n      dup5\n        /* \"#utility.yul\":12418:12434   */\n      add\n        /* \"#utility.yul\":12411:12434   */\n      swap2\n      pop\n        /* \"#utility.yul\":12160:12440   */\n      pop\n        /* \"#utility.yul\":12050:12440   */\n      swap3\n      swap2\n      pop\n      pop\n      jump\t// out\n        /* \"#utility.yul\":12446:13201   */\n    tag_107:\n        /* \"#utility.yul\":12722:12725   */\n      0x00\n        /* \"#utility.yul\":12744:12839   */\n      tag_303\n        /* \"#utility.yul\":12835:12838   */\n      dup3\n        /* \"#utility.yul\":12826:12832   */\n      dup8\n        /* \"#utility.yul\":12744:12839   */\n      tag_155\n      jump\t// in\n    tag_303:\n        /* \"#utility.yul\":12737:12839   */\n      swap2\n      pop\n        /* \"#utility.yul\":12856:12951   */\n      tag_304\n        /* \"#utility.yul\":12947:12950   */\n      dup3\n        /* \"#utility.yul\":12938:12944   */\n      dup7\n        /* \"#utility.yul\":12856:12951   */\n      tag_155\n      jump\t// in\n    tag_304:\n        /* \"#utility.yul\":12849:12951   */\n      swap2\n      pop\n        /* \"#utility.yul\":12968:13063   */\n      tag_305\n        /* \"#utility.yul\":13059:13062   */\n      dup3\n        /* \"#utility.yul\":13050:13056   */\n      dup6\n        /* \"#utility.yul\":12968:13063   */\n      tag_155\n      jump\t// in\n    tag_305:\n        /* \"#utility.yul\":12961:13063   */\n      swap2\n      pop\n        /* \"#utility.yul\":13080:13175   */\n      tag_306\n        /* \"#utility.yul\":13171:13174   */\n      dup3\n        /* \"#utility.yul\":13162:13168   */\n      dup5\n        /* \"#utility.yul\":13080:13175   */\n      tag_155\n      jump\t// in\n    tag_306:\n        /* \"#utility.yul\":13073:13175   */\n      swap2\n      pop\n        /* \"#utility.yul\":13192:13195   */\n      dup2\n        /* \"#utility.yul\":13185:13195   */\n      swap1\n      pop\n        /* \"#utility.yul\":12446:13201   */\n      swap6\n      swap5\n      pop\n      pop\n      pop\n      pop\n      pop\n      jump\t// out\n\n    auxdata: 0xa26469706673582212200762b9f08074ece5b32696a7561e22197411acc7b97deb294c1ee2e8db70beb864736f6c634300081e0033\n}\n",
				"bytecode": {
					"linkReferences": {},
					"object": "6080604052348015600e575f5ffd5b50610f9f8061001c5f395ff3fe608060405234801561000f575f5ffd5b506004361061003f575f3560e01c80630cbc513a1461004357806386b714e2146100735780639f91cd1514610091575b5f5ffd5b61005d6004803603810190610058919061086d565b6100c1565b60405161006a9190610908565b60405180910390f35b61007b610547565b6040516100889190610908565b60405180910390f35b6100ab60048036038101906100a69190610a54565b6105d2565b6040516100b89190610908565b60405180910390f35b606060405180602001604052805f8152505f90816100df9190610d25565b505f5f905060605f6103e890505b5f8111156104b55780856101019190610e4e565b9250600183106104a1576009830361015e5761015761011f82610604565b610134600a8461012f9190610e7e565b610604565b60405180602001604052805f81525060405180602001604052805f8152506105d2565b91506103ca565b600883036101a55761019e61017e6005836101799190610e7e565b610604565b61018783610604565b61019084610604565b61019985610604565b6105d2565b91506103c9565b600783036101f2576101eb6101c56005836101c09190610e7e565b610604565b6101ce83610604565b6101d784610604565b60405180602001604052805f8152506105d2565b91506103c8565b600683036102455761023e61021260058361020d9190610e7e565b610604565b61021b83610604565b60405180602001604052805f81525060405180602001604052805f8152506105d2565b91506103c7565b6005830361029e576102976102656005836102609190610e7e565b610604565b60405180602001604052805f81525060405180602001604052805f81525060405180602001604052805f8152506105d2565b91506103c6565b600483036102f1576102ea6102b282610604565b6102c76005846102c29190610e7e565b610604565b60405180602001604052805f81525060405180602001604052805f8152506105d2565b91506103c5565b600383036103325761032b61030582610604565b61030e83610604565b61031784610604565b60405180602001604052805f8152506105d2565b91506103c4565b600283036103795761037261034682610604565b61034f83610604565b60405180602001604052805f81525060405180602001604052805f8152506105d2565b91506103c3565b600183036103c2576103bf61038d82610604565b60405180602001604052805f81525060405180602001604052805f81525060405180602001604052805f8152506105d2565b91505b5b5b5b5b5b5b5b5b82816103d69190610e7e565b856103e19190610ebf565b94506104925f80546103f290610b55565b80601f016020809104026020016040519081016040528092919081815260200182805461041e90610b55565b80156104695780601f1061044057610100808354040283529160200191610469565b820191905f5260205f20905b81548152906001019060200180831161044c57829003601f168201915b50505050508360405180602001604052805f81525060405180602001604052805f8152506105d2565b5f908161049f9190610d25565b505b600a816104ae9190610e4e565b90506100ed565b505f80546104c290610b55565b80601f01602080910402602001604051908101604052809291908181526020018280546104ee90610b55565b80156105395780601f1061051057610100808354040283529160200191610539565b820191905f5260205f20905b81548152906001019060200180831161051c57829003601f168201915b505050505092505050919050565b5f805461055390610b55565b80601f016020809104026020016040519081016040528092919081815260200182805461057f90610b55565b80156105ca5780601f106105a1576101008083540402835291602001916105ca565b820191905f5260205f20905b8154815290600101906020018083116105ad57829003601f168201915b505050505081565b6060848484846040516020016105eb9493929190610f2c565b6040516020818303038152906040529050949350505050565b60606001820361064b576040518060400160405280600181526020017f49000000000000000000000000000000000000000000000000000000000000008152509050610824565b60058203610690576040518060400160405280600181526020017f56000000000000000000000000000000000000000000000000000000000000008152509050610824565b600a82036106d5576040518060400160405280600181526020017f58000000000000000000000000000000000000000000000000000000000000008152509050610824565b6032820361071a576040518060400160405280600181526020017f4c000000000000000000000000000000000000000000000000000000000000008152509050610824565b6064820361075f576040518060400160405280600181526020017f43000000000000000000000000000000000000000000000000000000000000008152509050610824565b6101f482036107a5576040518060400160405280600181526020017f44000000000000000000000000000000000000000000000000000000000000008152509050610824565b6103e882036107eb576040518060400160405280600181526020017f4d000000000000000000000000000000000000000000000000000000000000008152509050610824565b6040518060400160405280600181526020017f460000000000000000000000000000000000000000000000000000000000000081525090505b919050565b5f604051905090565b5f5ffd5b5f5ffd5b5f819050919050565b61084c8161083a565b8114610856575f5ffd5b50565b5f8135905061086781610843565b92915050565b5f6020828403121561088257610881610832565b5b5f61088f84828501610859565b91505092915050565b5f81519050919050565b5f82825260208201905092915050565b8281835e5f83830152505050565b5f601f19601f8301169050919050565b5f6108da82610898565b6108e481856108a2565b93506108f48185602086016108b2565b6108fd816108c0565b840191505092915050565b5f6020820190508181035f83015261092081846108d0565b905092915050565b5f5ffd5b5f5ffd5b7f4e487b71000000000000000000000000000000000000000000000000000000005f52604160045260245ffd5b610966826108c0565b810181811067ffffffffffffffff8211171561098557610984610930565b5b80604052505050565b5f610997610829565b90506109a3828261095d565b919050565b5f67ffffffffffffffff8211156109c2576109c1610930565b5b6109cb826108c0565b9050602081019050919050565b828183375f83830152505050565b5f6109f86109f3846109a8565b61098e565b905082815260208101848484011115610a1457610a1361092c565b5b610a1f8482856109d8565b509392505050565b5f82601f830112610a3b57610a3a610928565b5b8135610a4b8482602086016109e6565b91505092915050565b5f5f5f5f60808587031215610a6c57610a6b610832565b5b5f85013567ffffffffffffffff811115610a8957610a88610836565b5b610a9587828801610a27565b945050602085013567ffffffffffffffff811115610ab657610ab5610836565b5b610ac287828801610a27565b935050604085013567ffffffffffffffff811115610ae357610ae2610836565b5b610aef87828801610a27565b925050606085013567ffffffffffffffff811115610b1057610b0f610836565b5b610b1c87828801610a27565b91505092959194509250565b7f4e487b71000000000000000000000000000000000000000000000000000000005f52602260045260245ffd5b5f6002820490506001821680610b6c57607f821691505b602082108103610b7f57610b7e610b28565b5b50919050565b5f819050815f5260205f209050919050565b5f6020601f8301049050919050565b5f82821b905092915050565b5f60088302610be17fffffffffffffffffffffffffffffffffffffffffffffffffffffffffffffffff82610ba6565b610beb8683610ba6565b95508019841693508086168417925050509392505050565b5f819050919050565b5f610c26610c21610c1c8461083a565b610c03565b61083a565b9050919050565b5f819050919050565b610c3f83610c0c565b610c53610c4b82610c2d565b848454610bb2565b825550505050565b5f5f905090565b610c6a610c5b565b610c75818484610c36565b505050565b5b81811015610c9857610c8d5f82610c62565b600181019050610c7b565b5050565b601f821115610cdd57610cae81610b85565b610cb784610b97565b81016020851015610cc6578190505b610cda610cd285610b97565b830182610c7a565b50505b505050565b5f82821c905092915050565b5f610cfd5f1984600802610ce2565b1980831691505092915050565b5f610d158383610cee565b9150826002028217905092915050565b610d2e82610898565b67ffffffffffffffff811115610d4757610d46610930565b5b610d518254610b55565b610d5c828285610c9c565b5f60209050601f831160018114610d8d575f8415610d7b578287015190505b610d858582610d0a565b865550610dec565b601f198416610d9b86610b85565b5f5b82811015610dc257848901518255600182019150602085019450602081019050610d9d565b86831015610ddf5784890151610ddb601f891682610cee565b8355505b6001600288020188555050505b505050505050565b7f4e487b71000000000000000000000000000000000000000000000000000000005f52601260045260245ffd5b7f4e487b71000000000000000000000000000000000000000000000000000000005f52601160045260245ffd5b5f610e588261083a565b9150610e638361083a565b925082610e7357610e72610df4565b5b828204905092915050565b5f610e888261083a565b9150610e938361083a565b9250828202610ea18161083a565b91508282048414831517610eb857610eb7610e21565b5b5092915050565b5f610ec98261083a565b9150610ed48361083a565b9250828203905081811115610eec57610eeb610e21565b5b92915050565b5f81905092915050565b5f610f0682610898565b610f108185610ef2565b9350610f208185602086016108b2565b80840191505092915050565b5f610f378287610efc565b9150610f438286610efc565b9150610f4f8285610efc565b9150610f5b8284610efc565b91508190509594505050505056fea26469706673582212200762b9f08074ece5b32696a7561e22197411acc7b97deb294c1ee2e8db70beb864736f6c634300081e0033",
					"opcodes": "PUSH1 0x80 PUSH1 0x40 MSTORE CALLVALUE DUP1 ISZERO PUSH1 0xE JUMPI PUSH0 PUSH0 REVERT JUMPDEST POP PUSH2 0xF9F DUP1 PUSH2 0x1C PUSH0 CODECOPY PUSH0 RETURN INVALID PUSH1 0x80 PUSH1 0x40 MSTORE CALLVALUE DUP1 ISZERO PUSH2 0xF JUMPI PUSH0 PUSH0 REVERT JUMPDEST POP PUSH1 0x4 CALLDATASIZE LT PUSH2 0x3F JUMPI PUSH0 CALLDATALOAD PUSH1 0xE0 SHR DUP1 PUSH4 0xCBC513A EQ PUSH2 0x43 JUMPI DUP1 PUSH4 0x86B714E2 EQ PUSH2 0x73 JUMPI DUP1 PUSH4 0x9F91CD15 EQ PUSH2 0x91 JUMPI JUMPDEST PUSH0 PUSH0 REVERT JUMPDEST PUSH2 0x5D PUSH1 0x4 DUP1 CALLDATASIZE SUB DUP2 ADD SWAP1 PUSH2 0x58 SWAP2 SWAP1 PUSH2 0x86D JUMP JUMPDEST PUSH2 0xC1 JUMP JUMPDEST PUSH1 0x40 MLOAD PUSH2 0x6A SWAP2 SWAP1 PUSH2 0x908 JUMP JUMPDEST PUSH1 0x40 MLOAD DUP1 SWAP2 SUB SWAP1 RETURN JUMPDEST PUSH2 0x7B PUSH2 0x547 JUMP JUMPDEST PUSH1 0x40 MLOAD PUSH2 0x88 SWAP2 SWAP1 PUSH2 0x908 JUMP JUMPDEST PUSH1 0x40 MLOAD DUP1 SWAP2 SUB SWAP1 RETURN JUMPDEST PUSH2 0xAB PUSH1 0x4 DUP1 CALLDATASIZE SUB DUP2 ADD SWAP1 PUSH2 0xA6 SWAP2 SWAP1 PUSH2 0xA54 JUMP JUMPDEST PUSH2 0x5D2 JUMP JUMPDEST PUSH1 0x40 MLOAD PUSH2 0xB8 SWAP2 SWAP1 PUSH2 0x908 JUMP JUMPDEST PUSH1 0x40 MLOAD DUP1 SWAP2 SUB SWAP1 RETURN JUMPDEST PUSH1 0x60 PUSH1 0x40 MLOAD DUP1 PUSH1 0x20 ADD PUSH1 0x40 MSTORE DUP1 PUSH0 DUP2 MSTORE POP PUSH0 SWAP1 DUP2 PUSH2 0xDF SWAP2 SWAP1 PUSH2 0xD25 JUMP JUMPDEST POP PUSH0 PUSH0 SWAP1 POP PUSH1 0x60 PUSH0 PUSH2 0x3E8 SWAP1 POP JUMPDEST PUSH0 DUP2 GT ISZERO PUSH2 0x4B5 JUMPI DUP1 DUP6 PUSH2 0x101 SWAP2 SWAP1 PUSH2 0xE4E JUMP JUMPDEST SWAP3 POP PUSH1 0x1 DUP4 LT PUSH2 0x4A1 JUMPI PUSH1 0x9 DUP4 SUB PUSH2 0x15E JUMPI PUSH2 0x157 PUSH2 0x11F DUP3 PUSH2 0x604 JUMP JUMPDEST PUSH2 0x134 PUSH1 0xA DUP5 PUSH2 0x12F SWAP2 SWAP1 PUSH2 0xE7E JUMP JUMPDEST PUSH2 0x604 JUMP JUMPDEST PUSH1 0x40 MLOAD DUP1 PUSH1 0x20 ADD PUSH1 0x40 MSTORE DUP1 PUSH0 DUP2 MSTORE POP PUSH1 0x40 MLOAD DUP1 PUSH1 0x20 ADD PUSH1 0x40 MSTORE DUP1 PUSH0 DUP2 MSTORE POP PUSH2 0x5D2 JUMP JUMPDEST SWAP2 POP PUSH2 0x3CA JUMP JUMPDEST PUSH1 0x8 DUP4 SUB PUSH2 0x1A5 JUMPI PUSH2 0x19E PUSH2 0x17E PUSH1 0x5 DUP4 PUSH2 0x179 SWAP2 SWAP1 PUSH2 0xE7E JUMP JUMPDEST PUSH2 0x604 JUMP JUMPDEST PUSH2 0x187 DUP4 PUSH2 0x604 JUMP JUMPDEST PUSH2 0x190 DUP5 PUSH2 0x604 JUMP JUMPDEST PUSH2 0x199 DUP6 PUSH2 0x604 JUMP JUMPDEST PUSH2 0x5D2 JUMP JUMPDEST SWAP2 POP PUSH2 0x3C9 JUMP JUMPDEST PUSH1 0x7 DUP4 SUB PUSH2 0x1F2 JUMPI PUSH2 0x1EB PUSH2 0x1C5 PUSH1 0x5 DUP4 PUSH2 0x1C0 SWAP2 SWAP1 PUSH2 0xE7E JUMP JUMPDEST PUSH2 0x604 JUMP JUMPDEST PUSH2 0x1CE DUP4 PUSH2 0x604 JUMP JUMPDEST PUSH2 0x1D7 DUP5 PUSH2 0x604 JUMP JUMPDEST PUSH1 0x40 MLOAD DUP1 PUSH1 0x20 ADD PUSH1 0x40 MSTORE DUP1 PUSH0 DUP2 MSTORE POP PUSH2 0x5D2 JUMP JUMPDEST SWAP2 POP PUSH2 0x3C8 JUMP JUMPDEST PUSH1 0x6 DUP4 SUB PUSH2 0x245 JUMPI PUSH2 0x23E PUSH2 0x212 PUSH1 0x5 DUP4 PUSH2 0x20D SWAP2 SWAP1 PUSH2 0xE7E JUMP JUMPDEST PUSH2 0x604 JUMP JUMPDEST PUSH2 0x21B DUP4 PUSH2 0x604 JUMP JUMPDEST PUSH1 0x40 MLOAD DUP1 PUSH1 0x20 ADD PUSH1 0x40 MSTORE DUP1 PUSH0 DUP2 MSTORE POP PUSH1 0x40 MLOAD DUP1 PUSH1 0x20 ADD PUSH1 0x40 MSTORE DUP1 PUSH0 DUP2 MSTORE POP PUSH2 0x5D2 JUMP JUMPDEST SWAP2 POP PUSH2 0x3C7 JUMP JUMPDEST PUSH1 0x5 DUP4 SUB PUSH2 0x29E JUMPI PUSH2 0x297 PUSH2 0x265 PUSH1 0x5 DUP4 PUSH2 0x260 SWAP2 SWAP1 PUSH2 0xE7E JUMP JUMPDEST PUSH2 0x604 JUMP JUMPDEST PUSH1 0x40 MLOAD DUP1 PUSH1 0x20 ADD PUSH1 0x40 MSTORE DUP1 PUSH0 DUP2 MSTORE POP PUSH1 0x40 MLOAD DUP1 PUSH1 0x20 ADD PUSH1 0x40 MSTORE DUP1 PUSH0 DUP2 MSTORE POP PUSH1 0x40 MLOAD DUP1 PUSH1 0x20 ADD PUSH1 0x40 MSTORE DUP1 PUSH0 DUP2 MSTORE POP PUSH2 0x5D2 JUMP JUMPDEST SWAP2 POP PUSH2 0x3C6 JUMP JUMPDEST PUSH1 0x4 DUP4 SUB PUSH2 0x2F1 JUMPI PUSH2 0x2EA PUSH2 0x2B2 DUP3 PUSH2 0x604 JUMP JUMPDEST PUSH2 0x2C7 PUSH1 0x5 DUP5 PUSH2 0x2C2 SWAP2 SWAP1 PUSH2 0xE7E JUMP JUMPDEST PUSH2 0x604 JUMP JUMPDEST PUSH1 0x40 MLOAD DUP1 PUSH1 0x20 ADD PUSH1 0x40 MSTORE DUP1 PUSH0 DUP2 MSTORE POP PUSH1 0x40 MLOAD DUP1 PUSH1 0x20 ADD PUSH1 0x40 MSTORE DUP1 PUSH0 DUP2 MSTORE POP PUSH2 0x5D2 JUMP JUMPDEST SWAP2 POP PUSH2 0x3C5 JUMP JUMPDEST PUSH1 0x3 DUP4 SUB PUSH2 0x332 JUMPI PUSH2 0x32B PUSH2 0x305 DUP3 PUSH2 0x604 JUMP JUMPDEST PUSH2 0x30E DUP4 PUSH2 0x604 JUMP JUMPDEST PUSH2 0x317 DUP5 PUSH2 0x604 JUMP JUMPDEST PUSH1 0x40 MLOAD DUP1 PUSH1 0x20 ADD PUSH1 0x40 MSTORE DUP1 PUSH0 DUP2 MSTORE POP PUSH2 0x5D2 JUMP JUMPDEST SWAP2 POP PUSH2 0x3C4 JUMP JUMPDEST PUSH1 0x2 DUP4 SUB PUSH2 0x379 JUMPI PUSH2 0x372 PUSH2 0x346 DUP3 PUSH2 0x604 JUMP JUMPDEST PUSH2 0x34F DUP4 PUSH2 0x604 JUMP JUMPDEST PUSH1 0x40 MLOAD DUP1 PUSH1 0x20 ADD PUSH1 0x40 MSTORE DUP1 PUSH0 DUP2 MSTORE POP PUSH1 0x40 MLOAD DUP1 PUSH1 0x20 ADD PUSH1 0x40 MSTORE DUP1 PUSH0 DUP2 MSTORE POP PUSH2 0x5D2 JUMP JUMPDEST SWAP2 POP PUSH2 0x3C3 JUMP JUMPDEST PUSH1 0x1 DUP4 SUB PUSH2 0x3C2 JUMPI PUSH2 0x3BF PUSH2 0x38D DUP3 PUSH2 0x604 JUMP JUMPDEST PUSH1 0x40 MLOAD DUP1 PUSH1 0x20 ADD PUSH1 0x40 MSTORE DUP1 PUSH0 DUP2 MSTORE POP PUSH1 0x40 MLOAD DUP1 PUSH1 0x20 ADD PUSH1 0x40 MSTORE DUP1 PUSH0 DUP2 MSTORE POP PUSH1 0x40 MLOAD DUP1 PUSH1 0x20 ADD PUSH1 0x40 MSTORE DUP1 PUSH0 DUP2 MSTORE POP PUSH2 0x5D2 JUMP JUMPDEST SWAP2 POP JUMPDEST JUMPDEST JUMPDEST JUMPDEST JUMPDEST JUMPDEST JUMPDEST JUMPDEST JUMPDEST DUP3 DUP2 PUSH2 0x3D6 SWAP2 SWAP1 PUSH2 0xE7E JUMP JUMPDEST DUP6 PUSH2 0x3E1 SWAP2 SWAP1 PUSH2 0xEBF JUMP JUMPDEST SWAP5 POP PUSH2 0x492 PUSH0 DUP1 SLOAD PUSH2 0x3F2 SWAP1 PUSH2 0xB55 JUMP JUMPDEST DUP1 PUSH1 0x1F ADD PUSH1 0x20 DUP1 SWAP2 DIV MUL PUSH1 0x20 ADD PUSH1 0x40 MLOAD SWAP1 DUP2 ADD PUSH1 0x40 MSTORE DUP1 SWAP3 SWAP2 SWAP1 DUP2 DUP2 MSTORE PUSH1 0x20 ADD DUP3 DUP1 SLOAD PUSH2 0x41E SWAP1 PUSH2 0xB55 JUMP JUMPDEST DUP1 ISZERO PUSH2 0x469 JUMPI DUP1 PUSH1 0x1F LT PUSH2 0x440 JUMPI PUSH2 0x100 DUP1 DUP4 SLOAD DIV MUL DUP4 MSTORE SWAP2 PUSH1 0x20 ADD SWAP2 PUSH2 0x469 JUMP JUMPDEST DUP3 ADD SWAP2 SWAP1 PUSH0 MSTORE PUSH1 0x20 PUSH0 KECCAK256 SWAP1 JUMPDEST DUP2 SLOAD DUP2 MSTORE SWAP1 PUSH1 0x1 ADD SWAP1 PUSH1 0x20 ADD DUP1 DUP4 GT PUSH2 0x44C JUMPI DUP3 SWAP1 SUB PUSH1 0x1F AND DUP3 ADD SWAP2 JUMPDEST POP POP POP POP POP DUP4 PUSH1 0x40 MLOAD DUP1 PUSH1 0x20 ADD PUSH1 0x40 MSTORE DUP1 PUSH0 DUP2 MSTORE POP PUSH1 0x40 MLOAD DUP1 PUSH1 0x20 ADD PUSH1 0x40 MSTORE DUP1 PUSH0 DUP2 MSTORE POP PUSH2 0x5D2 JUMP JUMPDEST PUSH0 SWAP1 DUP2 PUSH2 0x49F SWAP2 SWAP1 PUSH2 0xD25 JUMP JUMPDEST POP JUMPDEST PUSH1 0xA DUP2 PUSH2 0x4AE SWAP2 SWAP1 PUSH2 0xE4E JUMP JUMPDEST SWAP1 POP PUSH2 0xED JUMP JUMPDEST POP PUSH0 DUP1 SLOAD PUSH2 0x4C2 SWAP1 PUSH2 0xB55 JUMP JUMPDEST DUP1 PUSH1 0x1F ADD PUSH1 0x20 DUP1 SWAP2 DIV MUL PUSH1 0x20 ADD PUSH1 0x40 MLOAD SWAP1 DUP2 ADD PUSH1 0x40 MSTORE DUP1 SWAP3 SWAP2 SWAP1 DUP2 DUP2 MSTORE PUSH1 0x20 ADD DUP3 DUP1 SLOAD PUSH2 0x4EE SWAP1 PUSH2 0xB55 JUMP JUMPDEST DUP1 ISZERO PUSH2 0x539 JUMPI DUP1 PUSH1 0x1F LT PUSH2 0x510 JUMPI PUSH2 0x100 DUP1 DUP4 SLOAD DIV MUL DUP4 MSTORE SWAP2 PUSH1 0x20 ADD SWAP2 PUSH2 0x539 JUMP JUMPDEST DUP3 ADD SWAP2 SWAP1 PUSH0 MSTORE PUSH1 0x20 PUSH0 KECCAK256 SWAP1 JUMPDEST DUP2 SLOAD DUP2 MSTORE SWAP1 PUSH1 0x1 ADD SWAP1 PUSH1 0x20 ADD DUP1 DUP4 GT PUSH2 0x51C JUMPI DUP3 SWAP1 SUB PUSH1 0x1F AND DUP3 ADD SWAP2 JUMPDEST POP POP POP POP POP SWAP3 POP POP POP SWAP2 SWAP1 POP JUMP JUMPDEST PUSH0 DUP1 SLOAD PUSH2 0x553 SWAP1 PUSH2 0xB55 JUMP JUMPDEST DUP1 PUSH1 0x1F ADD PUSH1 0x20 DUP1 SWAP2 DIV MUL PUSH1 0x20 ADD PUSH1 0x40 MLOAD SWAP1 DUP2 ADD PUSH1 0x40 MSTORE DUP1 SWAP3 SWAP2 SWAP1 DUP2 DUP2 MSTORE PUSH1 0x20 ADD DUP3 DUP1 SLOAD PUSH2 0x57F SWAP1 PUSH2 0xB55 JUMP JUMPDEST DUP1 ISZERO PUSH2 0x5CA JUMPI DUP1 PUSH1 0x1F LT PUSH2 0x5A1 JUMPI PUSH2 0x100 DUP1 DUP4 SLOAD DIV MUL DUP4 MSTORE SWAP2 PUSH1 0x20 ADD SWAP2 PUSH2 0x5CA JUMP JUMPDEST DUP3 ADD SWAP2 SWAP1 PUSH0 MSTORE PUSH1 0x20 PUSH0 KECCAK256 SWAP1 JUMPDEST DUP2 SLOAD DUP2 MSTORE SWAP1 PUSH1 0x1 ADD SWAP1 PUSH1 0x20 ADD DUP1 DUP4 GT PUSH2 0x5AD JUMPI DUP3 SWAP1 SUB PUSH1 0x1F AND DUP3 ADD SWAP2 JUMPDEST POP POP POP POP POP DUP2 JUMP JUMPDEST PUSH1 0x60 DUP5 DUP5 DUP5 DUP5 PUSH1 0x40 MLOAD PUSH1 0x20 ADD PUSH2 0x5EB SWAP5 SWAP4 SWAP3 SWAP2 SWAP1 PUSH2 0xF2C JUMP JUMPDEST PUSH1 0x40 MLOAD PUSH1 0x20 DUP2 DUP4 SUB SUB DUP2 MSTORE SWAP1 PUSH1 0x40 MSTORE SWAP1 POP SWAP5 SWAP4 POP POP POP POP JUMP JUMPDEST PUSH1 0x60 PUSH1 0x1 DUP3 SUB PUSH2 0x64B JUMPI PUSH1 0x40 MLOAD DUP1 PUSH1 0x40 ADD PUSH1 0x40 MSTORE DUP1 PUSH1 0x1 DUP2 MSTORE PUSH1 0x20 ADD PUSH32 0x4900000000000000000000000000000000000000000000000000000000000000 DUP2 MSTORE POP SWAP1 POP PUSH2 0x824 JUMP JUMPDEST PUSH1 0x5 DUP3 SUB PUSH2 0x690 JUMPI PUSH1 0x40 MLOAD DUP1 PUSH1 0x40 ADD PUSH1 0x40 MSTORE DUP1 PUSH1 0x1 DUP2 MSTORE PUSH1 0x20 ADD PUSH32 0x5600000000000000000000000000000000000000000000000000000000000000 DUP2 MSTORE POP SWAP1 POP PUSH2 0x824 JUMP JUMPDEST PUSH1 0xA DUP3 SUB PUSH2 0x6D5 JUMPI PUSH1 0x40 MLOAD DUP1 PUSH1 0x40 ADD PUSH1 0x40 MSTORE DUP1 PUSH1 0x1 DUP2 MSTORE PUSH1 0x20 ADD PUSH32 0x5800000000000000000000000000000000000000000000000000000000000000 DUP2 MSTORE POP SWAP1 POP PUSH2 0x824 JUMP JUMPDEST PUSH1 0x32 DUP3 SUB PUSH2 0x71A JUMPI PUSH1 0x40 MLOAD DUP1 PUSH1 0x40 ADD PUSH1 0x40 MSTORE DUP1 PUSH1 0x1 DUP2 MSTORE PUSH1 0x20 ADD PUSH32 0x4C00000000000000000000000000000000000000000000000000000000000000 DUP2 MSTORE POP SWAP1 POP PUSH2 0x824 JUMP JUMPDEST PUSH1 0x64 DUP3 SUB PUSH2 0x75F JUMPI PUSH1 0x40 MLOAD DUP1 PUSH1 0x40 ADD PUSH1 0x40 MSTORE DUP1 PUSH1 0x1 DUP2 MSTORE PUSH1 0x20 ADD PUSH32 0x4300000000000000000000000000000000000000000000000000000000000000 DUP2 MSTORE POP SWAP1 POP PUSH2 0x824 JUMP JUMPDEST PUSH2 0x1F4 DUP3 SUB PUSH2 0x7A5 JUMPI PUSH1 0x40 MLOAD DUP1 PUSH1 0x40 ADD PUSH1 0x40 MSTORE DUP1 PUSH1 0x1 DUP2 MSTORE PUSH1 0x20 ADD PUSH32 0x4400000000000000000000000000000000000000000000000000000000000000 DUP2 MSTORE POP SWAP1 POP PUSH2 0x824 JUMP JUMPDEST PUSH2 0x3E8 DUP3 SUB PUSH2 0x7EB JUMPI PUSH1 0x40 MLOAD DUP1 PUSH1 0x40 ADD PUSH1 0x40 MSTORE DUP1 PUSH1 0x1 DUP2 MSTORE PUSH1 0x20 ADD PUSH32 0x4D00000000000000000000000000000000000000000000000000000000000000 DUP2 MSTORE POP SWAP1 POP PUSH2 0x824 JUMP JUMPDEST PUSH1 0x40 MLOAD DUP1 PUSH1 0x40 ADD PUSH1 0x40 MSTORE DUP1 PUSH1 0x1 DUP2 MSTORE PUSH1 0x20 ADD PUSH32 0x4600000000000000000000000000000000000000000000000000000000000000 DUP2 MSTORE POP SWAP1 POP JUMPDEST SWAP2 SWAP1 POP JUMP JUMPDEST PUSH0 PUSH1 0x40 MLOAD SWAP1 POP SWAP1 JUMP JUMPDEST PUSH0 PUSH0 REVERT JUMPDEST PUSH0 PUSH0 REVERT JUMPDEST PUSH0 DUP2 SWAP1 POP SWAP2 SWAP1 POP JUMP JUMPDEST PUSH2 0x84C DUP2 PUSH2 0x83A JUMP JUMPDEST DUP2 EQ PUSH2 0x856 JUMPI PUSH0 PUSH0 REVERT JUMPDEST POP JUMP JUMPDEST PUSH0 DUP2 CALLDATALOAD SWAP1 POP PUSH2 0x867 DUP2 PUSH2 0x843 JUMP JUMPDEST SWAP3 SWAP2 POP POP JUMP JUMPDEST PUSH0 PUSH1 0x20 DUP3 DUP5 SUB SLT ISZERO PUSH2 0x882 JUMPI PUSH2 0x881 PUSH2 0x832 JUMP JUMPDEST JUMPDEST PUSH0 PUSH2 0x88F DUP5 DUP3 DUP6 ADD PUSH2 0x859 JUMP JUMPDEST SWAP2 POP POP SWAP3 SWAP2 POP POP JUMP JUMPDEST PUSH0 DUP2 MLOAD SWAP1 POP SWAP2 SWAP1 POP JUMP JUMPDEST PUSH0 DUP3 DUP3 MSTORE PUSH1 0x20 DUP3 ADD SWAP1 POP SWAP3 SWAP2 POP POP JUMP JUMPDEST DUP3 DUP2 DUP4 MCOPY PUSH0 DUP4 DUP4 ADD MSTORE POP POP POP JUMP JUMPDEST PUSH0 PUSH1 0x1F NOT PUSH1 0x1F DUP4 ADD AND SWAP1 POP SWAP2 SWAP1 POP JUMP JUMPDEST PUSH0 PUSH2 0x8DA DUP3 PUSH2 0x898 JUMP JUMPDEST PUSH2 0x8E4 DUP2 DUP6 PUSH2 0x8A2 JUMP JUMPDEST SWAP4 POP PUSH2 0x8F4 DUP2 DUP6 PUSH1 0x20 DUP7 ADD PUSH2 0x8B2 JUMP JUMPDEST PUSH2 0x8FD DUP2 PUSH2 0x8C0 JUMP JUMPDEST DUP5 ADD SWAP2 POP POP SWAP3 SWAP2 POP POP JUMP JUMPDEST PUSH0 PUSH1 0x20 DUP3 ADD SWAP1 POP DUP2 DUP2 SUB PUSH0 DUP4 ADD MSTORE PUSH2 0x920 DUP2 DUP5 PUSH2 0x8D0 JUMP JUMPDEST SWAP1 POP SWAP3 SWAP2 POP POP JUMP JUMPDEST PUSH0 PUSH0 REVERT JUMPDEST PUSH0 PUSH0 REVERT JUMPDEST PUSH32 0x4E487B7100000000000000000000000000000000000000000000000000000000 PUSH0 MSTORE PUSH1 0x41 PUSH1 0x4 MSTORE PUSH1 0x24 PUSH0 REVERT JUMPDEST PUSH2 0x966 DUP3 PUSH2 0x8C0 JUMP JUMPDEST DUP2 ADD DUP2 DUP2 LT PUSH8 0xFFFFFFFFFFFFFFFF DUP3 GT OR ISZERO PUSH2 0x985 JUMPI PUSH2 0x984 PUSH2 0x930 JUMP JUMPDEST JUMPDEST DUP1 PUSH1 0x40 MSTORE POP POP POP JUMP JUMPDEST PUSH0 PUSH2 0x997 PUSH2 0x829 JUMP JUMPDEST SWAP1 POP PUSH2 0x9A3 DUP3 DUP3 PUSH2 0x95D JUMP JUMPDEST SWAP2 SWAP1 POP JUMP JUMPDEST PUSH0 PUSH8 0xFFFFFFFFFFFFFFFF DUP3 GT ISZERO PUSH2 0x9C2 JUMPI PUSH2 0x9C1 PUSH2 0x930 JUMP JUMPDEST JUMPDEST PUSH2 0x9CB DUP3 PUSH2 0x8C0 JUMP JUMPDEST SWAP1 POP PUSH1 0x20 DUP2 ADD SWAP1 POP SWAP2 SWAP1 POP JUMP JUMPDEST DUP3 DUP2 DUP4 CALLDATACOPY PUSH0 DUP4 DUP4 ADD MSTORE POP POP POP JUMP JUMPDEST PUSH0 PUSH2 0x9F8 PUSH2 0x9F3 DUP5 PUSH2 0x9A8 JUMP JUMPDEST PUSH2 0x98E JUMP JUMPDEST SWAP1 POP DUP3 DUP2 MSTORE PUSH1 0x20 DUP2 ADD DUP5 DUP5 DUP5 ADD GT ISZERO PUSH2 0xA14 JUMPI PUSH2 0xA13 PUSH2 0x92C JUMP JUMPDEST JUMPDEST PUSH2 0xA1F DUP5 DUP3 DUP6 PUSH2 0x9D8 JUMP JUMPDEST POP SWAP4 SWAP3 POP POP POP JUMP JUMPDEST PUSH0 DUP3 PUSH1 0x1F DUP4 ADD SLT PUSH2 0xA3B JUMPI PUSH2 0xA3A PUSH2 0x928 JUMP JUMPDEST JUMPDEST DUP2 CALLDATALOAD PUSH2 0xA4B DUP5 DUP3 PUSH1 0x20 DUP7 ADD PUSH2 0x9E6 JUMP JUMPDEST SWAP2 POP POP SWAP3 SWAP2 POP POP JUMP JUMPDEST PUSH0 PUSH0 PUSH0 PUSH0 PUSH1 0x80 DUP6 DUP8 SUB SLT ISZERO PUSH2 0xA6C JUMPI PUSH2 0xA6B PUSH2 0x832 JUMP JUMPDEST JUMPDEST PUSH0 DUP6 ADD CALLDATALOAD PUSH8 0xFFFFFFFFFFFFFFFF DUP2 GT ISZERO PUSH2 0xA89 JUMPI PUSH2 0xA88 PUSH2 0x836 JUMP JUMPDEST JUMPDEST PUSH2 0xA95 DUP8 DUP3 DUP9 ADD PUSH2 0xA27 JUMP JUMPDEST SWAP5 POP POP PUSH1 0x20 DUP6 ADD CALLDATALOAD PUSH8 0xFFFFFFFFFFFFFFFF DUP2 GT ISZERO PUSH2 0xAB6 JUMPI PUSH2 0xAB5 PUSH2 0x836 JUMP JUMPDEST JUMPDEST PUSH2 0xAC2 DUP8 DUP3 DUP9 ADD PUSH2 0xA27 JUMP JUMPDEST SWAP4 POP POP PUSH1 0x40 DUP6 ADD CALLDATALOAD PUSH8 0xFFFFFFFFFFFFFFFF DUP2 GT ISZERO PUSH2 0xAE3 JUMPI PUSH2 0xAE2 PUSH2 0x836 JUMP JUMPDEST JUMPDEST PUSH2 0xAEF DUP8 DUP3 DUP9 ADD PUSH2 0xA27 JUMP JUMPDEST SWAP3 POP POP PUSH1 0x60 DUP6 ADD CALLDATALOAD PUSH8 0xFFFFFFFFFFFFFFFF DUP2 GT ISZERO PUSH2 0xB10 JUMPI PUSH2 0xB0F PUSH2 0x836 JUMP JUMPDEST JUMPDEST PUSH2 0xB1C DUP8 DUP3 DUP9 ADD PUSH2 0xA27 JUMP JUMPDEST SWAP2 POP POP SWAP3 SWAP6 SWAP2 SWAP5 POP SWAP3 POP JUMP JUMPDEST PUSH32 0x4E487B7100000000000000000000000000000000000000000000000000000000 PUSH0 MSTORE PUSH1 0x22 PUSH1 0x4 MSTORE PUSH1 0x24 PUSH0 REVERT JUMPDEST PUSH0 PUSH1 0x2 DUP3 DIV SWAP1 POP PUSH1 0x1 DUP3 AND DUP1 PUSH2 0xB6C JUMPI PUSH1 0x7F DUP3 AND SWAP2 POP JUMPDEST PUSH1 0x20 DUP3 LT DUP2 SUB PUSH2 0xB7F JUMPI PUSH2 0xB7E PUSH2 0xB28 JUMP JUMPDEST JUMPDEST POP SWAP2 SWAP1 POP JUMP JUMPDEST PUSH0 DUP2 SWAP1 POP DUP2 PUSH0 MSTORE PUSH1 0x20 PUSH0 KECCAK256 SWAP1 POP SWAP2 SWAP1 POP JUMP JUMPDEST PUSH0 PUSH1 0x20 PUSH1 0x1F DUP4 ADD DIV SWAP1 POP SWAP2 SWAP1 POP JUMP JUMPDEST PUSH0 DUP3 DUP3 SHL SWAP1 POP SWAP3 SWAP2 POP POP JUMP JUMPDEST PUSH0 PUSH1 0x8 DUP4 MUL PUSH2 0xBE1 PUSH32 0xFFFFFFFFFFFFFFFFFFFFFFFFFFFFFFFFFFFFFFFFFFFFFFFFFFFFFFFFFFFFFFFF DUP3 PUSH2 0xBA6 JUMP JUMPDEST PUSH2 0xBEB DUP7 DUP4 PUSH2 0xBA6 JUMP JUMPDEST SWAP6 POP DUP1 NOT DUP5 AND SWAP4 POP DUP1 DUP7 AND DUP5 OR SWAP3 POP POP POP SWAP4 SWAP3 POP POP POP JUMP JUMPDEST PUSH0 DUP2 SWAP1 POP SWAP2 SWAP1 POP JUMP JUMPDEST PUSH0 PUSH2 0xC26 PUSH2 0xC21 PUSH2 0xC1C DUP5 PUSH2 0x83A JUMP JUMPDEST PUSH2 0xC03 JUMP JUMPDEST PUSH2 0x83A JUMP JUMPDEST SWAP1 POP SWAP2 SWAP1 POP JUMP JUMPDEST PUSH0 DUP2 SWAP1 POP SWAP2 SWAP1 POP JUMP JUMPDEST PUSH2 0xC3F DUP4 PUSH2 0xC0C JUMP JUMPDEST PUSH2 0xC53 PUSH2 0xC4B DUP3 PUSH2 0xC2D JUMP JUMPDEST DUP5 DUP5 SLOAD PUSH2 0xBB2 JUMP JUMPDEST DUP3 SSTORE POP POP POP POP JUMP JUMPDEST PUSH0 PUSH0 SWAP1 POP SWAP1 JUMP JUMPDEST PUSH2 0xC6A PUSH2 0xC5B JUMP JUMPDEST PUSH2 0xC75 DUP2 DUP5 DUP5 PUSH2 0xC36 JUMP JUMPDEST POP POP POP JUMP JUMPDEST JUMPDEST DUP2 DUP2 LT ISZERO PUSH2 0xC98 JUMPI PUSH2 0xC8D PUSH0 DUP3 PUSH2 0xC62 JUMP JUMPDEST PUSH1 0x1 DUP2 ADD SWAP1 POP PUSH2 0xC7B JUMP JUMPDEST POP POP JUMP JUMPDEST PUSH1 0x1F DUP3 GT ISZERO PUSH2 0xCDD JUMPI PUSH2 0xCAE DUP2 PUSH2 0xB85 JUMP JUMPDEST PUSH2 0xCB7 DUP5 PUSH2 0xB97 JUMP JUMPDEST DUP2 ADD PUSH1 0x20 DUP6 LT ISZERO PUSH2 0xCC6 JUMPI DUP2 SWAP1 POP JUMPDEST PUSH2 0xCDA PUSH2 0xCD2 DUP6 PUSH2 0xB97 JUMP JUMPDEST DUP4 ADD DUP3 PUSH2 0xC7A JUMP JUMPDEST POP POP JUMPDEST POP POP POP JUMP JUMPDEST PUSH0 DUP3 DUP3 SHR SWAP1 POP SWAP3 SWAP2 POP POP JUMP JUMPDEST PUSH0 PUSH2 0xCFD PUSH0 NOT DUP5 PUSH1 0x8 MUL PUSH2 0xCE2 JUMP JUMPDEST NOT DUP1 DUP4 AND SWAP2 POP POP SWAP3 SWAP2 POP POP JUMP JUMPDEST PUSH0 PUSH2 0xD15 DUP4 DUP4 PUSH2 0xCEE JUMP JUMPDEST SWAP2 POP DUP3 PUSH1 0x2 MUL DUP3 OR SWAP1 POP SWAP3 SWAP2 POP POP JUMP JUMPDEST PUSH2 0xD2E DUP3 PUSH2 0x898 JUMP JUMPDEST PUSH8 0xFFFFFFFFFFFFFFFF DUP2 GT ISZERO PUSH2 0xD47 JUMPI PUSH2 0xD46 PUSH2 0x930 JUMP JUMPDEST JUMPDEST PUSH2 0xD51 DUP3 SLOAD PUSH2 0xB55 JUMP JUMPDEST PUSH2 0xD5C DUP3 DUP3 DUP6 PUSH2 0xC9C JUMP JUMPDEST PUSH0 PUSH1 0x20 SWAP1 POP PUSH1 0x1F DUP4 GT PUSH1 0x1 DUP2 EQ PUSH2 0xD8D JUMPI PUSH0 DUP5 ISZERO PUSH2 0xD7B JUMPI DUP3 DUP8 ADD MLOAD SWAP1 POP JUMPDEST PUSH2 0xD85 DUP6 DUP3 PUSH2 0xD0A JUMP JUMPDEST DUP7 SSTORE POP PUSH2 0xDEC JUMP JUMPDEST PUSH1 0x1F NOT DUP5 AND PUSH2 0xD9B DUP7 PUSH2 0xB85 JUMP JUMPDEST PUSH0 JUMPDEST DUP3 DUP2 LT ISZERO PUSH2 0xDC2 JUMPI DUP5 DUP10 ADD MLOAD DUP3 SSTORE PUSH1 0x1 DUP3 ADD SWAP2 POP PUSH1 0x20 DUP6 ADD SWAP5 POP PUSH1 0x20 DUP2 ADD SWAP1 POP PUSH2 0xD9D JUMP JUMPDEST DUP7 DUP4 LT ISZERO PUSH2 0xDDF JUMPI DUP5 DUP10 ADD MLOAD PUSH2 0xDDB PUSH1 0x1F DUP10 AND DUP3 PUSH2 0xCEE JUMP JUMPDEST DUP4 SSTORE POP JUMPDEST PUSH1 0x1 PUSH1 0x2 DUP9 MUL ADD DUP9 SSTORE POP POP POP JUMPDEST POP POP POP POP POP POP JUMP JUMPDEST PUSH32 0x4E487B7100000000000000000000000000000000000000000000000000000000 PUSH0 MSTORE PUSH1 0x12 PUSH1 0x4 MSTORE PUSH1 0x24 PUSH0 REVERT JUMPDEST PUSH32 0x4E487B7100000000000000000000000000000000000000000000000000000000 PUSH0 MSTORE PUSH1 0x11 PUSH1 0x4 MSTORE PUSH1 0x24 PUSH0 REVERT JUMPDEST PUSH0 PUSH2 0xE58 DUP3 PUSH2 0x83A JUMP JUMPDEST SWAP2 POP PUSH2 0xE63 DUP4 PUSH2 0x83A JUMP JUMPDEST SWAP3 POP DUP3 PUSH2 0xE73 JUMPI PUSH2 0xE72 PUSH2 0xDF4 JUMP JUMPDEST JUMPDEST DUP3 DUP3 DIV SWAP1 POP SWAP3 SWAP2 POP POP JUMP JUMPDEST PUSH0 PUSH2 0xE88 DUP3 PUSH2 0x83A JUMP JUMPDEST SWAP2 POP PUSH2 0xE93 DUP4 PUSH2 0x83A JUMP JUMPDEST SWAP3 POP DUP3 DUP3 MUL PUSH2 0xEA1 DUP2 PUSH2 0x83A JUMP JUMPDEST SWAP2 POP DUP3 DUP3 DIV DUP5 EQ DUP4 ISZERO OR PUSH2 0xEB8 JUMPI PUSH2 0xEB7 PUSH2 0xE21 JUMP JUMPDEST JUMPDEST POP SWAP3 SWAP2 POP POP JUMP JUMPDEST PUSH0 PUSH2 0xEC9 DUP3 PUSH2 0x83A JUMP JUMPDEST SWAP2 POP PUSH2 0xED4 DUP4 PUSH2 0x83A JUMP JUMPDEST SWAP3 POP DUP3 DUP3 SUB SWAP1 POP DUP2 DUP2 GT ISZERO PUSH2 0xEEC JUMPI PUSH2 0xEEB PUSH2 0xE21 JUMP JUMPDEST JUMPDEST SWAP3 SWAP2 POP POP JUMP JUMPDEST PUSH0 DUP2 SWAP1 POP SWAP3 SWAP2 POP POP JUMP JUMPDEST PUSH0 PUSH2 0xF06 DUP3 PUSH2 0x898 JUMP JUMPDEST PUSH2 0xF10 DUP2 DUP6 PUSH2 0xEF2 JUMP JUMPDEST SWAP4 POP PUSH2 0xF20 DUP2 DUP6 PUSH1 0x20 DUP7 ADD PUSH2 0x8B2 JUMP JUMPDEST DUP1 DUP5 ADD SWAP2 POP POP SWAP3 SWAP2 POP POP JUMP JUMPDEST PUSH0 PUSH2 0xF37 DUP3 DUP8 PUSH2 0xEFC JUMP JUMPDEST SWAP2 POP PUSH2 0xF43 DUP3 DUP7 PUSH2 0xEFC JUMP JUMPDEST SWAP2 POP PUSH2 0xF4F DUP3 DUP6 PUSH2 0xEFC JUMP JUMPDEST SWAP2 POP PUSH2 0xF5B DUP3 DUP5 PUSH2 0xEFC JUMP JUMPDEST SWAP2 POP DUP2 SWAP1 POP SWAP6 SWAP5 POP POP POP POP POP JUMP INVALID LOG2 PUSH5 0x6970667358 0x22 SLT KECCAK256 SMOD PUSH3 0xB9F080 PUSH21 0xECE5B32696A7561E22197411ACC7B97DEB294C1EE2 0xE8 0xDB PUSH17 0xBEB864736F6C634300081E003300000000 "
				},
				"gasEstimates": {
					"creation": {
						"codeDepositCost": "799800",
						"executionCost": "829",
						"totalCost": "800629"
					},
					"external": {
						"concatStrings(string,string,string,string)": "infinite",
						"intToRoman(uint256)": "infinite",
						"s()": "infinite"
					},
					"internal": {
						"_string(uint256)": "infinite"
					}
				},
				"methodIdentifiers": {
					"concatStrings(string,string,string,string)": "9f91cd15",
					"intToRoman(uint256)": "0cbc513a",
					"s()": "86b714e2"
				}
			},
			"storageLayout": {
				"storage": [
					{
						"astId": 55,
						"contract": "job-4-int-to-roman/IntToRoman.sol:IntToRoman",
						"label": "s",
						"offset": 0,
						"slot": "0",
						"type": "t_string_storage"
					}
				],
				"types": {
					"t_string_storage": {
						"encoding": "bytes",
						"label": "string",
						"numberOfBytes": "32"
					}
				}
			},
			"userdoc": {
				"kind": "user",
				"methods": {},
				"version": 1
			}
		}
	}
}